:020000040800F2
:100000000004002051010008590100085B010008AC
:1000100000000000000000000000000000000000E0
:100020000000000000000000000000005D0100086A
:1000300000000000000000005F01000861010008EE
:10004000630100080000000063010008630100086C
:1000500063010008630100086301000863010008F0
:10006000000000006301000863010008630100084C
:10007000630100086301000863010008000000003C
:10008000630100086301000800000000630100082C
:1000900063010008630100086301000863010008B0
:1000A00063010008630100086301000863010008A0
:1000B0006301000800F002F800F030F80CA030C82E
:1000C000083824182D18A246671EAB4654465D46D4
:1000D000AC4201D100F022F87E460F3E0FCCB6466E
:1000E0000126334200D0FB1AA246AB4633431847E1
:1000F0007807000088070000002300240025002660
:10010000103A01D378C1FBD8520700D330C100D5D3
:100110000B6070471FB51FBD10B510BD0348854665
:10012000FFF7F8FF00F0E2FA00F0CDF8000400203D
:1001300003B4FFF7F1FF03BC00F0CEF880F30888AA
:10014000002080F31488BFF36F8F62B60847000069
:100150000448804704480047FEE7FEE7FEE7FEE765
:10016000FEE7FEE7A5060008B50000080022030927
:100170008B422CD3030A8B4211D300239C464EE0C2
:1001800003460B433CD4002243088B4231D303097E
:100190008B421CD3030A8B4201D394463FE0C30930
:1001A0008B4201D3CB01C01A524183098B4201D348
:1001B0008B01C01A524143098B4201D34B01C01A33
:1001C000524103098B4201D30B01C01A5241C308AB
:1001D0008B4201D3CB00C01A524183088B4201D31A
:1001E0008B00C01A524143088B4201D34B00C01A06
:1001F0005241411A00D201465241104670475DE01B
:10020000CA0F00D04942031000D34042534000229D
:100210009C4603098B422DD3030A8B4212D3FC2246
:10022000890112BA030A8B420CD3890192118B42C5
:1002300008D3890192118B4204D389013AD09211DB
:1002400000E08909C3098B4201D3CB01C01A524196
:1002500083098B4201D38B01C01A524143098B425F
:1002600001D34B01C01A524103098B4201D30B0148
:10027000C01A5241C3088B4201D3CB00C01A52416D
:1002800083088B4201D38B00C01A5241D9D2430854
:100290008B4201D34B00C01A5241411A00D2014691
:1002A000634652415B10104601D34042002B00D5FB
:1002B0004942704763465B1000D3404201B50020BD
:1002C000C046C04602BD10B50446C046C0462046E2
:1002D000FFF72EFF10BD000001491820ABBEFEE75E
:1002E000260002007047000070B50B492D25431809
:1002F00000206D02411C8400CAB21E5B5219964256
:1003000008D1E4186488D24392B2944202D188B2F0
:100310005128EFD370BD000000F40008F8B5154671
:100320000F46064600F03EF800281BD00024AC42E1
:1003300008D2395B0E48814204D0301900F05CF8D5
:1003400000280FD001218902A41C8C42EFD3084B56
:100350000020A84201D23A5A00E01A46345A944288
:1003600001D00020F8BD801C8842F2D30120F8BDE6
:10037000FFFF000070B50024094D0DE00B5D5840F3
:100380000023C60702D04008684000E040085B1C1C
:10039000DBB2082BF5D3641C9442EFD370BD000090
:1003A0002083B8ED70B50546114807212818490388
:1003B000884201D2A80501D0002070BD00F050F89D
:1003C0000028FAD00B4C2069022630432061656179
:1003D000206940210843206100F042F8002820698C
:1003E00003D0B0432061012070BDB0432061E3E73A
:1003F00000E8FFF70020024070B505460E4615489C
:10040000072128184903884221D2E8071FD12888EC
:10041000B04217D01049884219D100F021F80028C5
:1004200011D00E4C20690121084320612E8000F07C
:1004300017F80028206907D040084000206128886C
:10044000B04204D1012070BD40084000206100206E
:1004500070BD000000E8FFF7FFFF00000020024031
:1004600001210C480906C268D20702D0491EFAD100
:1004700006E0002904D0C26814210A4202D0C160FB
:1004800000207047C168890601D52021C160012084
:10049000704700000020024009484169012292048F
:1004A0001143416140690748082181610268C02306
:1004B0009A434032026042688A43426070470000BB
:1004C00000100240000400480A460E4B10B5C03A26
:1004D0009A4214D202680C4B0C4C4068D318A342C9
:1004E0000DD292070BD1C20709D04008084A40003C
:1004F000904204D38918884201D2012010BD002007
:1005000010BD0000C169000040FFFFDF311F000087
:1005100000180008254D0124D5216407C90128468B
:10052000FFF7D2FF224A002835D02248106300216D
:10053000880043191B68491C23503029F8D303CC89
:1005400072B600231C4C23616361A3611B4C5B1ECC
:1005500023601B4C236005231A4C5B0663601A4B17
:100560001C6980252C431C61184B9C6901252C4378
:100570009C619B69164B1C6803252C431C60BFF3D0
:100580004F8FBFF36F8F1B68DB439B0707D0094872
:10059000ED301063FEE70748EC301063FEE7054BD3
:1005A0005B1C1363FFF7CAFDFEE70000001800089C
:1005B000C01F0020020007B000E000E080E100E082
:1005C00080E200E000ED00E0002002400010024068
:1005D00000000140054BC01803888B4204D14088BD
:1005E000904201D1012070470020704700F40008BC
:1005F000F7B584B00E460498FFF776FE254F044603
:100600007D1438E003212046FFF7B0FD069B8002F1
:100610002A46002B07D0B04201D3002203E0431941
:10062000B34200D9321A00292AD001292CD01B4B01
:100630002A461949C018FFF771FE00281ED0641C15
:10064000A4B20498A10008181549401800902D2163
:10065000E0B249024018014601900098FFF7CCFE35
:10066000002815D00198C04381B20098801CFFF784
:10067000C3FE00280CD0512CC4D3012007B0F0BD1C
:10068000C1192A460448D6E704494118C019D2E7DF
:100690000020F3E70018000800F0000800840008BC
:1006A000FCF3000810B5FFF7F7FE10BD70B5044667
:1006B000064815462018FFF79FFE002805D003487E
:1006C0002946801C2018FFF797FE70BD00F4000833
:1006D000BFF34F8F04490348C860BFF34F8F00BF7B
:1006E000FDE700000400FA0500ED00E04F4CFFF7C5
:1006F000D3FE50494E4808634F491B262068B60276
:10070000884225D1A088012822D1E08820281FD145
:10071000A08B4A4988421BD1FF21A06881318842C1
:1007200016D9B04214D8FF38E168813881420FD120
:10073000D520C00181420BD8002018222146C04399
:10074000FFF718FEA169C043814201D1012000E0FA
:1007500000203B490A69120603D53A4A4A603A4AE0
:100760004A6009690906C917491C5AD0002858D09F
:10077000364A37492020FFF72DFF0546354A3649CE
:100780002420FFF727FF0746344A35492820FFF782
:1007900021FF2946014306D0002D01D0002F2CD087
:1007A00000283BD13DE04020FFF79EFD00280FD1FF
:1007B0002C4D401E2946A268FFF7DCFD2169C0438D
:1007C000814214D12846E168FFF77EFE00280ED052
:1007D00001224020E168FFF70BFF002807D01B4AE9
:1007E0001B492020FFF762FF00281AD11BE04020A0
:1007F000FFF77AFD002816D110E000280ED1012065
:10080000002231464002FFF7F3FE00280BD0134AC6
:1008100013492820FFF74AFF002804D02046FFF79D
:10082000C1FDFFF777FEFFF753FF000000F400085B
:10083000010007B0C01F00203141544F5AA50000ED
:100840000020024023016745AB89EFCD5E8E00009A
:10085000A1710000B03F00004FC00000B44B000089
:100860004BB4000000840008780800080000002055
:0808700000040000F80000087C
:04000005080000B53A
:00000001FF
