:020000040800F2
:10000000000400203D0100084501000847010008E8
:1000100000000000000000000000000000000000E0
:10002000000000000000000000000000490100087E
:1000300000000000000000004B0100084D01000816
:100040004F010008000000004F0100084F010008A8
:100050004F0100084F0100084F0100084F01000840
:10006000000000004F0100084F0100084F01000888
:100070004F0100084F0100084F0100080000000078
:100080004F0100084F010008000000004F01000868
:100090004F0100084F0100084F0100084F01000800
:1000A0004F0100084F0100084F0100084F010008F0
:1000B0004F01000800F002F800F030F80CA030C842
:1000C000083824182D18A246671EAB4654465D46D4
:1000D000AC4201D100F022F87E460F3E0FCCB6466E
:1000E0000126334200D0FB1AA246AB4633431847E1
:1000F00030010000400100000023002400250026FC
:10010000103A01D378C1FBD8520700D330C100D5D3
:100110000B6070471FB51FBD10B510BD0348854665
:10012000FFF7F8FF00F05EF800F016F8000400207A
:1001300003B4FFF7F1FF03BC00F018F80448804750
:1001400004480047FEE7FEE7FEE7FEE7FEE7FEE7BE
:10015000DD010008B500000810B50446C046C046E1
:100160002046FFF7E5FF10BD704700000149182049
:10017000ABBEFEE72600020012484169032292044A
:1001800011434161406911480F4981611049C2041E
:100190008A6102680F4B1A400F4BD21802600A683E
:1001A00003239B069A430304D2180A604268FF2384
:1001B00009339A43426048680122520390434860E1
:1001C00070470000001002400800000100040048D1
:1001D000000800483FFFFCFF4000010010B5FFF79A
:1001E000CBFF10BD08B5FFF7C7FF01250024094A62
:1001F0006D03094B09496E11506968405061586997
:1002000070405861009400BF0098401C00908842E4
:10021000F9D3F1E7000800480004004800350C005D
:10022000300200080000002000040000F800000870
:04000005080000B53A
:00000001FF
