:020000040800F2
:1000000000090020E1000008E9000008EB000008FA
:1000100000000000000000000000000000000000E0
:10002000000000000000000000000000ED000008DB
:100030000000000000000000EF000008F1000008D0
:10004000F300000800000000F3000008F3000008BF
:10005000F3000008F3000008F3000008F3000008B4
:1000600000000000F3000008F3000008F30000089F
:10007000F3000008F3000008F3000008000000008F
:10008000F3000008F300000800000000F30000087F
:10009000F3000008F3000008F3000008F300000874
:1000A000F3000008F3000008F3000008F300000864
:1000B000F30000080448854600F076F80048004741
:1000C000AD170008C046C0460009002080F308882C
:1000D000002080F31488BFF36F8F62B608470000DA
:1000E0000448804704480047FEE7FEE7FEE7FEE7D6
:1000F000FEE7FEE781090008B500000830B50B46B1
:10010000014600202022012409E00D46D5409D42F1
:1001100005D31D469540491B254695404019154677
:10012000521E002DF1DC30BD10B5431A934209D2A6
:100130008318881803E0401E01785B1E1970521E58
:10014000F9D210BD03460B439B0703D009E008C951
:10015000121F08C0042AFAD203E00B780370401C77
:10016000491C521EF9D210BDD2B201E00270401CEF
:10017000491EFBD270470022F6E710B513460A4627
:1001800004461946FFF7F0FF204610BD30B504467F
:100190000020034600E05B1C934203D2E05CCD5C90
:1001A000401BF8D030BD0000064C0125064E05E08E
:1001B000E36807CC2B430C3C98471034B442F7D388
:1001C000FFF77CFFFC1C00080C1D000804494018C8
:1001D0000121C902884201D20120704700207047E6
:1001E0000010FFF7044940181921C902884201D2C2
:1001F000012070470020704700E0FFF710B50E485F
:100200000E4A0168914207D14168D243914203D11D
:10021000008980B2012802D00020C04310BD2020F8
:1002200000F0DEFA0446FF20553000F0D9FA84428F
:10023000F4D9204610BD000000E80008534E5631A6
:1002400070B506461F480025ACB00C46864233D335
:10025000C02C31D3C520C00184422DD82046FF30A8
:100260008130824228D119208002824224D8B018DD
:10027000B04221D3144988421ED8684601F060F884
:1002800022463146684601F02EF81CA9684601F066
:1002900069F8301924A900F077F800280DD0002063
:1002A0001CAA24AB115C1C5C401C614029430D4618
:1002B0002028F7D3002902D000202CB070BD0120E7
:1002C000FBE70000002000080000010870B50B49A2
:1002D0002D25431800206D02411C8400CAB21E5B0C
:1002E0005219964208D1E4186488D24392B29442DB
:1002F00002D188B24B28EFD370BD000000F4000893
:10030000F8B515460F46064600F088F800281BD0C1
:100310000024AC4208D2395B0E48814204D0301927
:1003200000F0A8F800280FD001218902A41C8C42FB
:10033000EFD3084B0020A84201D23A5A00E01A46F7
:10034000345A944201D00020F8BD801C8842F2D378
:100350000120F8BDFFFF000070B50024094D0DE03D
:100360000B5D58400023C60702D04008684000E0FB
:1003700040085B1CDBB2082BF5D3641C9442EFD31E
:1003800070BD00002083B8EDF0B5FFB0FFB0BDB088
:100390000F4603ACA10700D4A41C2546FF26FF3559
:1003A000813601469D35114B3246204600F0B0FBA8
:1003B000002817D0FF20A1300D490C4B009102906E
:1003C00003220195191F204600F073FC2246314696
:1003D000284600F01AFC202306A231462846009742
:1003E00000F0EAFE7FB07FB03DB0F0BDDE1900083E
:1003F000353B0000096086480165030402010000E6
:10040000484041420843C00F0121484070474840DE
:1004100041420843C00F01214840704770B506466D
:10042000FFF7E0FE002804D13046FFF7CFFE00289A
:1004300001D0B00501D0002070BD00F059F80028AF
:10044000FAD00B4C2069022528432061666120699F
:1004500040210843206100F04BF80028206903D0B8
:10046000A8432061012070BDA8432061E3E700009C
:100470000020024070B50C460546FFF7B3FE002889
:1004800004D12846FFF7A2FE002803D021462846C3
:1004900000F002F870BD000070B505460E46C007BA
:1004A0001FD12888B04217D00F49884219D100F0D7
:1004B0001FF8002811D00D4C20690121084320614C
:1004C0002E8000F015F80028206907D04008400071
:1004D00020612888B04204D1012070BD400840004E
:1004E0002061002070BD0000FFFF000000200240DE
:1004F00001210C480906C268D20702D0491EFAD170
:1005000006E0002904D0C26814210A4202D0C1606A
:1005100000207047C168890601D52021C1600120F3
:10052000704700000020024002460B1A4A40584023
:1005300002405A40D00F704702460B1A4A405840BA
:1005400002405A40D00F704710B504460068164963
:10055000884227D1A088012824D1E088202821D1F1
:10056000A08B124988421DD1FF21A06881318842A9
:1005700018D919218902884214D8FF38E1688138D6
:1005800081420FD1C520C00181420BD80020182222
:100590002146C043FFF7E0FEA169C043814201D17B
:1005A000012010BD002010BD3141544F5AA500005C
:1005B0000A460E4B10B5C03A9A4214D202680C4B50
:1005C0000C4C4068D318A3420DD292070BD1C2073E
:1005D00009D04008084A4000904204D38918884254
:1005E00001D2012010BD002010BD0000C16100003B
:1005F00040FFFFDF211F000000200008284E0125DA
:10060000C5216D07C9013046FFF7D2FF254C0028F0
:1006100036D0254820630021880082191268491CC1
:100620002A503029F8D32E686D6872B600221F4810
:100630000261426182611E49401708601D490860DD
:1006400005201D49400648601C480169802211436D
:1006500001611B4881690122114381618069194848
:100660000168032211430160BFF34F8FBFF36F8F07
:100670000068C043800707D00B48ED302063FEE7D9
:100680000948EC302063FEE70F4800F093F8064875
:10069000401C206329463046FFF718FDFEE70000A6
:1006A00000200008C01F0020020007B000E000E0AA
:1006B00080E100E080E200E000ED00E00020024088
:1006C0000010024000000140314E5552054BC01849
:1006D00003888B4204D14088904201D101207047A9
:1006E0000020704700F4000800F038F801210A48A3
:1006F000C90481610168C0229143403101604168B1
:100700000822914341600548416A52051143416204
:1007100072B630BFFDE70000000400480010024040
:100720000146034AC9435043484002494840704784
:10073000B179379E0A946E9410B500F00FF8064810
:10074000082181610268C0239A43403202604268F6
:100750008A43426010BD0000000400480948416916
:100760000122920411434161406907480268032154
:1007700089028A430260C2688A43012189025118B2
:10078000C16070470010024000040048064800F0B5
:1007900011F8BFF34F8FBFF34F8F05490348C8606F
:1007A000BFF34F8F00BFFDE7315453520400FA05E9
:1007B00000ED00E010B5084C002121606060C143ED
:1007C000A160FFF7ADFFE060BFF35F8F03482060DB
:1007D000BFF34F8F10BD0000E01F00205057523173
:1007E00070B50146094A66208B180021A524240211
:1007F0000A4666324D00D2B25D5B1619B54203D18E
:10080000491C10469A29F3D370BD000000E8000887
:10081000F7B584B00E460498FFF758FD254F0446FF
:100820007D1438E003212046FFF768FC069B800218
:100830002A46002B07D0B04201D3002203E043191F
:10084000B34200D9321A00292AD001292CD01B4BDF
:100850002A461949C018FFF753FD00281ED0641C12
:10086000A4B20498A10008181549401800902D2141
:10087000E0B249024018014601900098FFF7FAFDE6
:10088000002815D00198C04381B20098801CFFF762
:10089000F1FD00280CD04B2CC4D3012007B0F0BDD3
:1008A000C1192A460448D6E704494118C019D2E7BD
:1008B0000020F3E70020000800F000080084000892
:1008C000FCF3000810B5FFF799FC401C2CD1662002
:1008D00000F036F8002826D001211448FFF7DCFD8F
:1008E000002820D011481249001FFFF7D5FD00282D
:1008F00019D00E480F49801EFFF7CEFD002812D0F8
:100900000A480D490838FFF7C7FD00280BD00748F3
:100910000A49801FFFF7C0FD002804D0FFF76EFCD6
:10092000662801D0002010BD012010BD08E8000895
:10093000ACB10000A9CE0000534E000056310000BB
:1009400070B541000C4BCC390C4CCB180C19A521BF
:1009500002460902663A45189A2A0AD229461846DA
:10096000FFF79AFD002804D029462046FFF794FDA2
:1009700070BD002070BD000020E8000854E90008A8
:10098000FEB5304800260190FFF7E8FE2E4C676A5E
:100990002E480090456800682D49884215D12D48A1
:1009A000854205D02C48854202D02C498D420CD17D
:1009B00000988068E943884207D12846FFF7B0FED7
:1009C00001460098C068814201D0002501E02E4612
:1009D0000125234800698006C017401C06D01B492A
:1009E000002020390862BFF34F8F09E0002D0BD0A3
:1009F0001A48864223D018498E4205D1F80003D503
:100A00001448FFF7D7FE12E01D208006074204D0ED
:100A10000198FFF799FD0028F2D1002D0FD00D4865
:100A200086420CD178010AD50E48074207D1FFF75C
:100A300083FE606A0121090608436062FEBDFFF77C
:100A400053FE000000F4000800100240E01F0020E8
:100A500050575231314E555231545352314E445306
:100A6000000400480000808870B50446064815461A
:100A70002018FFF7FFFC002805D003482946801CFA
:100A80002018FFF7F7FC70BD00F4000802E008C86A
:100A9000121F08C1002AFAD170477047002001E0F8
:100AA00001C1121F002AFBD1704730B5454207E053
:100AB00010780C786040284060400870491C521C37
:100AC0005B1EF5D230BD0A0E02700A0C42700A0A93
:100AD0008270C1707047F0B58E460646318800209E
:100AE0001F310909944601250FE06F007246D35B60
:100AF000F45B6246E3181B18D80B5B045B0C634085
:100B0000524213406340F3536D1C8D42EDD3F0BD50
:100B1000FFB58DB010980A9100880F990F30000929
:100B200007904000884200D20846001D0490002033
:100B300000900890012000242546264605904EE0AE
:100B40000F98864205D20A99801B40182038C17F31
:100B500000E000210846A840044308350F2D3DDB86
:100B60006004400C08220F3D521BD1400C46059AF0
:100B700007998A42089923D8002905D00099014095
:100B80000D985200815226E0029010985100405A70
:100B9000019001460298FFF7C7FC074602990198A9
:100BA000FFF7C2FC4042074300213846FFF728FC0C
:100BB00001460098494278400840784000900AE099
:100BC000002908D1FFF71CFC009901225140404246
:100BD0000140514000910598401C0590761C0498F6
:100BE0008642ADD300984008410001430898009127
:100BF000401C089002289DDB109801880D98018008
:100C0000009811B0C007C00FF0BDF8B513880F33BE
:100C10001E0903D00125002423460FE0FFF7ABFA9D
:100C2000F8BD082B07DAB54204D86F00D75B9F40A8
:100C30003C196D1C0F334454240A083B491EF0D262
:100C4000F8BDF7B50446019800880F300309002568
:100C500020E06188029841434804400C844600210A
:100C6000084612E0420016197788019E96469619AA
:100C7000768862465643BA195218D10B002803D021
:100C80005204520C7646A253401C9842EAD35800B4
:100C900021526D1C9D42DCD300222046019900F0B8
:100CA00035FA0121484002462046019900F02EFA0B
:100CB000FEBDFFB58FB012981A9A008819991F309F
:100CC000000943000693C307DB0F18180A90079129
:100CD0004000411801910290904202D9002013B0C7
:100CE000F0BD052501263046A8400A99401C48431E
:100CF000904202D96D1E012DF4DC12990F9800F07C
:100D000022FA012D0BD001990298069A4018044648
:100D10000F99FFF709FA02272146AE4010E0069A24
:100D20000F990198FFF700FA0CE0189800900298CC
:100D3000129B401804460F9A00F092F821467F1C3F
:100D4000BE42F2D8129801880F9800F00BFA12995F
:100D5000012009880F3109094A000F9988520021A2
:100D6000129A0F9800F026F9002004460C906DE0CE
:100D70002E46AC4211DA119800280DD01098109927
:100D80000078491C10910C99090208430C901198A5
:100D9000401E0834119000E026460C99A41BE14047
:100DA0000120B0400B90401E014000270D910DE046
:100DB000189800900F9A129B1146079800F050F86F
:100DC000069A07990F98FFF7AFF97F1CB742EFDB40
:100DD000012D28DD12980188019800F0C3F90199CE
:100DE000029840188446012019E00D9B01465940A5
:100DF0004B421943C90F51404B42012109E04A00BF
:100E0000019E6746BF5AB65A1F403E43019F491C88
:100E1000BE520A9A9142F2D30299401C8C440B991B
:100E200001228142E1D818980090129B019A0F99F3
:100E3000079800F015F80D98069B41420843C00F33
:100E4000079A0F99FFF731FE002C91DC11980028CA
:100E50008ED1189A12990F98FFF7F3FE01203EE702
:100E6000FFB58DB004461098018808460F30000980
:100E7000009080088000029021800F310909A01C99
:100E80004900FFF778F90020049078E041000E98BF
:100E90006288081841880F98408848438018169A3D
:100EA000504343045B0C0020844642E045000F9E03
:100EB0002A195788AE190B967688AE464E43BF194D
:100EC000109EAE190A96768865465E4375197D199F
:100ED0006E04EF0B760C754666530B9E9588B688AC
:100EE0004E43AD190A9EB6885E43F619AE19F50B4E
:100EF0007604760C56800B9ED788F6884E43BF1931
:100F00000A9EF6885E4375197E19F50B7604760CF9
:100F100096800B9E178936894E43BF190A9E3689E3
:100F20005E4375197D19EE0B6D046D0CB446D580CA
:100F3000001D029A9042B9D313E0420015196E8841
:100F40000F9D55196D884D437619109D55196D8863
:100F50005D4365447519EE0B6D046D0CB446A552E6
:100F6000401C009A9042E8D30498009960444204DF
:100F7000520C49006252C00B04900398401C009927
:100F80000390884282D31098002200882080049821
:100F900041420843C50F2046109900F0B7F80121DF
:100FA000484005432A462046109900F0AFF811B09A
:100FB000F0BD0000F7B5044610888AB01646002838
:100FC0000BD00F280BD8518860880B9AC0031043B0
:100FD00001AA00F0CFFB019860800DB0F0BD014682
:100FE0000F3109094D00070704913F0F615B009124
:100FF000002F3ED00F20C21B914028194038069286
:101000000790C08FF84001430291AA1EA11C201D29
:10101000FFF78AF80B9860800798615B069AC08F8B
:101020009140F840014348040299400CC903084329
:10103000715B9140AA19403AD28FFA4011430D4694
:101040000022294600F096FB074628460299FFF742
:10105000DEF9791EC90F0246C9192B48491E4840BE
:101060005242104048400390002001252F46019035
:101070002FE00291AA1EA11C201DFFF755F80B9826
:1010800060800299C803615B755B4018D8E77800FF
:10109000315A039A02915143019A235A8918CA0B73
:1010A0004904490C591ACB0F9A184904490C01926A
:1010B0000691215202990698FFF7A9F90990029921
:1010C0000698FFF739FA0999454049420D404540D5
:1010D0007F1C04988742DAD900990198FFF72CFA0F
:1010E000074601990098FFF727FA2843B8430546B9
:1010F0003A4631462046FFF7EEFC2A463146204666
:1011000000F004F869E70000FF7F0000F0B58E46AC
:101110000646318800201F310909944601250FE059
:101120006F007246D35BF45B6246E31A1B1AD80F5A
:101130005B045B0C6340524213406340F3536D1CED
:101140008D42EDD3F0BD70B5064608880D460F30D0
:10115000040906D02A4600213046FFF72BFF641E03
:10116000F8D170BD10B501800F3109094900801C0C
:10117000FFF701F810BD10B50CE0537814781B028E
:10118000234394785BBA1B0424022343D47823437B
:1011900008C0121D491EF0D210BD10B508E008C9E4
:1011A0001C0E04701C0C44701C0A8470C370001D5B
:1011B000521EF4D210BD0000FFB58BB00F460B29B4
:1011C00052D30A222F490B98FEF7E0FF00284BD19B
:1011D0000A2604E00B98805DFF2802D1761CBE42EF
:1011E000F8D30D9800280DD0057868462C460934B0
:1011F0002146FEF7C0FF0E98B91B091AA14209D17A
:10120000A81C11E00E98B91B401C81422CD10B98F0
:10121000805D27E0A41CA14226D10C466A46281D09
:101220000523111920390B77302269464A700E992F
:10123000431869461B1D8B70CA70087106204871DF
:101240006A1C6D4668440D99FEF76EFF281904214B
:10125000203881770E99C1770B982246811968460C
:10126000FEF794FF002802D000200FB0F0BD0B98CD
:10127000C1190E98091A02461498FEF755FF01206D
:10128000F3E700007A1B000810B50446054820600B
:101290002046202204495030FEF746FF0020A0647B
:1012A000E06410BDC41C0008841B000810B50722B0
:1012B00000F04EFB10BD70B5144606460A461D46AA
:1012C00008215030FFF757FFF564B46470BD10B5C6
:1012D0000B4601460446082250311846FFF75DFFD1
:1012E000E16CA06C10BDFEB505460091806CAB6C46
:1012F00086061446B60EE96C9A180020414128462D
:10130000AA645030E964019016E04020871BA74290
:1013100000D92746A8193A46001D0099FEF704FF98
:101320000098F619C019E41B0090402E04D1281D26
:10133000019900F01DF80026002CE6D1FEBD00004A
:1013400010B504460548206020462022044950304C
:10135000FEF7EAFE0020A064E06410BDE01C000877
:10136000A41B000810B5082200F0F2FA10BD00001E
:10137000F3B5CFB0024610210EA8FFF7FCFE1021F6
:101380008C000EA82218803A906F11250346EB417D
:1013900013260546F5416B40800A4340506C0726F2
:1013A0000546F54112260746F7417D40C0084540F5
:1013B0005819536E126C491C9A1882180EA80251C3
:1013C0004029DDDB5098509900680D904968509A8B
:1013D0000B9192680A92509B509CDB680993246998
:1013E0000894A446509C0025646903940294509C80
:1013F000A4690794A646509CE4690595069467463F
:101400000625EF4165460B26F5416F4066461925D6
:10141000EE417740029D76467540664635407646F9
:1014200075407E19059DAF00D14D0097ED592C19DF
:1014300035190EACE4590D262F1902250446EC414E
:101440000546F54126466E4016250446EC416640A9
:101450000D460C461543144005402C433519DC1944
:101460007B1901940625EC41019E0B25EE41254692
:101470007540019C1926F4416540029C6646664011
:10148000019C009F2640029C6640B94CAD193F1953
:1014900004977C68009F74442C190EAD7D190C953F
:1014A0006D680D26671902251C46EC411D46F54165
:1014B0006C4016261D46F5416C40064605460E4317
:1014C0000D401E403543D219641900923A19009C10
:1014D0000625EC41009D0B26F5416C40009E192528
:1014E000EE4125467540019C66467440009E049F6F
:1014F0003440664674402D19BE68029C1746341964
:101500002C190C9D1646AD6865190224E6410D2480
:10151000E7417E4016241746E741AE461C461D466D
:1015200004437E40054014402543741975464D1907
:10153000029575462919029D0624E541029C0B2659
:10154000F4416540029C1926F4412E466640009FF6
:10155000019C029D67402F406740F519049F644637
:10156000FE680F4634192C190C9D0226ED6865198A
:101570000C46F4410D26F7417C4016260F46F741F4
:101580007C40174616461F431E400F403E43A41999
:101590004619281934460625EC41B4460B25EE4180
:1015A000744066461925EE417440009E029D049FDA
:1015B000754066463540009E754065193E69019C40
:1015C00034192C190C9D0D262D6967190225044626
:1015D000EC410546F5416C4016260546F5416C4048
:1015E0000E460D4616431540064035436519DC1975
:1015F0007B1906252746EF410B262546F5416F400E
:1016000019262546F5416F40029D66466E402640EC
:101610006E40BD19049F7E69009FF619AE190C9D9E
:101620000D276D697619009602261D46F5411E4666
:10163000FE41754016271E46FE4175400646074688
:101640000E430F401E403743009EED1992199646F7
:10165000721975460626F54176460B27FE41754000
:1016600076461927FE4175406646274677407646FE
:10167000374066467740EE19049F029DBF697D1989
:1016800076190C9D0D27AD69751900950226154632
:10169000F5411646FE41754016271646FE416E403E
:1016A0001F461D460743054017403D437619009DE0
:1016B0000B2749190291A919029D0626F541029EA0
:1016C000FE417540029E1927FE4175407646029FF5
:1016D00066403E40049F6640AD19FF696646BE19EC
:1016E000AE190C9DED697619009602260D46F5415E
:1016F0000D270E46FE412F46774016260D46F54132
:101700006F40164615461E431D400E403543009E51
:101710007D19801984467019059D08350595402D61
:1017200000DA6CE60D9D2D18509805600B98411855
:10173000509841600A988118509881600998C118A2
:101740005098C1600898614641185098016102990B
:101750000398411850984161079871464118509874
:101760008161069801195098C16151B0F0BD000027
:10177000C41B0008F7B500240E040746102539469F
:101780003046FEF7D9FE012148400146A9404042BB
:10179000304021433F1A76080C466D1EEFD5029863
:1017A000002800D007600846FEBD00005B485A4C88
:1017B00001680906890F012937D14069000734D52E
:1017C000584D574828632046FEF7BEFE0646564849
:1017D0000169090603D555494160554941600069D1
:1017E0000006C017401C72D0FFF76CF800281ED00E
:1017F000002E6CD04F4A50492020FEF767FF064666
:101800004E4A4F492420FEF761FF07464D4A4E4994
:101810002820FEF75BFF314601430CD0002E01D09B
:10182000002F3FD000284FD154E0FEF75DFF3C4829
:10183000E0302863FEE74020FEF748FD00281CD179
:10184000424D401E2946A268FEF786FD2169C0432D
:10185000814221D1FEF7D2FC0146207D81421BD876
:101860002846E168FEF7A4FE002815D02846A268A5
:10187000E168FEF7E5FC00280ED001224020E16877
:10188000FEF7C6FF002807D02A4A2B492020FFF781
:10189000EBF800283DD11BE04020FEF717FD0028A3
:1018A00016D111E000280FD1192101200022890250
:1018B0004002FEF7ADFF00280AD0224A2249282024
:1018C000FFF7D2F8002803D02046FEF7A7FD20E05E
:1018D000FEF75CFF002E1CD0002F1AD0267DFEF7ED
:1018E0008DFC411C11D0662E0FD3864211D9441CA9
:1018F00005E0E0B2FFF724F8002806D0641CB442EB
:10190000F7D9FEF77BFCB04203D20548E1302863EB
:10191000FEE7FEF773FE000000F400080004004834
:10192000010007B0C01F00200020024023016745CE
:10193000AB89EFCD5E8E0000A1710000B03F0000CA
:101940004FC00000B44B00004BB4000000840008FE
:10195000F0B50546806C99B0840617460E46A40E75
:101960002246291D6846FEF7DFFB2946202250311A
:1019700010A8FEF7D9FB802168460155641C382C5D
:101980000DD94021091B0019FEF7F5FB10A9684687
:10199000FFF7EEFC38216846FEF7EDFB04E0382146
:1019A000091B0019FEF7E7FBAA6CE96C530FC9008D
:1019B0000EA81943D5000446FFF785F82946201DD7
:1019C000FFF781F810A96846FFF7D2FC3A4610A944
:1019D0003046FFF7E2FB19B0F0BD01000100000C3A
:1019E000E300DC013171E86A3900C1434A705938BB
:1019F000FB16F874B728AF149A07FB67875C424957
:101A0000F0168303193F58364F2B7F5B3C5307403A
:101A1000AD100524506387310F51FB5C35663801EA
:101A2000D448477C843ED541D058B46FDA52BB319C
:101A3000CC5CB7360C7EF3485F3E595EBC72817F4A
:101A40006F597A08D67CAF05837751092F67B41791
:101A50001E311127885CF70B7F1AC2704B39E718CB
:101A60009C3B5D1518513141841F111342490857A1
:101A70009C58547F1D75F01E8F62A54889003E1743
:101A8000446AF3366B4B5019AC10541E48082D268F
:101A9000F57F63571A69D962D742006D500C6373A2
:101AA000D363A073CE10C871BB482516C333BA2BBD
:101AB000591C7F36D72BFE79B516BB1B4A13056D13
:101AC000C4539118A70CF81F5811DC15350569543B
:101AD000B23CEF14BA19B36CBD341D5B024BE31A70
:101AE0004E1C795D5E74AD149677C0401F7413165A
:101AF000B84CF4599E74E613B541A72D4C3EAF5730
:101B00007A0B304B61357406F80991132465E4595A
:101B1000475266253E33017F783AC35E0643DD298E
:101B2000B9078C066A736E131D515D1FA513194DFD
:101B3000942E4741F5264015785E3A7763478B210E
:101B40000701726B0E51842CCB760F2EAA351069CB
:101B5000C04BDA43215397197D4D043B194EE75F83
:101B60003739295CB154E2624C0401381543D61D63
:101B7000C55C47750F4FAA1D7C0C0001FFFFFFFFDE
:101B8000FFFFFFFFD89E05C107D57C3617DD7030FB
:101B900039590EF7310BC0FF11155868A78FF9643A
:101BA000A44FFABE67E6096A85AE67BB72F36E3C66
:101BB0003AF54FA57F520E518C68059BABD9831F18
:101BC00019CDE05B982F8A4291443771CFFBC0B5A5
:101BD000A5DBB5E95BC25639F111F159A4823F92F8
:101BE000D55E1CAB98AA07D8015B8312BE85312451
:101BF000C37D0C55745DBE72FEB1DE80A706DC9B12
:101C000074F19BC1C1699BE48647BEEFC69DC10FBD
:101C1000CCA10C246F2CE92DAA84744ADCA9B05CF9
:101C2000DA88F97652513E986DC631A8C82703B0BC
:101C3000C77F59BFF30BE0C64791A7D55163CA06CA
:101C400067292914850AB72738211B2EFC6D2C4DD6
:101C5000130D385354730A65BB0A6A762EC9C281C4
:101C6000852C7292A1E8BFA24B661AA8708B4BC25A
:101C7000A3516CC719E892D1240699D685350EF484
:101C800070A06A1016C1A419086C371E4C7748273B
:101C9000B5BCB034B30C1C394AAAD84E4FCA9C5BB1
:101CA000F36F2E68EE828F746F63A5781478C88402
:101CB0000802C78CFAFFBE90EB6C50A4F7A3F9BEE4
:101CC000F27871C670000000031C105389120008DE
:101CD000E7120008AD120008CF120008B712000882
:101CE000700000000420105341130008E7120008A0
:101CF00065130008CF120008B7120008FC1F000887
:101D000000000020000900009C0A000800000000FC
:101D100000000000000000000000000000000000C3
:101D200000000000000000000000000000000000B3
:101D300000000000000000000000000000000000A3
:101D40000000000000000000000000000000000093
:101FC0004D41504901003C000500000002000000A6
:101FD00041020008FD0100083FCCDCB727514F80CB
:101FE000A264FEC76933C305262D3CE92F91F8A9E9
:0C1FF000711E4EEC1A84C0D4FFFFFFFFEE
:04000005080000B53A
:00000001FF
