:020000040800F2
:10200000C01400209121000855560008CD4F00084B
:1020100000000000000000000000000000000000C0
:10202000000000000000000000000000A55D0008A6
:10203000000000000000000041590008A5610008F0
:10204000A321000800000000A3210008A32100082C
:10205000A3210008A3210008A3210008A321000850
:102060000000000001340008193400083134000871
:102070007D280008A3210008A3210008000000001B
:10208000A3210008A321000800000000A3210008EC
:10209000A3210008A3210008A3210008A321000810
:1020A000A3210008A3210008A3210008497000080B
:1020B0006970000800F002F800F03EF80CA030C88B
:1020C000083824182D18A246671EAB4654465D46B4
:1020D000AC4201D100F030F87E460F3E0FCCB64640
:1020E0000126334200D0FB1AA246AB4633431847C1
:1020F000685D0000885D0000103A02D378C878C19E
:10210000FAD8520701D330C830C101D504680C6039
:10211000704700000023002400250026103A01D358
:1021200078C1FBD8520700D330C100D50B6070478F
:102130001FB51FBD10B510BD00F06DFB1146FFF7B8
:10214000F7FF05F013FB00F085FB03B4FFF7F2FF88
:1021500003BC00F08BFB000070B505460C4616462C
:1021600002E00FCC0FC5103E102EFAD2082E02D37B
:1021700003CC03C5083E042E07D301CC01C5361F8E
:1021800003E021782970641C6D1C761EF9D270BDA5
:102190000748804707480047FEE7FEE7FEE7FEE7FF
:1021A000FEE7FEE704480549034A054B7047000077
:1021B000B1620008B5200008C00B0020C014002048
:1021C000C00B002010B5202A04DB0846203AD0407E
:1021D000002110BD0B462024D340D040A21A9140CC
:1021E0000843194610BDFEB5054610460C46184377
:1021F00073D0AE468C460020AD1A01469C4167D391
:102200006646002701243D46B61A9D4102D3134677
:102210003A462124654676462F04360C3E432D0C63
:10222000B61A9D4104D3150C1B042B431204103421
:10223000654676462F06360A3E432D0AB61A9D415C
:1022400004D3150E1B022B43120208346546764652
:102250002F0736093E432D09B61A9D4104D3150FA9
:102260001B012B431201241D65467646AF07B608B5
:102270003E43AD08B61A9D4104D3950F9B002B43F6
:102280009200A41C65467646EF0776083E436D082B
:10229000B61A9D411AD392185B41641C16E00018CF
:1022A000764665464941B71A9D410191009009D390
:1022B0006046B11A98418E468446009801990025DF
:1022C000401C6941DD0752082A435B08641EE6D5BD
:1022D0007246634603B0F0BDFFE700200146C046EA
:1022E000C0462A462346F5E7034610B50B439B0735
:1022F0000FD1042A0DD308C810C9121FA342F8D069
:1023000018BA21BA884201D9012010BD0020C0436B
:1023100010BD002A03D0D30703D0521C07E00020D1
:1023200010BD03780C78401C491C1B1B07D1037897
:102330000C78401C491C1B1B01D1921EF1D1184680
:1023400010BDF8B5042A2CD3830712D00B78491C92
:102350000370401C521E83070BD00B78491C03707E
:10236000401C521E830704D00B78491C0370401C8C
:10237000521E8B079B0F05D0C91ADF002023DE1BDE
:1023800008C90AE0FFF7E8FEF8BD1D4608C9FD4090
:102390001C46B4402C4310C0121F042AF5D2F30887
:1023A000C91A521EF0D40B78491C0370401C521EEF
:1023B000EAD40B78491C0370401C012AE4D4097844
:1023C0000170F8BD431A70B593421BD2891880186A
:1023D00004E0491E401E0B78521E03709307F8D18B
:1023E00006E01039103878C9103978C01038103A22
:1023F000102AF6D203E0091F001F0B680360121FAA
:10240000F9D570BDFFF7A8FE70BDF8B506461446B5
:102410000843800707D0751AA54219D20819102D54
:1024200013D2311907E03046FFF7CCFFF8BD401E4C
:10243000491E02780A70641EF9D2F8BD471B2A466D
:102440003946FFF77EFF641B3846A542F6D3011BD1
:1024500022463046FFF775FFF8BDD2B210B5130221
:102460009A1813049A1800F00EF810BD01E004C089
:10247000091F0429FBD28B0701D50280801CC907E4
:1024800000D00270704700290BD0C30702D0027041
:10249000401C491E022904D3830702D50280801CF8
:1024A000891EE3E70022EEE70022DFE700220309AE
:1024B0008B422CD3030A8B4211D300239C464EE05F
:1024C00003460B433CD4002243088B4231D303091B
:1024D0008B421CD3030A8B4201D394463FE0C309CD
:1024E0008B4201D3CB01C01A524183098B4201D3E5
:1024F0008B01C01A524143098B4201D34B01C01AD0
:10250000524103098B4201D30B01C01A5241C30847
:102510008B4201D3CB00C01A524183088B4201D3B6
:102520008B00C01A524143088B4201D34B00C01AA2
:102530005241411A00D201465241104670475DE0B7
:10254000CA0F00D04942031000D34042534000223A
:102550009C4603098B422DD3030A8B4212D3FC22E3
:10256000890112BA030A8B420CD3890192118B4262
:1025700008D3890192118B4204D389013AD0921178
:1025800000E08909C3098B4201D3CB01C01A524133
:1025900083098B4201D38B01C01A524143098B42FC
:1025A00001D34B01C01A524103098B4201D30B01E5
:1025B000C01A5241C3088B4201D3CB00C01A52410A
:1025C00083088B4201D38B00C01A5241D9D24308F1
:1025D0008B4201D34B00C01A5241411A00D201462E
:1025E000634652415B10104601D34042002B00D598
:1025F0004942704763465B1000D3404201B500205A
:10260000C046C04602BD704770477047F0B5FF2511
:102610002D04C609C209FF2704462E400137CB0905
:102620003E4348402A402B400746002A6BD0002BEF
:1026300069D0AA4267D0AB4265D0002800DA3246A2
:102640000125ED0529432C4309022002090AD21A6B
:102650004B0C7F24E31A434C000A7C44E35C7D244A
:102660002404121914145B00A218884201D3521CCE
:1026700000E0400049420C465C4324115C43DB010E
:102680006415E318040A5C43C502200D0C4644435C
:102690006419250A5D432303EC0C0D4665430003D2
:1026A0000019EB184C42A34201D35B18401CD4051F
:1026B0002018002B07D05B00C91804D3401C002948
:1026C00001D1400840003F2189048A4209D3002AF1
:1026D00008DC1106090F04D0032149074018C00F78
:1026E000C007F0BD01224100120689187F22520660
:1026F0009142F6D205214907C84201D59010F0BD9C
:10270000FF20C005F0BD002F00DA32461648AA426D
:1027100007D2AB4205D21902090E17D0F80FC00735
:10272000F0BDFF2563002D06AB42F9D84900A94250
:10273000F6D8AB4201D1A942F2D0A94201D1002181
:1027400001E061004908D0050843F0BD1102090EFF
:10275000FBD0FF200243D005F0BD0A4601461046DB
:1027600054E70000B85700000000C07F10B50146D4
:102770009E240002CA15A307002A02D01843002A8B
:1027800004DBA21A002A0CDDD04010BD1206120E86
:1027900001D140004008A21A03D4D0404042002892
:1027A000F3DDFF2248001206904201D9002010BD3F
:1027B000C817C043584010BD1F22030C02D10F227E
:1027C00000041CD0030E01D10002083A030F01D10E
:1027D0000001121F830F01D18000921E002801DB2F
:1027E0004000521ED2055118021251181922904071
:1027F00004D3491C002801D1490849000846704704
:10280000C10FC90700D04042012292071143D3E70C
:1028100001218907D0E7754600F024F8AE4605008F
:1028200069465346C008C000854618B020B5FFF77A
:10283000B9FC60BC00274908B6460026C0C5C0C523
:10284000C0C5C0C5C0C5C0C5C0C5C0C5403D4900A4
:102850008D46704710B50446C046C0462046FFF777
:1028600074FC10BD004870475C0B00200149182023
:10287000ABBEFEE7260002007047000010B502481C
:1028800001F0BAF810BD0000E401002070B5044664
:1028900000688168490724D5816810254907002907
:1028A00005DA8168890702D481682943816001F0D3
:1028B0000BFD064611E001F007FD801B02280CD934
:1028C00020688068400708D5A06B2843A063E06BB0
:1028D00001210843E063084670BD20688068400716
:1028E000E9D4002070BD10B50146406A826B5023C8
:1028F0001A420AD1816B012252021143816301689D
:10290000CA681205920F05D020E0006B026B0846E2
:10291000904710BD827E002A18D10A68120715D58B
:102920008A6801235207002A09DB4A680C24A24363
:102930004A60816B1A0291431943816306E0816BFF
:10294000202211438163C16B1943C16301F046F832
:1029500010BD10B5406A816B402211438163C16B89
:1029600004221143C16301F046F810BD10B5406A5E
:1029700001F040F810BDF8B5044600688168890789
:10298000890F01292CD10168C90702D1C168090446
:1029900026D581680522114010250126012913D171
:1029A000816802221143816021680320086001F0E0
:1029B0008BFC074610E001F087FCC01B02280BD9F6
:1029C00020688068C00707D0A06B2843A063E06B35
:1029D0003043E0630120F8BD20688068C007EAD179
:1029E0000020F8BDF8B504460020009020688168FA
:1029F0008907890F012905D10168C90731D1C1684B
:102A000009042ED48168184A102611400125002996
:102A10001AD1816829438160154814490068FFF77D
:102A200045FD00E0401E00900028FBD101F04CFC69
:102A3000074611E001F048FCC01B02280CD92068B1
:102A40000068C043C00707D0A06B3043A063E06BB1
:102A50002843E0630120F8BD20680068C043C00738
:102A6000E8D10020F8BD00001700008040420F00B0
:102A7000FC00002010B50146072003F00DF803F01C
:102A8000D3F810BDF0B50023084F4E1EFB7305E0D0
:102A90005C0025186D8805535B1CFB73DBB2B342E9
:102AA000F6DB490008184038C287F0BD300100202D
:102AB000F8B50446032834D22848814231D008466C
:102AC0001E302ED025480A46401E814229D0234D73
:102AD0001046AD1EA94224D0FFF792FE06461420F0
:102AE0001F4F44433859314605F028F8E41961680E
:102AF00004F0DEFF314605F021F8A16804F0D8FFAC
:102B0000314605F01BF8E16804F0D2FF314605F0CC
:102B100015F8216904F0CCFF1249884203DD681CD6
:102B2000F8BD0846F8BDFF21C905C84201D32846B3
:102B3000F8BD0D49884201DD0C48F8BDC7210906E2
:102B4000884202D90948C043F8BD3F21090604F074
:102B5000AFFFFFF70BFE00B2F8BD0000E703000077
:102B6000A80100200000FA4300FEFF46FF7F00009E
:102B7000F0B51C494A785606760E4E700A7955060D
:102B80006D0E0D714A795206520E4A718B795B06B1
:102B90005B0E8B719C46CB799C06A40ECC710B7A94
:102BA0009B069B0E0B7203280CD00F4880270078E1
:102BB000002805D0012806D0022807D0032808D015
:102BC0003A434A71F0BD3D430D71F0BD3E434E7036
:102BD000F0BD604638438871C0200443CC71034384
:102BE0000B72F0BDDC0700202A0100200C4B0022F4
:102BF0000C49984201D101200EE0094B5B1E98421E
:102C000001D1022008E0064B5B1C984203D01E3025
:102C100001D000207047032048728A82012070474B
:102C2000E60300008401002070B50A4C0025A5735E
:102C300007E05300C35AE383268CF3182384521C05
:102C4000A273A27B8A42F4D3208CFFF72FFCE0838F
:102C5000258470BD3001002070B50C214843154912
:102C6000154C401881882046124D438BA28BF03DB5
:102C70005800782A02D2521CA28303E02A5AE66B3B
:102C8000B21AE2632952E06B5B1C401899B2E06310
:102C90006183782901D300216183A18B4A08101830
:102CA000FFF704FC054980B248430549FFF7FEFBE6
:102CB00080B270BD5C09002030010020E40C0000EF
:102CC000FF0F000010B509240121E4060022C9020B
:102CD000204601F0F2FA012100220903204601F00A
:102CE000ECFA02490020087210BD000084010020A7
:102CF00070B50D4C207A002814D109250122ED066B
:102D0000D102284601F0D9FA0126360300223146C5
:102D1000284601F0D2FA01223146284601F0CDFAC8
:102D20000120207270BD00008401002070B52C4C81
:102D30000126A0790025002807D0E570257125829D
:102D40006582A5716571E57110E06079002806D093
:102D5000E6706582258226716571FFF7C9FFE0780C
:102D600001281CD003281AD0022822D0FFF7AAFF7E
:102D7000E078012825D0032823D002281CD0257113
:102D8000E07801280AD1608A4B21401C80B20901F9
:102D90006082884202D3E5702571E57170BDFFF74E
:102DA000A7FFE0790028E3D00220E0702671258299
:102DB00002E0E079002801D0267170BD0320E070A8
:102DC0002582208A401C80B220820528D8D3258203
:102DD0002079002802D000202071D1E70120FBE7F4
:102DE0008401002001220A480021027081720171D1
:102DF00007234370C1708270417241718271C17149
:102E00000272C172C173017341738173027470479E
:102E100048070020F8B5124E00253046113840789A
:102E200007010120103700F0FFF800F021F902201F
:102E300000F0FAF8002407E0305D00F0D7F8305DCC
:102E40004019641CC5B2A4B2BC42F5D3284600F0B8
:102E5000CDF8042000F0E8F800F0FAF8F8BD000022
:102E6000590700200748074A407811320301002023
:102E70000146103302E01154401C80B29842FAD34C
:102E8000704700004807002010B5012000F0CCF882
:102E900006490120C87200F007F900F0E9F80E2099
:102EA00000F0C2F800F0D4F810BD00004807002080
:102EB00070B5434D434E030004F040FB0A06111E5B
:102EC0002B3845525F6C7910012000F0ADF800F00E
:102ED000CFF8022000F0A8F80020287070BD002470
:102EE000305D00F083F8305D2978641C4018E4B24E
:102EF0002870102CF4D370BD1024305D00F076F8EB
:102F0000305D2978641C4018E4B22870202CF4D37A
:102F100070BD2024305D00F069F8305D2978641CB4
:102F20004018E4B22870302CF4D370BD3024305DEA
:102F300000F05CF8305D2978641C4018E4B2287019
:102F4000402CF4D370BD4024305D00F04FF8305D6C
:102F50002978641C4018E4B22870502CF4D370BD5A
:102F60005024305D00F042F8305D2978641C401830
:102F7000E4B22870602CF4D370BD6024305D00F0A2
:102F800035F8305D2978641C4018E4B22870702C44
:102F9000F4D370BD7024305D00F028F8305D2978DE
:102FA000641C4018E4B22870802CF4D370BD2878DB
:102FB00000F01CF8042000F037F800F049F870BD6C
:102FC000040100205907002010B5012002F0DAFEAC
:102FD000012002F0C7FEFFF705FF00F07DF800F0CA
:102FE0009BF800F083F800F05FF810BD70B505465F
:102FF0000024002002F0B6FE280601D5012000E0E2
:10300000002002F0BFFE00F099F8012002F0AAFEB5
:1030100000F094F86806641C050EE4B2082CE8D3AE
:10302000002002F09FFE70BD10B504465A20FFF745
:10303000DDFFFF20FFF7DAFF044804702046FFF7AA
:10304000D5FF5934E0B2FFF7D1FF10BD480700208B
:1030500010B5002002F086FE00F070F8012002F0AA
:1030600081FE00F06BF8002002F07CFE10BD000035
:1030700010B50C4C2078FFF7B9FF6078FFF7B6FF6A
:10308000A078FFF7B3FFE078FFF7B0FF2078617812
:10309000E2784018A17889184018C0B2FFF7A6FF5F
:1030A00010BD0000080100200948C17AC27B8901D7
:1030B00052018918027B12018918427BD2008918BB
:1030C000827B007C5200891808180249C87070473A
:1030D000480700200801002002480349807A087050
:1030E0007047000048070020080100200848417A86
:1030F0004279C901120189188279D2008918C279EE
:10310000007A9200891808180249887070470000F8
:103110004807002008010020064802798178D20182
:1031200089184278C07892004000101808180249A7
:10313000487070474807002008010020002000BFA9
:10314000401C80B23228FAD3704710B50022002804
:103150000FD000290DD000230B80EFF3108372B63F
:10316000847B002C02D0426840890880002B02D06A
:1031700002E0002010BD62B6104610BD002808D045
:10318000EFF3108172B6002282734281002900D1D0
:1031900062B6704770B500250B460446002818D06B
:1031A000002B16D0002A14D0EFF3108672B6A07B45
:1031B00000280BD06589954200D915462A46184645
:1031C0006168FFF7BEF80020A0736081002E02D076
:1031D00002E0002070BD62B6284670BD10B5002424
:1031E0000021204602F040FE641CE4B2092CF7D313
:1031F00010BD000010B548210148FFF755F910BD7A
:10320000A80A002070B505460B4800230B4C10E0BF
:10321000EA5C120250400022060402D540006040E1
:1032200000E04000521CD2B280B2082AF4D35B1CEA
:103230009BB28B42ECD370BDFFFF00002110000059
:1032400070B5174D174E284600F032F80446304648
:1032500000F02EF8002C0ED000280AD0B168A86823
:10326000081A002801DD344600E02C46002C05D168
:1032700070BD2C4602E00028FAD034460A49207B73
:10328000087021463C2210310848FEF765FF0748C8
:10329000A1682438C161AC4200D03546056270BDDA
:1032A00000F8000800FC0008200B0020A801002006
:1032B00010B5104A0168914219D18188012916D1AF
:1032C000C188502913D1014640310C46C9890A4AA8
:1032D00091420CD1017B012901D0002907D14C2159
:1032E000FFF790FFA189884201D1012010BD002085
:1032F00010BD00004854414D5AA50000F0B599B0EA
:1033000000246E46FF22502130461794FFF7A5F89F
:1033100029480090012769468F805020274DC8809A
:10332000E8693C22401C0290254800780873294631
:10333000243104A8FEF710FF4C216846FFF762FF16
:1033400010A988811F48C881286A1F4DA84200D152
:103350001E4D14A8B0C000F0E5FE002802D00020E9
:1033600019B0F0BD17A914A800F044FE002818D128
:10337000002460084000325A29190023012000F07F
:1033800093FE00280DD1A41CA4B24E2CF1D310A89A
:10339000C289294600234E31012000F085FE002815
:1033A00002D000F077FEDAE700F074FE03480299DD
:1033B0000562C1610120D3E74854414D84010020DA
:1033C000200B00205AA5000000F8000800FC0008AF
:1033D00070B50024094D0DE00B5D58400023C60771
:1033E00002D04008684000E040085B1CDBB2082BBC
:1033F000F5D3641C9442EFD370BD00002083B8ED78
:1034000010B5034800F038FD02490020087010BDD7
:10341000240200203001002010B5034800F02CFDEC
:10342000024800F029FD10BD78030020BC030020F5
:1034300010B5034800F020FD024800F01DFD10BD4E
:10344000440400200004002010B50446006805492B
:1034500040181421FFF72AF8800020640248E06336
:1034600010BD0000F8FFFDBF0000024030B5056C44
:103470000124AC40C56B6C60046863604368102B2A
:10348000036803D099600068C26030BD9A6000682C
:10349000C16030BDF8B53F488178002979D14078C6
:1034A00000286AD1FFF7DEFC3B480078052864D08D
:1034B000002862D003F0BEFC044603F0B5FC0546CC
:1034C00001280AD0022D0BD0032D0CD0204602F08B
:1034D00037FD002C0FDA00200EE00622762104E0F2
:1034E0003F22382101E040221146402002F0FEFC3C
:1034F000FFF774FE02E0A0B203F06AFE27488026C0
:103500000078274C0128A0780FD04006400EA0700C
:10351000E0783043E0702846FFF72AFB03F078FCA0
:103520000028207807D0304307E03043A070E078CF
:103530004006400EEEE74006400E20701948007825
:103540000028A07902D04021084301E0BF210840B3
:10355000154EA0710021012500208D400B01225C39
:103560002A4000D0D0221F18401CC0B2F2551028AB
:10357000F5D3491CC9B20829EDD3064C6078FFF792
:1035800097FC6078401CC0B26070092801D9002007
:103590006070F8BD2A01002092010020200B00205D
:1035A000DC07002031010020590700201FB5002250
:1035B000009201920391029000F0B4FD002802D025
:1035C000002004B010BD694601A800F013FD0028DA
:1035D00002D000F05FFDF3E700F05CFD0120F0E7B2
:1035E00003490248086372B6FEE70000EE0090A9A6
:1035F000C01F002006490020C86106480169042256
:1036000011430161016940221143016170470000CB
:10361000C806002000200240064A0021D161064968
:103620000A6902231A430A6148610869402210436B
:1036300008617047C80600200020024010B5054B05
:103640000022DA61044A13690124234313610180D3
:1036500010BD0000C80600200020024010B50B4A33
:103660000020D168CB060A4904D5C8690223184353
:10367000C8611020D3685B0705D5CB6901242343BB
:10368000CB6104210843D06010BD0000002002403F
:10369000C806002070B5044600F016FE0546104E20
:1036A0000AE0601C08D0002C04D000F00DFE401B86
:1036B000A04201D9032070BDF068C007F1D1F068C5
:1036C000800601D52020F060F068C00602D4F068C2
:1036D000400703D5FFF7C2FF012070BD002070BD79
:1036E0000020024070B51A4C1A4A2189002909D0DD
:1036F000002501290BD05054491C89B2218106298B
:103700000DD011E05A2805D11070012005E05A288B
:1037100001D0258170BD50700220208170BD90883D
:10372000EC280BD808306081608900280CD08142D9
:103730000AD1084801F00EFC002802D025816581DD
:1037400070BD02F039FA70BDF429F7D270BD0000E7
:10375000760100207409002008B50146042268465D
:10376000FEF7EFFD00984000000EFF2801D0012079
:1037700008BD002008BD0000F8B503F03DFF21485A
:1037800000F048F8204F214E214D002402221F490D
:103790001C4800F09FFA0120387038780028FCD1CE
:1037A000012000F015FC00200C23024641005A4382
:1037B000715AAB5A994200D90B46AB5252195388F1
:1037C000994200D20B4653809368401C591880B22E
:1037D00091600228E8D3641CA4B2042CD6D3002044
:1037E0000C2141430A464919AA5A8B68401C9A1A6F
:1037F0004B8880B2D21A8A60D203120C8A800228C7
:10380000EED3F8BDE401002030010020C00000200C
:103810005C090020F8B5054604462035287D0026C1
:10382000012808D001202875206881688907890F40
:10383000012908D101E00220F8BD0168C9073CD187
:10384000C168090439D4A16BFF22013291430222DD
:103850001143A163C1688907890F0091C168890874
:103860008900C1602068816892071143816000F07F
:103870002BFD074612E000F027FDC01B02280DD9E2
:1038800020688068002809DAA06B02218843102193
:103890000843A063002028750120F8BD20688068D7
:1038A0000028E8DB2068C168009A1143C160A06B62
:1038B00080088000401CA06304E0A06B2021084326
:1038C000A0630126002028753046F8BDF8B5002514
:1038D000044620340095227D012A39D00123237526
:1038E00002689668760767D4384F4E68BE424DD05E
:1038F000966A0F78BB401E4396620123C26A1B077B
:103900009A421FD0012A1DD0022A1BD0032A19D0A7
:10391000042A17D0052A15D0062A13D0072A11D059
:1039200002688B6856697607760FB3420AD05369EE
:10393000DB08DB005361006842690B7A5B075B0FB1
:103940001A4342610868102804D0112802D038E0D8
:103950000220F8BD1E4B9A68102807D00120800570
:1039600002439A600868102803D02AE00120C005AD
:10397000F6E7194817490068FEF798FD0A21484301
:1039800000E0401E00900028FBD11AE0906A0E78FB
:10399000B340984390620868102801D0112810D1D4
:1039A0000B498A68102804D00120800582438A6070
:1039B00007E00120C005F9E7816B202211438163F4
:1039C0000125002020752846F8BD000001100000E8
:1039D0000027014040420F00FC000020006803491E
:1039E000884202D10249002008707047002401403B
:1039F0003001002070477047F8B50446006805683C
:103A00004668690701D5710703D429072ED5310708
:103A10002CD5A16BC90604D4A16B0122520211431B
:103A2000A163C1680C270905890F002919D1A17E5E
:103A3000002916D1290714D58168012249070029D8
:103A400008DB4168B9434160A06B11028843104311
:103A5000A06306E0A06B20210843A063E06B104345
:103A6000E0632046FFF7BAFF2068076028060CD500
:103A700030060AD5A06B012109040843A063204643
:103A800000F0D8F8216880200860E80614D5F00618
:103A900012D5A06A1025012803D02068C068C0078D
:103AA00008D0E06B02210843E063206805602046EF
:103AB000FFF7A1FF20680560F8BD0000F8B50025FC
:103AC0000446002805D0A06B26462036002802D0E8
:103AD00007E00120F8BD0020E0633075204600F0CB
:103AE000ABF8A06B1022C006002870DB206881684C
:103AF00049076CD4A16B1301994302231943A163B5
:103B000081688907890F012905D10168C9070FD18B
:103B1000C16809040CD4C16818239943A3681943E8
:103B2000C1602068016963688900890819430161DF
:103B30002068C1683D4B1940C160207E8103607ED2
:103B4000C0030143A07E43031943A36A012B02D0A3
:103B500001231B0300E000231943E3681943236991
:103B6000022B09D0002319433379E67E5B00194309
:103B70000123012E02D00AE00423F4E7002827D015
:103B8000A06B20263043A063E06B1843E063E0693C
:103B90000646FF3EC23E02D0266A304301432068FB
:103BA000C6680E43C6600126E06A3607B04213D0ED
:103BB000012811D002280FD003280DD004280BD0E3
:103BC000052809D0062807D0072805D010E028E0EE
:103BD000012000040143DAE720684669F608F60090
:103BE000466120684669A78D7F077F0F3E43466187
:103BF0002068C0680E4E3040884207D10020E06344
:103C0000A06B80088000401CA06308E0A06B02212C
:103C100088431043A063E06B1843E0630125284606
:103C2000F8BDA06B1043A063F8E700001902FEFF87
:103C3000E7FF3F837047000070B586B0054614214A
:103C40006846FEF731FC1F492868884237D11E4973
:103C50008A69401502438A618A69024005924A696D
:103C6000000202434A614969002601400320009096
:103C700001900591092002966946C00600F066FA97
:103C80001248134C41C48020266060604000A06050
:103C90008000E0602020666120610D48083C00F053
:103CA00039F9002801D0FFF79BFC2C630022114654
:103CB0000C20656200F078FB0C2000F069FB06B078
:103CC00070BD0000002401400010024008000240C6
:103CD00024020020F7B504460068002580684007EC
:103CE0003DD426462036307D01280AD0012737757D
:103CF000607E012807D02046FEF774FE050002D042
:103D00002EE00220FEBDA06B16490840FF210131C4
:103D10000843A0630020E0633075216B124888627D
:103D2000216B1248C862216B1148086321681C206E
:103D30000860206841681022114341602068C16812
:103D40003943C1602168206B4031029B019A00F029
:103D500009F92068816804221143816000E002258E
:103D60002846FEBDFEF1FFFFE72800086D29000888
:103D700053290008F8B5064604462036307D012850
:103D800007D0012737752046FEF780FD050002D0D9
:103D900028E00220F8BD2068C16849084900C160D8
:103DA000206B2121095C022907D100F01FF80500D2
:103DB00003D0A06B40210843A06320684168102213
:103DC00091434160002D204602D0FEF7D4FD09E06A
:103DD000FEF7D1FD050005D1A06BFF21013188431D
:103DE0003843A063002030752846F8BD30B5014641
:103DF00020314A780023022A04D0042282630B7007
:103E0000012030BD026814680E25AC4314600268BE
:103E100014686408640014600125046C2A46C06BB1
:103E2000A24042604D700B70002030BD70B5002480
:103E3000014620314A78022A03D0042181630124FB
:103E400016E0026813680E25AB431360026813681E
:103E50005B085B0013600125036C2A469A40C36B24
:103E60005A604D7000220A70416B002900D08847CB
:103E7000204670BD806B7047F0B4C16B0C68016860
:103E80000B680422056C1646AE4026420DD05E0734
:103E90000BD50B689B0602D40B6893430B60016C37
:103EA0008A40C16B4A60C16A19E00227AF400246EE
:103EB000274001262032002F15D09F0713D50B680D
:103EC0009B0604D40B680A24A3430B605670036C52
:103ED00002219940C36B596000211170816A002949
:103EE00016D0F0BC08470827AF40274210D01B0768
:103EF0000ED50B680E24A3430B60036C314699402A
:103F0000C36B59608663567000211170016BE6E740
:103F1000F0BC704770B504001FD002202546203544
:103F20006870206802680E49A3680A4061682669C3
:103F30001943E3683343194363691943A369194378
:103F4000E3691943114301602046FFF77DFA002021
:103F5000A06301216970287070BD012070BD000050
:103F60000FC0FFFFF8B504468C46203001780025CD
:103F7000012909D00126067047780021012F05D0BC
:103F8000017002252846F8BD0220F8BD02274770BF
:103F9000A163206801684908490001606146204624
:103FA000FFF764FAE06A00282068016802D00E2258
:103FB000114306E00A2211430160206801680422CF
:103FC000914301602068016831430160DAE7000035
:103FD00070B5044600F078F90546601C02D004482C
:103FE0000078241800F070F9401BA042FAD370BD8D
:103FF000F0000020F8B5054623480F46017E012653
:1040000001290BD0012101762868204C012807D016
:104010002046FFF73FFB002813D030E00220F8BD18
:104020002046FFF737FB002829D1FFF7E3FA2046A7
:10403000FFF730FB064616480169042291430161EF
:104040001DE00020C04338606C6812E02046FFF796
:10405000E3FA0E48FFF71EFB06460D4801690222EF
:1040600091430161002E01D03C6008E001208002F4
:104070002418A868696880024018A042E6D802485F
:10408000002101763046F8BDC806002050C300006C
:104090000020024003480169802211430161002091
:1040A0007047000000200240F0B51FB405461A48D2
:1040B0000024017E16461F46012907D00121017602
:1040C0001648FFF7E7FA002803D021E0022005B0E8
:1040D000F0BD012D1AD0022D18D0042516E02201C2
:1040E00030463946FEF76EF881B20198620010182A
:1040F000FFF7A4FA0948FFF7CDFA09490A695208FF
:1041000052000A61002803D1641CE4B2AC42E6D339
:10411000014900220A76DAE7C806002050C30000F1
:1041200000200240064900200A69120607D5054A08
:104130004A60054A4A600969090600D501207047AE
:104140000020024023016745AB89EFCDF8B500227E
:1041500094E0012797403B407ED00C79A407A40F40
:10416000012C01D0022C10D1856854000326A640F2
:10417000B543CE68A6402E43866044680D79BC43A3
:10418000ED06ED0F9540254345600C79E443A40707
:1041900008D0C56854000326A640B5438E68A640E3
:1041A0002E43C6600C79A407A40F022C0CD1D408AE
:1041B000A40027183D6A5407E40E0F26A640B54315
:1041C0000E69A6402E433E62056854000326A640B1
:1041D000B5430E79B607B60FA6402E4306604C686D
:1041E000A403A40F49D0284CA56901263543A56135
:1041F000A469950834400094244CAD002F19BD6883
:104200009407240F0F26A640B5430926F606B042B0
:1042100001D100260FE01E4EB04201D101260AE076
:104220001C4EB04201D1022605E01B4EB04201D126
:10423000032600E00526A6402E43BE60174DAC685D
:104240004E689C43F60200D51C43AC60EC684E6897
:104250009C43B60202D500E00FE01C43EC606C68A2
:104260004E689C43B60300D51C436C602C684E68B6
:104270009C43F60300D51C432C60521C0B681C4663
:10428000D44000D065E7F8BD0010024000000140B6
:104290000004004800080048000C004800040140E9
:1042A0000069084000D001207047426913460B4066
:1042B0001B0491430B4383617047002A01D0816145
:1042C00070478162704700000148806870470000B5
:1042D000F0000020024881680278891881607047E8
:1042E000F000002010B5064801681022114301605B
:1042F000032000F007F800F027F8002010BD0000B0
:104300000020024070B504460D4D7D202978C00084
:10431000FEF7CCF801460B480068FEF7C7F800F03E
:1043200081F8002809D1042C07D200222146401E22
:1043300000F03AF800206C6070BD012070BD0000F4
:10434000F0000020FC00002008B508488169012227
:1043500011438161816911400091C26901040A43DE
:10436000C261C0690840009008BD00000010024012
:10437000002809DBC106C90E0120884003490860F6
:10438000BFF34F8FBFF36F8F7047000080E100E0F5
:10439000002805DBC106C90E0120884001490860DC
:1043A0007047000000E100E010B503F0D5F810BD43
:1043B0000448054900684968044A4905490F515CA9
:1043C000C8407047FC00002000100240DC7C000860
:1043D00010B5104A53680C20194601400E480429B4
:1043E00017D0082915D199020C4C090F645CD16AC9
:1043F0000A4A0907090F1032525CD90305D5002378
:104400001946FDF7F0FE214601E02046044903F07D
:104410007DF810BD0010024000127A00BC7C00083C
:1044200000093D00094910B5401E884201D901200C
:1044300010BD074C60610321081F03F08DF80020B8
:10444000A06107202061002010BD0000FFFFFF00D9
:1044500000E000E07047F8B5C16F044605468035BE
:104460002E680068826810271206002A1BDA2129AC
:1044700019D1EFF31081012282F310888268802322
:104480009A43826081F31088206F002808D0FFF7DC
:10449000ADFC002804D0206FFFF7ECFC202824D0CE
:1044A000204602F03FFB2068816849061BD5222E7A
:1044B00019D1EFF31081012282F310888268402322
:1044C0009A43826081F31088606F002808D0FFF75C
:1044D0008DFC002804D0606FFFF7CCFC202804D0AE
:1044E000204602F0F0FA0020F8BD6F600320F8BD0E
:1044F00070470000F8B502680446D06911689368F7
:104500009E4D06462E4025468035002E71D09C4F8C
:10451000DE07F60F0F4037437ED0C70706D0CF0522
:1045200004D5012717626A683A436A60820708D592
:10453000DA0706D0276802223A626A6804273A43FB
:104540006A60420708D5DA0706D0236804221A6297
:104550006A6802231A436A60020709D520220A40CA
:10456000324305D0236808221A626B6813436B60DC
:10457000020509D54A0107D501222368D2021A6231
:104580006A6820231A436A606A68002A39D0800664
:1045900006D5880604D5A16E002901D0204688479B
:1045A000686821688968490602D4282108422DD00C
:1045B000204602F088FA20688168490622D5EFF388
:1045C0001081012282F31088826840239A4382601E
:1045D00081F31088606F002814D06A494163606FCE
:1045E000FFF724FC00280CD0606F416B08E000E06E
:1045F00012E0830610D58B060ED5A16EA3E02046EF
:104600008847F8BD2046FFF773FFF8BD2046FFF747
:104610006FFF00206860F8BD236E012B7ED1C306BA
:104620007CD5CB067AD51023136220688168264694
:1046300049064036002948DA626F11684968090462
:10464000090CE8D0378B8F42E5D971839169202915
:1046500034D0EFF31081012282F3108802681F0129
:10466000BA43026081F31088EFF31081012080F3D8
:1046700010882068826852085200826081F3108896
:10468000EFF31081012080F31088206882684027B2
:10469000BA43826081F310882020286000202066C1
:1046A000EFF31081012080F31088206802689A439C
:1046B000026081F31088606FFFF798FB022060664C
:1046C000308B718B401A81B234E0318B728B891A36
:1046D000728B89B2002A9ED000299CD0EFF3108201
:1046E000012686F310880668FF272137BE4306603F
:1046F00082F31088EFF31082012080F31088206885
:10470000866876087600866082F31088202028600C
:1047100000202066EFF31082A06600E00EE001208A
:1047200080F31088206805689D43056082F3108837
:10473000022060662046FFF78DFEF8BD030606D511
:104740000B0604D5E16E002900D058E7F8BD4006FD
:10475000FCD54806FAD52046EFF31081012383F3F8
:104760001088146840239C43146081F31088202132
:10477000C1670021C16600F0D7F9F8BD0F0800003D
:10478000200100045D69000810B5040003D0E06F4B
:10479000002802D007E0012010BD0021782001553B
:1047A000204600F027F82420E067206801684908C7
:1047B00049000160606A002802D0204602F006F835
:1047C000204602F0BFF90128E6D0206841680122A6
:1047D000D202914341602068816808229143816040
:1047E00020680168012211430160204602F054F85C
:1047F00010BD0000F0B587B0044614216846FDF7EF
:1048000053FE524B012621685148760402270322A9
:104810000025994249D18169F31019438161816969
:104820001940059141693143416140690197304028
:1048300005905002009001200490092002950392F7
:104840006946C006FFF782FC434E424830601020A4
:104850008027311DA1C135617561B5613046F561B3
:10486000FFF758FB002801D0FEF7BAFE26677462F6
:104870003848394E1430443621C63560B560F5608D
:1048800035613046776075610838083EFFF742FBB6
:10489000002801D0FEF7A4FE6667002211461B2007
:1048A0007462FFF781FD1B204CE02C4B99424BD1E9
:1048B000C1693143C161C1693140059141693143E9
:1048C000416140690197304005900C200090012023
:1048D00004900920029503926946C006FFF736FC52
:1048E0001C481D4E3C30883621C63560B560F560E9
:1048F000802735613046776075610838083EFFF7DC
:1049000009FB002801D0FEF76BFE66677462124E49
:104910001048CC36283030601020311DA1C13561DF
:104920007561B5613046F561FFF7F4FA002801D0F2
:10493000FEF756FE2667002211461C207462FFF720
:1049400033FD1C20FFF724FD07B0F0BD0038014007
:10495000001002401C000240780300200044004088
:1049600070B580231B58202B01D0022070BD002978
:104970000BD0002A09D0012483682403A34206D166
:104980000369002B03D1CB0701D0012070BD0023A8
:10499000036603685C6824020BD5EFF310840125DD
:1049A00085F310881D680126B60635431D6084F323
:1049B000108802F061F970BD70477047FFB504467A
:1049C000C06F83B015460E46202802D0022007B0E3
:1049D000F0BD002E0BD0002D09D00120A1680003EE
:1049E000814206D12069002803D1F00701D00120BF
:1049F000EDE70021842001512120E067FFF764FCEE
:104A00002746403701903D827D820120A168000346
:104A1000814202D12069002802D03546002611E0EB
:104A200000250FE000228021204602F07DF90028B9
:104A300015D1002D17D02168287808856D1C788A3B
:104A4000401E7882788A019B002806980090E9D160
:104A500000224021204602F067F900280AD02020D9
:104A6000E0670320B3E730882168C005C00D0885E2
:104A7000B61CE4E72020E0670020A8E770B50446F4
:104A8000C06F202801D0022070BD00290BD0002A61
:104A900009D00123A0681B03984206D12069002891
:104AA00003D1C80701D0012070BD20464030E16429
:104AB0000282428200214030054641602120E067A9
:104AC000206F002819D0154B8362236F1448D862D9
:104AD000236F14481863206F134641632068266FC4
:104AE000024628323046E16CFFF73CFA002804D039
:104AF000102068602020E067D5E721684020086228
:104B0000EFF31081012080F31088206882688023F1
:104B10001A43826081F31088002070BD736A000818
:104B2000BD6A00087169000800680349884202D123
:104B3000024900200870704700440040C400002073
:104B400070470000F0B5344F0646387E85B0002827
:104B500003D0002211460A2056E0092901D0032182
:104B600019E0304601F01CF8FF21813104468842EB
:104B7000F5D9192080028442F1D800F027FD050004
:104B80000ED068698047401C04D068698047317A3C
:104B9000884207D90521052000F07EFF05B0F0BD51
:104BA0000221F8E700F058FD0028D2D0684602F054
:104BB00047F96846007B1E2803D2002211460820D0
:104BC00022E019211548FEF7F1FC00281FD0012131
:104BD0001348FEF7EBFC002819D002F0A3FB1C21C0
:104BE0000D48FDF761FC301D3C6000F0D9FF786096
:104BF000307AB87501203876E820694608740020BC
:104C00004874022204A9012000F04CFFC6E70022EC
:104C100011460920F8E70000400B0020008400083E
:104C200000F40008F8B52C4E0746307E0D460128EA
:104C300005D0022803D0002211460A203FE0042DAF
:104C40000DD9384600F0ACFF2D1FADB20446E82D5B
:104C500005D83068A04202D3001BA84203D200222C
:104C600011460B202BE0F068A0420DD1308AA842FB
:104C70000AD1B068002807D018482A46391D2018E4
:104C8000FDF732FB00281DD0B068A042E7D1E00755
:104C9000E5D112482A46391D201800F09FFE002851
:104CA00012D0F460358261190020B1607082022058
:104CB0003076684602F022FC04226946032000F0A8
:104CC000F1FEF8BDB168F4E700221146092000F0BA
:104CD000E9FE00F0A9FFF8BD400B002000840008A9
:104CE000F8B50D460646062802D00B2A30D101E061
:104CF000072A2DD1687804282AD1A878032802D25F
:104D000024490F5C00E0FF27FF2F21D0E81CFEF7AD
:104D100023FD00281CD0062E04D0E81DFEF71CFD44
:104D2000002815D018201C49784344180020E08240
:104D3000032E0FD0052E18D0E81C00F029FF2061AB
:104D4000207D042108432075C0B2072818D01FE039
:104D50000020F8BDE81C00F01BFF2060E81D00F0FB
:104D600017FF6060207D0121ECE7E81C00F010FFD8
:104D7000A060E81D00F00CFFE060207D0221E1E76B
:104D80002146384602F020F918212046FDF78CFB19
:104D90000120F8BD107E0008A80A002010B50346C7
:104DA000002924D0294A18785469641C5461144697
:104DB0002034A07304282ED006DC012818D0022845
:104DC00021D0032813D132E0052830D006282ED078
:104DD000FF280CD102290AD15878012830D00028A8
:104DE00005D1508B401C5083002001F01BF810BDF2
:104DF0000229FCD15878012801D00028F7D10121DF
:104E000002F00AF919E00129F1D102F0A3F81049E2
:104E10000520087010BD0129FCD101F0EBFFFEF761
:104E2000E9F9002000F0FEFF02F0A4F810BD0A46E8
:104E30001946FFF755FF0028F8D002F08BF810BD97
:104E4000108B401C10830120CFE70000F00A0020E7
:104E500092010020F8B5384C227E022A01D10429A3
:104E600005D0002211460A2000F01CFEF8BD00F01B
:104E700097FE2268A16891420CD16168814209D1F4
:104E80002E4D00202946C043FEF7A2FA6168C043B8
:104E9000884201D0012141E02068294A014680185A
:104EA000FF39284A81390026904236D205CD264B5B
:104EB000264FC318083DBB422FD280072DD1500882
:104EC000234A4000904204D38918884201D201202D
:104ED00000E00020002820D000F078FB002821D03E
:104EE000226803691146FF39813928469847000630
:104EF000000EE07516D002F09FFA002814D00022B0
:104F00001146042000F0CEFD00221146062000F0DC
:104F1000C9FD03202076A682F8BDFF21052000F000
:104F2000BBFD06E00221F9E700221146092000F04E
:104F3000B9FD00F079FEF8BD400B002000840008A8
:104F4000C0FDFFFFC161000040FFFFDF211F000027
:104F500000200008F8B5044640792279050215437F
:104F60006019C2798079160206431748A278027345
:104F7000E27842730746203F7D852846083080B29C
:104F8000884203D03869401C386109E0281D81B28D
:104F9000A01C00F041FB864204D0F868401CF86079
:104FA0000020F8BDB868401CB860A078012805D082
:104FB0002A46A11D00F0E8FB0120F8BD2946A01DEE
:104FC000FFF7ECFEF8E70000100B0020FEE7000002
:104FD00009480A4A016891420BD18188012908D108
:104FE000C188202905D1808B0549884201D1012043
:104FF000704700207047000000F400083141544F12
:105000005AA5000010B5134B0A20185E124CA0429E
:1050100018D01E3016D000210C20185EA04213D0EC
:105020001E3011D000220E20185EA0420ED01E307D
:105030000CD0002000290BD0002A09D0002807D06E
:10504000012010BD0121E7E70122ECE70120F1E793
:10505000002010BD200B0020E70300000449884217
:1050600003D01E3001D0002070470120704700009F
:10507000E703000010B503490520087001F06AFF3E
:1050800010BD00009201002010B50B4908780028DF
:105090000ED005280BD0FFF7B5FF002803D001F094
:1050A00053FF002801D001F08BFE01F053FF10BD2B
:1050B00002200870F9E700009201002010B5FFF708
:1050C000D9FF10BD10B505480078002805D0052887
:1050D00003D001F059FF01F03DFF10BD9201002007
:1050E00010B510480078002815D0052813D0FFF718
:1050F00089FF002803D101F097FE032803D101F0B6
:1051000023FF002805D008480078012804D001209A
:1051100003E001F01FFF10BD0020012101F07CFF22
:10512000F7E7000092010020200B002010B507488F
:105130000078002809D0052807D001F06FFE02286A
:1051400003D101F017FF01F005FF10BD920100200F
:10515000FFB50024124D81B01F462646285D012868
:1051600004D002280FD0032807D112E0002C01D070
:10517000029811E001980FE02E55641CE4B2022C55
:10518000ECD305B0F0BD002C01D0B847F4E703988C
:1051900002E0002C02D00B988047EDE70A98FBE76D
:1051A00024010020F8B53D4C20212046FFF778F877
:1051B0006946087010212046FFF772F8384F69469B
:1051C000002448703E1F6846005D00280BD0344A1A
:1051D0006000921C115A891E622951D2111F095D6B
:1051E00000294BD04CE02E496500891C485B401CCF
:1051F00080B24853002C08D10A88012A05D1294AD7
:105200001278002A06D000227270264A13782343AF
:1052100002D003E00122F7E7022808D064280FD06B
:105220007D21C900884220D1012C1CD01DE01C49E1
:10523000891E085D00282CD101203855085528E02A
:10524000002C02D17078002801D102203855307826
:105250007178204308431CD10520107001F07AFEBC
:105260000120307001E0032078700D497D20891CF9
:105270004A5BC00082420CD948530AE001213955EB
:10528000002111520648801E0155002C01D13170B9
:105290007170641CE4B2022C95D3F8BD0004004880
:1052A00024010020920100203EB500241B491C4827
:1052B00000940194029412C00460012585600821C5
:1052C0004460C160047444748574C474FF21C231A5
:1052D00084614161014618310D7105620838FEF79D
:1052E000EDFB002801D0FEF77BF9012000030190BF
:1052F00007200290009469460948FEF7E7FA002863
:1053000001D0FEF76DF9694605480095FEF7DEFA13
:10531000002801D0FEF764F93EBD000000240140E2
:10532000E401002008B510484169012211434161A0
:10533000406910400022009011460920FFF734F820
:105340000920FFF725F8002211460A20FFF72CF864
:105350000A20FFF71DF8002211460B20FFF724F862
:105360000B20FFF715F808BD00100240F0B587B01C
:1053700014216846FDF798F82E4842690121C904B6
:105380000A43426142690A4005924269C9000A43E0
:10539000426142690A400592426949110A434261E9
:1053A00042690A400592426949000A4342614069E4
:1053B000214F08404C110590002221463846FEF747
:1053C0007CFF6121002209021C48FEF776FF0122C2
:1053D00008211A48FEF771FF0326F6020920002271
:1053E0003146C006FEF769FF0094002401250195AF
:1053F0000294694638460394FEF7A8FE10480090D0
:1054000002946946019503940C48FEF79FFE09201B
:1054100002946946C006009601950394FEF796FE35
:1054200030206A4631C269460448FEF78FFE07B055
:10543000F0BD0000001002400008004800040048D1
:105440000861000010B50C480A490160E1214902D9
:10545000416000218160C16001618161C1610C22F4
:10546000016242614162FFF78FF9002801D0FEF727
:10547000B7F810BD003801406802002010B50C4894
:105480000A4901604B21C901416000218160C1606E
:1054900001618161C1610C22016242614162FFF7D9
:1054A00073F9002801D0FEF79BF810BD00440040BE
:1054B000F0020020FEB5012149033448FEF7F5FE55
:1054C000334D2C783349344801910090334B344AA2
:1054D00034493548FFF73CFEA87B052804D0297BDA
:1054E00005290BD301220AE000F0E4FD20212F481A
:1054F000FEF7D6FE002845D000F090FD00222C4F8C
:105500000026002813D0002C08D0E97A002910D1F9
:10551000002A0ED002213970AE610AE0EA7A002A30
:105520000FD03A78022A0CD13E70AE6109E0002C0F
:1055300007D02E73EC72A97A884210D0022805D0C9
:105540000BE0FF29F6D2491C2973F3E70122082159
:105550001648FEF7B2FE3E70AE61A87BA872FDF75A
:10556000E5FB01F0B7FDA87B00280CD005280AD088
:105570001049A869884201D2401CA861884201D321
:105580000520A873FEBDAE61FEBD00000008004806
:10559000840100202D510008BD500008C5500008AE
:1055A00075500008E15000088950000800040048C8
:1055B0002A010020A08C000003888B4204D140887F
:1055C000904201D1012070470020704710B50F486C
:1055D0000F4C036802694169A34215D18388012BEE
:1055E00012D1C3883C2B0FD1037A9B070CD0D30771
:1055F0000AD0084CA24207D3824205D2CA0703D080
:10560000A14201D3814200D3002010BDC01F000879
:105610004D4150490100000870B505460B48002374
:105620000B4C10E0EA5C120250400022060402D546
:105630004000604000E04000521CD2B280B2082A14
:10564000F4D35B1C9BB28B42ECD370BDFFFF000018
:1056500021100000FEE7000010B5FFF7B9FC00289C
:1056600005D0044A04490548FFF7A6FF10BD0120F4
:1056700010BD0000B03F00004FC0000024F400083F
:1056800070B500F055F800283ED0204CFEF74AFDDA
:10569000002839D120881E4D1E4EA84207D02A4628
:1056A000002321460120FEF7FFFC002809D1608875
:1056B0003246904205D015490023891C0120FEF78F
:1056C000F3FCFEF7E7FC324629462046FFF774FF5D
:1056D000002819D011481049002202604160C943D6
:1056E00081600F49C160BFF35F8F0E490160BFF356
:1056F0004F8FBFF34F8FBFF34F8F0C490A48C860DD
:10570000BFF34F8F00BFFDE770BD000024F4000819
:105710004FC00000B03F000031545352E01F002042
:1057200025612D9B505752310400FA0500ED00E031
:1057300010B5FFF74DFC00280FD0094A09490A4867
:10574000FFF73AFF002808D00748084A0849001D1B
:10575000FFF732FF002801D0002010BD012010BD4E
:105760005E8E0000A171000020F40008B03F000030
:105770004FC0000010B50348007E032801D000F0A0
:1057800053FA10BD400B002010B50B46102807D06F
:1057900011280AD012280DD0132810D0002010BDD7
:1057A00011461846FFF7CEF911E011461846FFF7EB
:1057B00039FA0CE011461846FFF74CFB07E0002AC7
:1057C00007D0FF21072000F067F900F02DFA012033
:1057D00010BD0020FDF74EF9F9E7000010B51C21BF
:1057E0000148FCF761FE10BD400B00200248007E1E
:1057F000002800D001207047400B002010B51C4944
:10580000087E012829D0022827D003282FD1888A92
:10581000192804D2401C80B28882192827D301F0AD
:10582000A7FD002823D014481249002202604160DD
:10583000C94381601149C160BFF35F8F10490160A6
:10584000BFF34F8FBFF34F8FBFF34F8F0E490D48FC
:10585000C860BFF34F8F00BFFDE7488A401C80B28D
:1058600048820A49884202D30420FDF703F910BD9B
:10587000400B002031545352E01F002025612D9B26
:10588000505752310400FA0500ED00E0B80B00005B
:10589000F8B506462448864201D22448F8BD24487B
:1058A000864201D92348F8BD002069253424224FBF
:1058B0000AE06100795AB14201D9254602E0B142BD
:1058C0002BD2204629184C08291A0129F1D1810030
:1058D00044184000385A193CFCF79AFF00906800C1
:1058E000385AFCF795FF05462046FCF789FF044629
:1058F0002846009902F07AF905463046FCF788FF01
:10590000009902F073F90D4902F018F92946FCF7E5
:105910007DFE214602F0CCF8F8BDA0002018193811
:10592000FCF76EFFF8BD00003C2300000000C8C17A
:10593000C26D00000000FA433C7D00080000A0405A
:105940007047000003494143C0434140024848407A
:1059500070470000B179379E0A946E9410B500F03C
:105960000FF80648082181610268C0239A4340323B
:10597000026042688A43426010BD00000004004893
:105980000948416901229204114341614069074875
:105990000268032189028A430260C2688A430121A6
:1059A00089025118C160704700100240000400488D
:1059B00010B5084C002121606060C143A160FFF771
:1059C000C1FFE060BFF35F8F03482060BFF34F8FDC
:1059D00010BD0000E01F002050575231F8B50746B7
:1059E00015460E46C00729D1FEF79CFB002825D19D
:1059F000002418E0601C325D80B2A84204D2301945
:105A000040780002024302E0FF20000202433919FD
:105A100000230120FEF748FB002802D0FEF73AFBE6
:105A20000CE0A41CA4B2AC42E4D3FEF733FB2A463C
:105A300031463846FCF758FC002801D00020F8BD5C
:105A40000120F8BD70B50D46114C0146A079002823
:105A500004D1142D02D86079032801D3002070BD31
:105A60002079152250430B4E2A468019FCF769FC19
:105A700020791521414389190D750321401CFCF73C
:105A800015FD21716079401C6071012070BD00001E
:105A900076010020680A002013B5012201A900F058
:105AA00001F81CBD1CB514006A46107006D0002910
:105AB00004D000A822460130FCF743FC641CE2B28B
:105AC0006946902001F064FC1CBD0000F0B589B06F
:105AD00005A801F0B5F95A20694608704870812080
:105AE000284F88707878C8700C20087100204871A1
:105AF0000D7FC97F2807000F012901D1102108431C
:105B00006A469071547F0021684601228A40D2B2D1
:105B100005AB144202D07D2212010BE0867F1642B3
:105B200001D0194A06E0154202D17D22520101E05E
:105B30004A009A5E4B001B18DA71120A491CC9B25E
:105B40001A720429E1D308AA1178C173682101747B
:105B5000517841741021801CFFF75EFD6A469074F5
:105B6000000AD07414216846FFF76CFF002806D0A5
:105B700078780649401C7870086A401C086209B0B1
:105B8000F0BD000076010020B80B0000F00A0020F4
:105B900008B5014604226846FCF7D3FB009808BD0F
:105BA0008178C27809041206114342780378100202
:105BB000184308437047000070B51A4D01200026B5
:105BC000174C2A8907E0235C5A2B03D123185B78F2
:105BD0005A2B05D088B2411C8BB29342F3D319E003
:105BE000111A8AB221182A810D48FCF70EFC6E8129
:105BF0002989062910D3A088EC280ED80830000483
:105C0000000C688108D0814206D10548FFF7A2F94F
:105C1000002801D02E816E8170BD2E8170BD0000E4
:105C2000740900207601002010B51C210148FCF702
:105C30003BFC10BD400B002030B5054600200D4B4D
:105C400003E0401C80B2082804D20C2444431C59B1
:105C5000002CF6D1082808D00C2444431D51E31829
:105C60009980DA800021197230BD03490120087043
:105C7000082030BDE80600200001002010B50222F7
:105C80000B4C082802D32270012010BD0C21094BB7
:105C900041435858002807D0002000225A50C91804
:105CA0008A80CA800A7210BD22700120F5E70000C8
:105CB00000010020E806002070B50D4E00242046AB
:105CC0000C2148438519297A00290AD03058804789
:105CD000287A401E2872E888002802D12046FFF763
:105CE000CDFF641CA4B2082CE9D300F003F870BD0A
:105CF000E80600200B49002208784B78984207D02C
:105D00004870002802D00848488070474A80704791
:105D100048880028FBD0401E0004000C4880F6D1C3
:105D20000A7070470001002060EA00000C4B00215F
:105D300008460C2250431A58002A0CD0C0188288FA
:105D4000002A01D0521E05E0027A521C0272C2885B
:105D5000002A00D08280491C89B20829E8D3704704
:105D6000E8060020012110B54903054B002801D0A9
:105D7000012200E000221846FEF79FFA10BD000045
:105D800000040048012110B58903054B002801D00B
:105D9000012200E000221846FEF78FFA10BD000035
:105DA00000040048704710B5FDF70EF9FDF75AF8EA
:105DB000FDF730F810BD000010B5044CA0780028A5
:105DC00003D1FDF761F80120A07010BD2A01002069
:105DD00010B5114C607900281CD01048C06F2028E5
:105DE00018D1E078152148430D4941180A7D0B4828
:105DF000FEF744FE00280DD1E0780321401CFCF79B
:105E000055FBE1706079401E607105488830416A39
:105E1000491C416210BD000076010020680200208C
:105E2000680A002070B5002801D0012400E0002499
:105E30000B4D2878A04212D02C70204601F0B4F807
:105E40000848C4730026AE70002C08D1FDF7D2F9C3
:105E5000EE702E716E712E816E81FFF78BFC70BD1E
:105E600076010020100B0020F8B58907890F8B0000
:105E70001D4A00930F019679D579147A030001F039
:105E80005DFB09060B10151A1F24292E0A00B00805
:105E9000800008439071F8BDF32006400098064347
:105EA00002E0CF2006403E439671F8BDA80880006E
:105EB0000843D071F8BDF32005400098054302E087
:105EC000CF2005403D43D571F8BDA00880000843B0
:105ED0001072F8BDF32004400098044302E0CF2084
:105EE00004403C431472F8BDDC07002010B5134B8E
:105EF00040061C78400EE409E40104431C705C7801
:105F0000E409E40104435C709878C4094806E4019C
:105F1000400E04439C70D978C909C9010143D97066
:105F20001879C1095006C901400E01431971597908
:105F3000C909C9010143597110BD0000DC070020E7
:105F4000F0B5334D0446287887B0C009C0010490ED
:105F50006878C009C0010390A878C009C00100900A
:105F6000E878C009C00102902879C7096879FF0163
:105F7000C609F601002C1ADA604284B2632C00D9FB
:105F8000632464212046FCF791FA08460A21FCF7B5
:105F90008DFA01900A212046FCF788FA04981D4AE0
:105FA00040302870039840306870009B1EE01A480B
:105FB000844200DD0446A0B26421FCF777FAC0B247
:105FC000059008460A21FCF771FA0190A0B20A2157
:105FD000FCF76CFA0F4A0598049B105C4006400ED3
:105FE00003432B70039B03436B70009B0198105C71
:105FF0004006400E0343AB70029B0343EB70505CC2
:106000004006400E07432F7106436E7107B0F0BD86
:10601000DC070020E47C0008E703000072B60021E2
:106020001B480161416181611A4A401710601A4A98
:1060300010601B48194A01604260D14381601949D0
:10604000C160BFF35F8F18490160BFF34F8F1748DE
:106050004169012292041143416140691448026878
:10606000032189028A430260C2688A4301218902AE
:106070005118C160410281610168C02291434031E1
:106080000160416808229143416030BFFDE7000094
:1060900000E000E080E100E080E200E0314E4453A7
:1060A000E01F0020251D63DD5057523100100240D3
:1060B0000004004870B51A4D687B00282FD10120DC
:1060C0006873FFF779FE01F095F90024EC702C71EC
:1060D0006C71AC71EC71FCF7F5FD12480068016859
:1060E0001022914301600F48FEF7B5F90E48847302
:1060F000448184810D48FDF73DFE1B20FEF738F9F1
:106100001C20FEF735F90920FEF732F90A20FEF7C8
:106110002FF90B20FEF72CF90C20FEF729F970BDA2
:1061200084010020F0020020DC000020E4010020B7
:1061300070B5012208211648FEF7BFF80121092099
:106140000022C902C006FEF7B8F8124C00252572DD
:10615000E57025716571A571E5710220A0730E4E81
:1061600001203070FDF76CF8A582032060720B49A6
:10617000002042009219401CC0B251810928F8D376
:1061800007480570FF20F530FDF722FF70BD0000C5
:106190000004004884010020200B0020E7030000D9
:1061A0002A01002010B5FEF795F8FFF7BFFD10BDDE
:1061B00070B53A4B1868012420431860250428461E
:1061C0001968890702D4401EFAD164E0002862D021
:1061D00058688008800058602A4658680007800F79
:1061E00002D0521EF9D156E0002A54D0586BF82143
:1061F00088438121084358632A462946586B800703
:1062000002D4491EFAD146E0002944D01868012181
:1062100009068843186010461D68AD0102D5401E6E
:10622000FAD138E0002836D058681D4D28400525A1
:10623000ED0440195860D86A00090001D862194875
:1062400005682543056018680843186011461868FA
:10625000800102D4491EFAD11DE000291BD05868E4
:1062600080088000801C5860104659680907890F13
:10627000022902D0401EF8D10DE000280BD0186B87
:106280008008800018630949074808600320FEF76A
:1062900039F8002801D0FDF7A3F970BD00100240C5
:1062A0000CF8C2FF00200240006CDC02FC00002061
:1062B000F8B500200090FFF763FB334E756A334F4B
:1062C0007C6838683249884212D13248844205D00D
:1062D0003148844202D031498C4209D1B868E14347
:1062E000884205D12046FFF72DFBF968884201D08E
:1062F000002001E001200094294C2168A703090631
:10630000890F012906D16169090703D52148FFF7E3
:106310004FFB21E021698906C917491C06D01B499A
:10632000002020390862BFF34F8F07E0002817D004
:1063300019490098884205D1E90003D51548FFF7AF
:1063400037FB07E0134988420AD1680108D5154890
:10635000054205D1FFF702FB706A38437062F8BD51
:10636000FFF70EFB0120C004A0612068C021884314
:10637000403020606068082188436060706A38435C
:10638000706272B630BFFDE700100240E01F0020CF
:1063900050575231314E555231545352314E44536D
:1063A000000400480000808810B5084909780129D8
:1063B0000BD0C100401802D40521801C01E005214A
:1063C000801EFCF77DF8203000B210BD200B0020AD
:1063D000F8B5C8480078052870D001F01BFBC64806
:1063E000C64E8078002827D0C34F00244037650070
:1063F000795F204601F03CF90146204601F064FA3D
:10640000B04212D001461E310FD0BC49491E88420D
:106410000BD0491E884208D0002801DA002004E091
:10642000FF21F531884200DD0846B549641C691832
:10643000E4B24881032CDAD3FDF79EF9002000F086
:106440006BF9B0420FD0AD49491E88420BD0491EAE
:10645000884208D0002806DB82B20A21A94800F051
:1064600097F907B200E0074601250024B7422CD077
:10647000A248401E874228D0401E874225D0002FC8
:1064800023DBE920800087421FDA9B4A907A0028AC
:1064900018D0108B9C49884214D3394678318142F8
:1064A00002DB303981420DDAD17AFF2901D2491C51
:1064B000D172C9B2032902D207B206E029E0D47230
:1064C000178302E0D472178395720120FCF7C4FB96
:1064D00000F0DAFD8D48B7421CD187494C730A7B26
:1064E000FF2A01D2521C0A730278002A02D00A7BCA
:1064F000032A0ED304708648047086480470CC705A
:106500000C714C718C71CC710C724C728C72CC729F
:106510000C73F8BD784E34730178002907D1717B74
:10652000FF2901D2491C7173C9B20229F1D3734901
:106530007473491E8F4203D0E92189008F4215DD13
:106540007179FF2901D2491C7171C9B203290ED397
:10655000357105706E4805706E480470F470B47142
:10656000F4713472FF207472F530C0E074710570FC
:106570006248801E874211D1307AFF2801D2401C28
:106580003072C0B20328C4D36148F5710470614809
:106590000570F47034717471B47131E0203FB8004B
:1065A000347238180921FBF78BFF317900B20029CA
:1065B0001DD0FF22F532904205DD55480570554843
:1065C0000470B4710BE0B179FF2901D2491CB1719B
:1065D000C9B2022906D24E4805704E480470484898
:1065E0000282F8BD34717471B471B472F472F179CD
:1065F00000291BD0002805DA45480470454805707D
:1066000074720BE0717AFF2901D2491C7172C9B210
:10661000022906D23E4804703E480570384804827C
:10662000F8BDF47134727472B472F4723249C9787C
:10663000002909D0304A1621515E8C46411A0AB20F
:10664000002A05DB114605E02B49C882CD702AE0FF
:10665000514209B2022903DC0121072608230EE07A
:10666000082903DC03210E46042308E0142903DC77
:1066700008210126022302E01421002601238A4278
:1066800002DD6046401804E04F42BA4202DA60463A
:10669000401A00B2614671430818174F1946FBF7BC
:1066A0000FFF00B2F882FF23F5331349984213DD40
:1066B0004A79FF2A04D2521CD2B24A71032A0ED35D
:1066C0000D7113488C71057012480470CC710C72F6
:1066D0000B484C720382F8BD4C710D490C70064991
:1066E000002801DA0D7202E00C720A490C700449AC
:1066F0000882F8BD9201002030010020E70300006D
:10670000200B00201C0800209602000084010020BD
:1067100085010020860100200C214843154910B551
:10672000401880881449884201D9144810BD0121BD
:106730000903134A091A5043FBF7B8FE09218902DD
:10674000884202D20D48801E10BD0E49884202D9EF
:106750000A48401E10BD80B2FFF79AF8FCF706F811
:1067600000B2C10040180521FBF7AAFE203000B29C
:1067700010BD00005C0900208B0E0000E703000044
:10678000204E0000C26D000010B5FEF78DFD10BD5B
:1067900070B50D4E0546307C0C46401CC1B23174BC
:1067A000A14204D8480040194038C28706E0601C66
:1067B000307421462846FCF765F921462846FCF747
:1067C00033FA708480B270BD3001002010B5818C26
:1067D000090707D501684A680123DB039A43436B25
:1067E0001A434A60818CC90707D001684A680123AF
:1067F0005B049A43836A1A434A60818C890707D5F0
:1068000001684A6801231B049A43C36A1A434A6019
:10681000818C490707D501684A6801239B049A4384
:10682000036B1A434A60818CC90607D501688A68E0
:1068300001231B039A43836B1A438A60818C890668
:1068400007D501688A6801235B039A43C36B1A4327
:106850008A60818C490612D501684B6801221205B5
:10686000046C934323434B60016C914207D1016850
:106870004A6803235B059A43436C1A434A60818C40
:10688000090607D501684A680123DB04806C9A4336
:1068900002434A6010BD0000FEB506460027803660
:1068A00004467760FDF710FD0190206800682546DA
:1068B00000076035002819DA2748009001210022DE
:1068C00049052046019B00F02FFA00280ED0EFF377
:1068D0001081012080F310882068026880239A4389
:1068E000026081F310882020E06729E020680068BA
:1068F000400728D51848009001210022890520462C
:10690000019B00F011FA00281DD0EFF31081012047
:1069100080F3108820680268FF2321339A430260C5
:1069200081F31088EFF31081012080F31088206834
:10693000826852085200826081F310882020306003
:106940002F760320FEBD2020E06730602766676653
:106950002F760020FEBD0000FFFFFF0110B5406A4A
:106960000022014640314A834A82FDF7C1FD10BD35
:10697000F8B5446AE06F254680352E68216889683D
:1069800000270906002906DA212804D152200753DE
:10699000204600F0C7F820688068400606D5222E01
:1069A00004D15A200753204600F08DF86868102162
:1069B000084368602046FDF79BFDF8BD70B50146B1
:1069C0008969406A0023202937D05A210B52EFF3FE
:1069D0001082012181F3108801680C68FF250135C0
:1069E000AC430C6082F31088EFF31082012181F335
:1069F000108801688C68640864008C6082F31088D9
:106A0000EFF31082012181F3108801688C68402522
:106A1000AC438C6082F31088202280210A50016EE2
:106A200001290AD1EFF3108281F3108801680C6804
:106A30001025AC430C6082F310884366016E012977
:106A400002D0FDF7B9FF70BD5821095AFDF702FDCC
:106A500070BD10B5406A01214166016E012902D066
:106A6000FDF7ABFF10BD5821095A4908FDF7F2FCAC
:106A700010BD10B501468969406A20291BD000224B
:106A800052210A52EFF31082012181F3108801682C
:106A90008B688024A3438B6082F31088EFF310810E
:106AA000012282F310880068026840231A430260C2
:106AB00081F3108810BDFEF737F810BD10B5406A9D
:106AC000FEF73EF810BD10B5EFF31082012181F3FF
:106AD000108801680B68FF242134A3430B6082F304
:106AE0001088EFF31082012181F3108801688B6810
:106AF0005B085B008B6082F31088016E01290AD16C
:106B0000EFF3108281F3108801680B681024A3430F
:106B10000B6082F31088202280210A500021016638
:106B2000816610BD10B5EFF31082012181F310884A
:106B300001680B68C024A3430B6082F310882021F6
:106B4000C16710BD70B5044681680069E269014300
:106B5000606900251043014320680268404B1A40D9
:106B60000A43026020684168032212039143E268ED
:106B700011434160216AA0690143206882680B23A8
:106B80001B029A430A43826036492068884210D12A
:106B90003548006B8007800F11D0012805D00228EE
:106BA00005D003280AD1022009E0042007E00820CC
:106BB00005E02E49884201D1002000E0102001228A
:106BC000E369D2032A492B4E934224D1002806D0F0
:106BD000022807D0042807D0082837D108E0FDF79D
:106BE000E7FB03E00A4603E0FDF7F2FB020032D0C8
:106BF000616850004A088018FBF758FC01461039BC
:106C0000B14223D81B49491C01400007420F2068AC
:106C10000A43C2601FE0002806D0022807D00428DB
:106C200007D0082812D108E0FDF7C2FB03E00A46AE
:106C300003E0FDF7CDFB02000DD061684808801825
:106C4000FBF734FC01461039B14201D9012502E0BD
:106C5000216880B2C8600020A066E066284670BD4A
:106C6000F369FFFF0038014000100240004400407B
:106C700000127A00EFFF000070B504464165403015
:106C80000021254602838035696022202860606FDC
:106C9000002819D0214B8362636F2148D862636F4B
:106CA00020481863606F13464163666D2168324661
:106CB0002431606FFDF756F9002805D01020686078
:106CC00020202860012070BD206900280CD0EFF33F
:106CD0001081012080F3108820680268FF230133AF
:106CE0001A43026081F31088EFF31081012080F3D2
:106CF00010882068836801221343836081F3108821
:106D0000EFF3108182F310882068826840231A43D1
:106D1000826081F31088002070BD0000BD6900080A
:106D2000536A000871690008FFB5044681B08030DD
:106D30000A9E27460D466037009034E0701C32D022
:106D4000FDF7C2FA0499401AB04219D8002E17D0A4
:106D500020680168490726D5802D24D0402D22D0F7
:106D6000C169C94309070DD4082505622046FFF70C
:106D7000AAFE0098456000203876012005B0F0BDDD
:106D80000320FBE7C069C04300050CD40120216843
:106D9000C00208622046FFF796FE0098202141605D
:106DA00000203876ECE72068C1692846884305D082
:106DB000002003998842C1D00020DFE70120F8E7D6
:106DC0000A4A107802280DD0012807D0002807D0E1
:106DD00007490878002805D0022004E0002002E0DE
:106DE000032000E001201070704700002A010020FD
:106DF0008401002010B5044901200870FCF77EFAD8
:106E000002490020886110BD200B00208401002071
:106E10000148007970470000840100200148C078D3
:106E200070470000840100200148407A704700004C
:106E30008401002001491420085E7047840100206D
:106E4000F8B504006ED00E21FBF72CFB364F002561
:106E50003878E07201263548405D4100CA190A21A0
:106E6000515E334A91420ED00A461E320BD0FBF7D8
:106E70001FFE2F49491E884208D1617A3046A8403A
:106E80000143617213E00220607310E02849891EFB
:106E9000884205D1A17A3046A8400143A17206E09C
:106EA00069006052217A3046A840014321726D1C6E
:106EB000EDB2032DCFD31F490878002807D04A78B8
:106EC0000820002A06D0617A014361720EE0022098
:106ED00060730BE08978002903D0A17A0143A17285
:106EE00004E0398AE180217A014321721248018845
:106EF0000F4A6532914201D800200DE001880F4A07
:106F0000914201D3642007E000880D4940186421B4
:106F100048438900FBF7CAFA20730A480078002822
:106F200000D06673F8BD0000200B0020137E00081F
:106F3000E70300008401002044010020DC0500007C
:106F4000B4FBFFFF310100200148007870470000CA
:106F500084010020014900208861704784010020DD
:106F600010B5034901204871FBF7C2FE10BD0000B7
:106F70008401002010B5034901208871FBF7A2FEAF
:106F800010BD00008401002010B50649C878097AB8
:106F9000014304D0022801D0FFF7ECFF10BDFFF73A
:106FA000DFFF10BD8401002000220649002806D022
:106FB000C879002800D18A610120C8717047CA7160
:106FC000704700008401002030B585B003281ED230
:106FD00000291CD00F4B1424002260436D46C418B6
:106FE000900023582B50521C0B58D2B22350052A24
:106FF000F6D3FCF783F9002802D0012005B030BD9C
:107000008100401C6A58C0B262500528F8D30020A5
:10701000F4E70000A801002070B5012803D0002883
:1070200001D0002070BD074D2C78844206D0287016
:10703000002903D0FCF762F9002801D0012070BDBF
:107040002C70EEE7200B002010B5044A04490548D7
:1070500000F0A4FA0348FDF74DFA10BDC800002067
:10706000BC0300206802002010B5044A044905480A
:1070700000F094FA0348FDF73DFA10BDDC00002053
:1070800000040020F002002010498882104B0022EA
:1070900098420BD2487C142801D2401C4874C0B2DC
:1070A0008A74142801D30120487070474B231B01B8
:1070B0009842FAD3887C142801D2401C8874C0B24C
:1070C0004A741428F1D34A70704700003001002040
:1070D0004C04000070B53B4C00263B4D66720A2004
:1070E000285EFDF7BBFF00280DD00C20285EFDF7C1
:1070F000B5FF002807D00E20285EFDF7AFFF00285F
:1071000001D0012000E00020032202212F4B0028A3
:107110000AD02078002801D0197002E018780228DF
:107120000ED1207800280BD0187800281AD001281A
:107130000AD0022831D0032825D00A20285E0DE08D
:107140006272A6821E7070BD0C26AE5F3046FBF7E1
:107150004DFD0028F7D1314601200BE0FFF724F95F
:10716000A08270BD0A26AE5F3046FBF73FFD0028C7
:10717000F7D13146FBF79CFC0546FBF737FD0028AD
:10718000EFD12846EAE70E26AE5F3046FBF72EFD2C
:107190000028E6D131460220ECE72078002806D00E
:1071A0006078002805D001206072A68270BD6272EE
:1071B000FBE7A078002801D06172F6E71020285E76
:1071C000CCE7000084010020200B00202A010020D1
:1071D00070B5184900250A781749022A097815D090
:1071E00001291BD0154A118881420AD800214B0081
:1071F000D35A834201D84B1CDDB2491CC9B20929BC
:10720000F5D30024A5420CD903210BE0012902D0BB
:107210000A4A2432E7E7094A1232E4E7074A123AF7
:10722000E1E700212046FEF71FFE641CE4B2092CB2
:10723000E8D370BD2A010020200B0020067D000845
:10724000F8B5344DA879002863D169463248FBF778
:107250007CFF06466846008800282ED02F490A6821
:10726000521C0A604A6812184A6008852A89002A56
:1072700009D1022807D13078FF2804D1707801287D
:1072800003D0002806D0002410E0888B401C88839F
:10729000012003E0C88B401CC8830020FEF7C2FD1C
:1072A00008E0305DFCF71EFA641CA4B26846008852
:1072B0008442F6D31848FBF761FF184E0024184F9C
:1072C000483E182060438019017D002908D0C18AFA
:1072D000491C89B2C182B94202D31821FBF7E4F8F4
:1072E000641CE4B2032CECD3FEF788FA287800285B
:1072F0000DD0FEF77BFA002809D1A878401CC0B257
:10730000A870322803D30020A870FEF7DFFBFEF739
:107310005FFDF8BD76010020C8000020F00A0020C3
:10732000B80B000002480021C17001714171704723
:107330007601002010B50B480024048144810470BC
:1073400044708470C47004714471847130210648A3
:10735000FBF7AAF8FBF74EFFFEF740FA03488473E9
:10736000448110BD76010020F00A0020C8000020F2
:1073700005484079002803D10448C06F202801D077
:10738000002070470120704776010020680200202D
:1073900070B586B014460C2A02D9002006B070BD24
:1073A0006B465A221A705A70114D98706878D870CE
:1073B00000201C7158711E46002C05D0002903D0F6
:1073C0002246981DFAF7BDFF211DB01CFEF724F9D7
:1073D00031198871000AC8710834E1B26846FEF7B5
:1073E00031FB0028DAD06878401C68700120D5E7AE
:1073F0007601002010B50D48012181710024047030
:1074000004814481C47004714471FBF7F3FE0848A1
:107410008473448184810748006801681022914385
:1074200001600448FDF717F810BD00007601002048
:10743000C800002068020020F0B589B06D46FF2228
:1074400020212846FBF709F82748009001216846CB
:1074500081802021C1802549254C08680290FF3891
:1074600081380390486804908A7D68460275C97D1A
:107470004175C482002018226946C043FBF7A8FF6B
:10748000C04306901B4F684687831B4EC48301216F
:107490003046FCF78BF8002804D0FCF743FE0028A8
:1074A00002D0002009B0F0BD0024600840002A5A34
:1074B0000023A1190120FCF7F7FD00280CD1A41C22
:1074C000A4B21C2CF1D30C493A4600231C310120F4
:1074D000FCF7EAFD002802D0FCF7DCFDE1E7FCF751
:1074E000D9FD0120DEE700003141544F400B002060
:1074F000FFFF00005AA5000000F4000801700A0A0E
:1075000042700A0C8270090EC1707047F8B5040C05
:107510008BB2264682B25E430D0C1046370C5843A0
:10752000360480190021794116466E43370C360423
:107530008019794126466E438919F8BD30B47446E6
:10754000641E2578641CAB4200D21D46635D5B005F
:10755000E31830BC184700008307FF22DB0E9A4077
:107560008907090E9940002808DB830809489B0019
:107570001818036893430B43036070470007000F1C
:107580000838830804489B001818C36993430B43C9
:10759000C361704700E400E000ED00E070B506460E
:1075A00000681446C269D243D2061AD4102202627D
:1075B000086845683046FCF74EFF2089A84209D389
:1075C000401B0104090C05D0A07B00280AD02069CB
:1075D000401C20610020A081228930462168FDF7EF
:1075E000BFF970BD05CC083C226060606181BFF3CB
:1075F0005F8F0120A073EDE770B50020094B0A4CA6
:107600000A4D02460C26014671435A52C9184C8055
:107610008A808A604100401CC0B26A520228F1D3BD
:1076200070BD00005C090020FF0F0000C0000020BA
:1076300010B50D48006801681024214301600B4813
:10764000028901680848FDF78BF90748883000680F
:10765000016821430160054814300289016802482D
:107660008830FDF77DF910BD68020020C8000020B9
:10767000F0B5032874D23C4E3A4F35460F35F31C13
:107680000022EC1EB9420CD00F461E3709D0365CE2
:10769000002E21D0334E761EB1420CD1D91C0A5493
:1076A00013E032541A54304B9B1D1A54DB1C1A54ED
:1076B00022542A5454E02C4EB61D375CFF2F01D2C1
:1076C0007F1C3754FFB2022F02D22648401EF0BD65
:1076D000254F3A541A543254234F09373E5C002E3A
:1076E00013D0204EB61EB14201D12A5407E02E5CC1
:1076F000FF2E01D2761C2E54F6B2022E02D2194869
:10770000801EF0BD3A5422542A54164E761EB142C1
:1077100011D12254195CFF2901D2491C1954C9B254
:10772000032905D3104B01211954991D0A5412E065
:10773000FF20F530F0BD0B4E1A54B61EB1420ED1EB
:10774000215CFF2901D2491C2154C9B2032904D369
:10775000012139542A543046F0BD0020F0BD225496
:107760000846F0BDE70300005401002033483249C9
:10777000002202604160C94381603149C160BFF3AA
:107780005F8F30490160BFF34F8F2C4C2E48203C57
:107790002063FCF7A7FD2C48401C2063FEF708FD82
:1077A0002948801C2063FDF7E1FDFDF7BBFDFDF7D7
:1077B0007BFDFDF747FEFDF761FE2348C01C2063FB
:1077C000FEF7B6FC2048001D2063FDF7B1FF00283E
:1077D00001D0FFF7C5FBFEF7D7FFFEF7E4FA1A4822
:1077E000401D2063FFF724FFFFF7A4FD0A220021BC
:1077F0001648FEF721FA0A2200211548FEF71CFA66
:10780000FF22F53200211348FEF716FA6422002108
:107810001148FEF711FA142200211048FEF70CFA65
:1078200000220F490F48FEF707FA074DAD1D2563EB
:10783000FEF742FAFBE70000314E5552E01F0020F0
:10784000251DB37050575231010090A9A551000871
:1078500095340008D1630008B5540008417200084F
:10786000102700008156000801461E3105D0FF2177
:10787000F531884204DD064870471D20C04370473B
:10788000002802DA0248401E704700B2704700002C
:10789000E603000010B5417802780902114349BAA5
:1078A0000A048178C07809020A4310436421FAF778
:1078B00007FE01461E3104D001460A3101D00E28D0
:1078C00001D11D20C04310BDF0B585B003283AD2C8
:1078D000304A314B914209D00A461E3206D02D4A19
:1078E000521E914202D0521E914202D100221A54DD
:1078F00029E02A4A14241D5C4443A218002D19D003
:107900000023580014185B1C6488DBB21452092B46
:10791000F7D3518200206B464100401C545AC0B23C
:107920005C520A28F8D30A2619460022571CF8B2DE
:10793000550014E001241C54002358005B1CDBB2EA
:1079400011520A2BF9D3084605B0F0BD43004A5F37
:10795000CC5EA24201DD4C53CA52401CC0B2B042C0
:10796000F4D3FAB2B242E1D306200B46085E0821F6
:10797000595E0C2240180A21595E9A5E89184018F7
:1079800001D4801C00E0801EC117890F08188010E8
:1079900000B2D9E7E70300006601002030080020AC
:1079A000F8B5144607460068194A90422ED1096876
:1079B00020894968411A0D042D0C27D0A189A942BC
:1079C00024D0A17B012921D0A8421FD3EFF3108638
:1079D00072B63846FCF73FFDA07B002803D0206933
:1079E000401C20610AE003CC083C21606060658196
:1079F000BFF35F8F0120A0730020A0812289384649
:107A00002168FCF7ADFF002E00D162B6F8BD000082
:107A100000440040F0B520A003C88BB00991089045
:107A20001423082208A91E48FCF7C8FF1D4A1E4956
:107A30001B48FFF7B5FF202269461A48FBF7AAFB4F
:107A40000F2822D36C46E01CFFF724FF0746E01DF9
:107A5000FFF720FF064602A80330FFF71BFF394659
:107A600004463143114D214311D03846FFF7FCFE47
:107A700028803046FFF7F8FE68802046FFF7F4FEC6
:107A8000A8800A490120403988700BB0F0BD1D2044
:107A9000C04328806880F3E7AA5501000000000079
:107AA000F0020020DC000020000400207001002013
:107AB00070B501250400ED074C4020D4441A01D2D2
:107AC000001B0919C60D4B00F2B2FF2A29D01B0E6C
:107AD0002CD000020C02D31A2C43DC402843051999
