:020000040800F2
:10200000B814002091210008ED540008454E000846
:1020100000000000000000000000000000000000C0
:10202000000000000000000000000000395B000814
:102030000000000000000000755700080D5E000859
:10204000A321000800000000A3210008A32100082C
:10205000A3210008A3210008A3210008A321000850
:1020600000000000153300082D3300084533000838
:102070007D280008A3210008A3210008000000001B
:10208000A3210008A321000800000000A3210008EC
:10209000A3210008A3210008A3210008A321000810
:1020A000A3210008A3210008A3210008DD6B00087C
:1020B000FD6B000800F002F800F03EF80CA030C8FC
:1020C000083824182D18A246671EAB4654465D46B4
:1020D000AC4201D100F030F87E460F3E0FCCB64640
:1020E0000126334200D0FB1AA246AB4633431847C1
:1020F000A0580000C0580000103A02D378C878C138
:10210000FAD8520701D330C830C101D504680C6039
:10211000704700000023002400250026103A01D358
:1021200078C1FBD8520700D330C100D50B6070478F
:102130001FB51FBD10B510BD00F06DFB1146FFF7B8
:10214000F7FF05F0B9F800F085FB03B4FFF7F2FFE5
:1021500003BC00F08BFB000070B505460C4616462C
:1021600002E00FCC0FC5103E102EFAD2082E02D37B
:1021700003CC03C5083E042E07D301CC01C5361F8E
:1021800003E021782970641C6D1C761EF9D270BDA5
:102190000748804707480047FEE7FEE7FEE7FEE7FF
:1021A000FEE7FEE704480549034A054B7047000077
:1021B000195F0008B5200008B80B0020B8140020F3
:1021C000B80B002010B5202A04DB0846203AD04086
:1021D000002110BD0B462024D340D040A21A9140CC
:1021E0000843194610BDFEB5054610460C46184377
:1021F00073D0AE468C460020AD1A01469C4167D391
:102200006646002701243D46B61A9D4102D3134677
:102210003A462124654676462F04360C3E432D0C63
:10222000B61A9D4104D3150C1B042B431204103421
:10223000654676462F06360A3E432D0AB61A9D415C
:1022400004D3150E1B022B43120208346546764652
:102250002F0736093E432D09B61A9D4104D3150FA9
:102260001B012B431201241D65467646AF07B608B5
:102270003E43AD08B61A9D4104D3950F9B002B43F6
:102280009200A41C65467646EF0776083E436D082B
:10229000B61A9D411AD392185B41641C16E00018CF
:1022A000764665464941B71A9D410191009009D390
:1022B0006046B11A98418E468446009801990025DF
:1022C000401C6941DD0752082A435B08641EE6D5BD
:1022D0007246634603B0F0BDFFE700200146C046EA
:1022E000C0462A462346F5E7034610B50B439B0735
:1022F0000FD1042A0DD308C810C9121FA342F8D069
:1023000018BA21BA884201D9012010BD0020C0436B
:1023100010BD002A03D0D30703D0521C07E00020D1
:1023200010BD03780C78401C491C1B1B07D1037897
:102330000C78401C491C1B1B01D1921EF1D1184680
:1023400010BDF8B5042A2CD3830712D00B78491C92
:102350000370401C521E83070BD00B78491C03707E
:10236000401C521E830704D00B78491C0370401C8C
:10237000521E8B079B0F05D0C91ADF002023DE1BDE
:1023800008C90AE0FFF7E8FEF8BD1D4608C9FD4090
:102390001C46B4402C4310C0121F042AF5D2F30887
:1023A000C91A521EF0D40B78491C0370401C521EEF
:1023B000EAD40B78491C0370401C012AE4D4097844
:1023C0000170F8BD431A70B593421BD2891880186A
:1023D00004E0491E401E0B78521E03709307F8D18B
:1023E00006E01039103878C9103978C01038103A22
:1023F000102AF6D203E0091F001F0B680360121FAA
:10240000F9D570BDFFF7A8FE70BDF8B506461446B5
:102410000843800707D0751AA54219D20819102D54
:1024200013D2311907E03046FFF7CCFFF8BD401E4C
:10243000491E02780A70641EF9D2F8BD471B2A466D
:102440003946FFF77EFF641B3846A542F6D3011BD1
:1024500022463046FFF775FFF8BDD2B210B5130221
:102460009A1813049A1800F00EF810BD01E004C089
:10247000091F0429FBD28B0701D50280801CC907E4
:1024800000D00270704700290BD0C30702D0027041
:10249000401C491E022904D3830702D50280801CF8
:1024A000891EE3E70022EEE70022DFE700220309AE
:1024B0008B422CD3030A8B4211D300239C464EE05F
:1024C00003460B433CD4002243088B4231D303091B
:1024D0008B421CD3030A8B4201D394463FE0C309CD
:1024E0008B4201D3CB01C01A524183098B4201D3E5
:1024F0008B01C01A524143098B4201D34B01C01AD0
:10250000524103098B4201D30B01C01A5241C30847
:102510008B4201D3CB00C01A524183088B4201D3B6
:102520008B00C01A524143088B4201D34B00C01AA2
:102530005241411A00D201465241104670475DE0B7
:10254000CA0F00D04942031000D34042534000223A
:102550009C4603098B422DD3030A8B4212D3FC22E3
:10256000890112BA030A8B420CD3890192118B4262
:1025700008D3890192118B4204D389013AD0921178
:1025800000E08909C3098B4201D3CB01C01A524133
:1025900083098B4201D38B01C01A524143098B42FC
:1025A00001D34B01C01A524103098B4201D30B01E5
:1025B000C01A5241C3088B4201D3CB00C01A52410A
:1025C00083088B4201D38B00C01A5241D9D24308F1
:1025D0008B4201D34B00C01A5241411A00D201462E
:1025E000634652415B10104601D34042002B00D598
:1025F0004942704763465B1000D3404201B500205A
:10260000C046C04602BD704770477047F0B5FF2511
:102610002D04C609C209FF2704462E400137CB0905
:102620003E4348402A402B400746002A6BD0002BEF
:1026300069D0AA4267D0AB4265D0002800DA3246A2
:102640000125ED0529432C4309022002090AD21A6B
:102650004B0C7F24E31A434C000A7C44E35C7D244A
:102660002404121914145B00A218884201D3521CCE
:1026700000E0400049420C465C4324115C43DB010E
:102680006415E318040A5C43C502200D0C4644435C
:102690006419250A5D432303EC0C0D4665430003D2
:1026A0000019EB184C42A34201D35B18401CD4051F
:1026B0002018002B07D05B00C91804D3401C002948
:1026C00001D1400840003F2189048A4209D3002AF1
:1026D00008DC1106090F04D0032149074018C00F78
:1026E000C007F0BD01224100120689187F22520660
:1026F0009142F6D205214907C84201D59010F0BD9C
:10270000FF20C005F0BD002F00DA32461648AA426D
:1027100007D2AB4205D21902090E17D0F80FC00735
:10272000F0BDFF2563002D06AB42F9D84900A94250
:10273000F6D8AB4201D1A942F2D0A94201D1002181
:1027400001E061004908D0050843F0BD1102090EFF
:10275000FBD0FF200243D005F0BD0A4601461046DB
:1027600054E70000F05200000000C07F10B50146A1
:102770009E240002CA15A307002A02D01843002A8B
:1027800004DBA21A002A0CDDD04010BD1206120E86
:1027900001D140004008A21A03D4D0404042002892
:1027A000F3DDFF2248001206904201D9002010BD3F
:1027B000C817C043584010BD1F22030C02D10F227E
:1027C00000041CD0030E01D10002083A030F01D10E
:1027D0000001121F830F01D18000921E002801DB2F
:1027E0004000521ED2055118021251181922904071
:1027F00004D3491C002801D1490849000846704704
:10280000C10FC90700D04042012292071143D3E70C
:1028100001218907D0E7754600F024F8AE4605008F
:1028200069465346C008C000854618B020B5FFF77A
:10283000B9FC60BC00274908B6460026C0C5C0C523
:10284000C0C5C0C5C0C5C0C5C0C5C0C5403D4900A4
:102850008D46704710B50446C046C0462046FFF777
:1028600074FC10BD00487047540B0020014918202B
:10287000ABBEFEE7260002007047000010B502481C
:1028800001F042F810BD0000D801002010B501464B
:10289000406A826B50231A420AD1816B0122520294
:1028A000114381630168CA681205920F05D020E0C8
:1028B000006B026B0846904710BD827E002A18D13B
:1028C0000A68120715D58A6801235207002A09DB16
:1028D0004A680C24A2434A60816B1A02914319434F
:1028E000816306E0816B202211438163C16B194330
:1028F000C16300F0FBFF10BD10B5406A816B402240
:1029000011438163C16B04221143C16300F0FBFFDB
:1029100010BD10B5406A00F0F5FF10BDF8B50446D3
:1029200000200090206881688907890F012905D15E
:102930000168C90731D1C16809042ED48168184AD9
:1029400010261140012500291AD181682943816090
:10295000154814490068FFF7A9FD00E0401E0090EB
:102960000028FBD101F0FCFB074611E001F0F8FB69
:10297000C01B02280CD920680068C043C00707D0DC
:10298000A06B3043A063E06B2843E0630120F8BDF7
:1029900020680068C043C007E8D10020F8BD0000EF
:1029A0001700008040420F00FC00002010B50146D7
:1029B000072002F03BFF03F001F810BDF0B5002343
:1029C000084F4E1EFB7305E05C0025186D8805530B
:1029D0005B1CFB73DBB2B342F6DB490008184038DE
:1029E000C287F0BD2C010020F8B50446032834D27C
:1029F0002848814231D008461E302ED025480A464C
:102A0000401E814229D0234D1046AD1EA94224D03C
:102A1000FFF7F6FE064614201F4F4443385931464F
:102A200004F028FEE419616804F0DEFD314604F08C
:102A300021FEA16804F0D8FD314604F01BFEE168D8
:102A400004F0D2FD314604F015FE216904F0CCFDFE
:102A50001249884203DD681CF8BD0846F8BDFF2115
:102A6000C905C84201D32846F8BD0D49884201DD99
:102A70000C48F8BDC7210906884202D90948C0435D
:102A8000F8BD3F21090604F0AFFDFFF76FFE00B26D
:102A9000F8BD0000E70300009C0100200000FA439D
:102AA00000FEFF46FF7F0000F0B51C494A7856063D
:102AB000760E4E700A7955066D0E0D714A795206E2
:102AC000520E4A718B795B065B0E8B719C46CB79FB
:102AD0009C06A40ECC710B7A9B069B0E0B720328EE
:102AE0000CD00F4880270078002805D0012806D098
:102AF000022807D0032808D03A434A71F0BD3D436D
:102B00000D71F0BD3E434E70F0BD60463843887194
:102B1000C0200443CC7103430B72F0BDD4070020E6
:102B20002A0100200C4B00220C49984201D10120BF
:102B30000EE0094B5B1E984201D1022008E0064BD3
:102B40005B1C984203D01E3001D000207047032048
:102B500048724A8201207047E60300007C01002091
:102B600070B50A4C0025A57307E05300C35AE383F0
:102B7000268CF3182384521CA273A27B8A42F4D3BE
:102B8000208CFFF793FCE083258470BD2C0100208E
:102B900070B50C2148431549154C401881882046D2
:102BA000124D438BA28BF03D5800782A02D2521C62
:102BB000A28303E02A5AE66BB21AE2632952E06B61
:102BC0005B1C401899B2E0636183782901D300212E
:102BD0006183A18B4A081018FFF768FC054980B291
:102BE00048430549FFF762FC80B270BD54090020DC
:102BF0002C010020E40C0000FF0F000070B50A4C0F
:102C0000207A00280FD009250121ED060022C902F3
:102C1000284601F09EFA012100220903284601F00E
:102C200098FA0020207270BD7C01002070B50D4C18
:102C3000207A002814D109250122ED06D102284668
:102C400001F087FA0126360300223146284601F0BA
:102C500080FA01223146284601F07BFA01202072D9
:102C600070BD00007C01002070B52C4C0126A079BD
:102C70000025002807D0E5702571E5812582A57122
:102C80006571E57110E06079002806D0E670258254
:102C9000E58126716571FFF7C9FFE07801281CD036
:102CA00003281AD0022822D0FFF7A8FFE0780128D5
:102CB00025D0032823D002281CD02571E0780128D4
:102CC0000AD1208A4B21401C80B20901208288420F
:102CD00002D3E5702571E57170BDFFF7A7FFE079BC
:102CE0000028E3D00220E0702671E58102E0E0795F
:102CF000002801D0267170BD0320E070E581E089D5
:102D0000401C80B2E0810528D8D3E58120790028D5
:102D100002D000202071D1E70120FBE77C010020D8
:102D200001220A4800210270817201710723437059
:102D3000C1708270417241718271C1710272C1723F
:102D4000C17301734173817302747047400700209F
:102D5000F8B5124E002530461138407807010120A1
:102D6000103700F0EBF800F00DF9022000F0E6F863
:102D7000002407E0305D00F0C3F8305D4019641CAA
:102D8000C5B2A4B2BC42F5D3284600F0B9F804207D
:102D900000F0D4F800F0E6F8F8BD0000510700207C
:102DA0000748074A407811320301002001461033DA
:102DB00002E01154401C80B29842FAD370470000E0
:102DC0004007002070B5434D434E030004F05CF90A
:102DD0000A06111E2B3845525F6C7910012000F055
:102DE000ADF800F0CFF8022000F0A8F8002028701D
:102DF00070BD0024305D00F083F8305D2978641CDC
:102E00004018E4B22870102CF4D370BD1024305D4B
:102E100000F076F8305D2978641C4018E4B2287020
:102E2000202CF4D370BD2024305D00F069F8305DB3
:102E30002978641C4018E4B22870302CF4D370BD9B
:102E40003024305D00F05CF8305D2978641C401857
:102E5000E4B22870402CF4D370BD4024305D00F003
:102E60004FF8305D2978641C4018E4B22870502C6B
:102E7000F4D370BD5024305D00F042F8305D297805
:102E8000641C4018E4B22870602CF4D370BD602438
:102E9000305D00F035F8305D2978641C4018E4B2EC
:102EA0002870702CF4D370BD7024305D00F028F8C9
:102EB000305D2978641C4018E4B22870802CF4D36B
:102EC00070BD287800F01CF8042000F037F800F0FE
:102ED00049F870BD040100205107002010B5012001
:102EE00002F01AFE012002F007FEFFF719FF00F0C2
:102EF0007DF800F09BF800F083F800F05FF810BD5B
:102F000070B505460024002002F0F6FD280601D524
:102F1000012000E0002002F0FFFD00F099F8012000
:102F200002F0EAFD00F094F86806641C050EE4B2B5
:102F3000082CE8D3002002F0DFFD70BD10B5044678
:102F40005A20FFF7DDFFFF20FFF7DAFF0448047087
:102F50002046FFF7D5FF5934E0B2FFF7D1FF10BD8F
:102F60004007002010B5002002F0C6FD00F070F808
:102F7000012002F0C1FD00F06BF8002002F0BCFD62
:102F800010BD000010B50C4C2078FFF7B9FF607839
:102F9000FFF7B6FFA078FFF7B3FFE078FFF7B0FFC9
:102FA00020786178E2784018A17889184018C0B27A
:102FB000FFF7A6FF10BD0000080100200948C17AF4
:102FC000C27B890152018918027B12018918427B58
:102FD000D2008918827B007C5200891808180249A7
:102FE000C8707047400700200801002002480349CC
:102FF000807A087070470000400700200801002018
:103000000848417A4279C901120189188279D200AF
:103010008918C279007A92008918081802498870C4
:103020007047000040070020080100200648027990
:103030008178D20189184278C07892004000101837
:103040000818024948707047400700200801002016
:10305000002000BF401C80B23228FAD3704710B560
:10306000002200280FD000290DD000230B80EFF3A1
:10307000108372B6847B002C02D04268408908809D
:10308000002B02D002E0002010BD62B6104610BD39
:10309000002808D0EFF3108172B6002282734281BB
:1030A000002900D162B6704770B500250B46044672
:1030B000002818D0002B16D0002A14D0EFF3108669
:1030C00072B6A07B00280BD06589954200D91546C1
:1030D0002A4618466168FFF734F90020A073608122
:1030E000002E02D002E0002070BD62B6284670BDFE
:1030F00010B500240021204602F074FD641CE4B2E7
:10310000092CF7D310BD000010B548210148FFF786
:10311000CBF910BDA00A002070B505460B4800236E
:103120000B4C10E0EA5C120250400022060402D56B
:103130004000604000E04000521CD2B280B2082A39
:10314000F4D35B1C9BB28B42ECD370BDFFFF00003D
:103150002110000070B5174D174E284600F032F8C8
:103160000446304600F02EF8002C0ED000280AD07D
:10317000B168A868081A002801DD344600E02C4632
:10318000002C05D170BD2C4602E00028FAD0344650
:103190000A49207B087021463C2210310848FEF77E
:1031A000DBFF0748A16820388161AC4200D035467A
:1031B000C56170BD00F8000800FC0008180B002075
:1031C0009C01002010B5104A0168914219D18188F4
:1031D000012916D1C188502913D1014640310C462E
:1031E000C9890A4A91420CD1017B012901D00029E9
:1031F00007D14C21FFF790FFA189884201D101201E
:1032000010BD002010BD00004854414D5AA50000DB
:10321000F0B599B000246E46FF2250213046179435
:10322000FFF71BF929480090012769468F8050203D
:10323000274DC880A8693C22401C02902548007890
:1032400008732946203104A8FEF786FF4C21684602
:10325000FFF762FF10A988811F48C881E8691F4DE8
:10326000A84200D11E4D14A8B0C000F0A7FE00284F
:1032700002D0002019B0F0BD17A914A800F006FE76
:10328000002818D1002460084000325A2919002370
:10329000012000F055FE00280DD1A41CA4B24E2C34
:1032A000F1D310A8C289294600234E31012000F035
:1032B00047FE002802D000F039FEDAE700F036FEC3
:1032C00003480299C56181610120D3E74854414D0B
:1032D0007C010020180B00205AA5000000F800080F
:1032E00000FC000870B50024094D0DE00B5D58404E
:1032F0000023C60702D04008684000E040085B1C7D
:10330000DBB2082BF5D3641C9442EFD370BD0000F0
:103310002083B8ED10B5034800F0FAFC0249002004
:10332000087010BD180200202C01002010B50348C1
:1033300000F0EEFC024800F0EBFC10BD6C03002036
:10334000B003002010B5034800F0E2FC024800F092
:10335000DFFC10BD38040020F403002010B5044643
:103360000068054940181421FFF7A0F88000206488
:103370000248E06310BD0000F8FFFDBF00000240FE
:1033800030B5056C0124AC40C56B6C6004686360AB
:103390004368102B036803D099600068C26030BD99
:1033A0009A600068C16030BDF8B53E48407800289A
:1033B0006AD1FFF7F5FC3C480078052864D0002866
:1033C00062D003F001FB044603F0F8FA0546012839
:1033D0000AD0022D0BD0032D0CD0204602F06EFC3B
:1033E000002C0FDA00200EE00622762104E03F22B6
:1033F000382101E040221146402002F035FCFFF761
:1034000077FE02E0A0B203F0ADFC284880260078E9
:10341000274C0128A0780FD04006400EA070E0781D
:103420003043E0702846FFF73FFB03F0BBFA00286B
:10343000207807D0304307E03043A070E0784006A2
:10344000400EEEE74006400E20701A480078002833
:10345000A07902D04021084301E0BF210840164E68
:10346000A0710021012500208D400B01225C2A4023
:1034700000D0D0221F18401CC0B2F2551028F5D33E
:10348000491CC9B20829EDD3064C6078FFF79AFCB5
:103490006078401CC0B26070092801D900206070BB
:1034A000F8BD00002A01002089010020180B00202F
:1034B000D40700202D010020510700201FB5002255
:1034C000009201920391029000F078FD002802D052
:1034D000002004B010BD694601A800F0D7FC002808
:1034E00002D000F023FDF3E700F020FD0120F0E71B
:1034F00003490248086372B6FEE70000EE0090A997
:10350000C01F002006490020C86106480169042246
:1035100011430161016940221143016170470000BC
:10352000C006002000200240064A0021D161064961
:103530000A6902231A430A6148610869402210435C
:1035400008617047C00600200020024010B5054BFE
:103550000022DA61044A13690124234313610180C4
:1035600010BD0000C00600200020024010B50B4A2C
:103570000020D168CB060A4904D5C8690223184344
:10358000C8611020D3685B0705D5CB6901242343AC
:10359000CB6104210843D06010BD00000020024030
:1035A000C006002070B5044600F0DAFD0546104E56
:1035B0000AE0601C08D0002C04D000F0D1FD401BB4
:1035C000A04201D9032070BDF068C007F1D1F068B6
:1035D000800601D52020F060F068C00602D4F068B3
:1035E000400703D5FFF7C2FF012070BD002070BD6A
:1035F0000020024070B51A4C1A4AE188002909D00F
:10360000002501290BD05054491C89B2E1800629BC
:103610000DD011E05A2805D11070012005E05A287C
:1036200001D0E58070BD50700220E08070BD9088B0
:10363000EC280BD808302081208900280CD081424A
:103640000AD1084801F0C2FB002802D0E58025819C
:1036500070BD02F07BF970BDF429F7D270BD000097
:10366000720100206C09002008B50146042268465A
:10367000FEF767FE00984000000EFF2801D00120F1
:1036800008BD002008BD0000F8B503F05BFD21482F
:1036900000F048F8204F214E214D002402221F49FE
:1036A0001C4800F09FFA0120387038780028FCD1BF
:1036B000012000F0D9FB00200C23024641005A43B0
:1036C000715AAB5A994200D90B46AB5252195388E2
:1036D000994200D20B4653809368401C591880B21F
:1036E00091600228E8D3641CA4B2042CD6D3002035
:1036F0000C2141430A464919AA5A8B68401C9A1A60
:103700004B8880B2D21A8A60D203120C8A800228B7
:10371000EED3F8BDD80100202C010020C00000200D
:1037200054090020F8B5054604462035287D0026BA
:10373000012808D001202875206881688907890F31
:10374000012908D101E00220F8BD0168C9073CD178
:10375000C168090439D4A16BFF22013291430222CE
:103760001143A163C1688907890F0091C168890865
:103770008900C1602068816892071143816000F070
:10378000EFFC074612E000F0EBFCC01B02280DD94D
:1037900020688068002809DAA06B02218843102184
:1037A0000843A063002028750120F8BD20688068C8
:1037B0000028E8DB2068C168009A1143C160A06B53
:1037C00080088000401CA06304E0A06B2021084317
:1037D000A0630126002028753046F8BDF8B5002505
:1037E000044620340095227D012A39D00123237517
:1037F00002689668760767D4384F4E68BE424DD04F
:10380000966A0F78BB401E4396620123C26A1B076B
:103810009A421FD0012A1DD0022A1BD0032A19D098
:10382000042A17D0052A15D0062A13D0072A11D04A
:1038300002688B6856697607760FB3420AD05369DF
:10384000DB08DB005361006842690B7A5B075B0FA2
:103850001A4342610868102804D0112802D038E0C9
:103860000220F8BD1E4B9A68102807D00120800561
:1038700002439A600868102803D02AE00120C0059E
:10388000F6E7194817490068FEF710FE0A21484379
:1038900000E0401E00900028FBD11AE0906A0E78EC
:1038A000B340984390620868102801D0112810D1C5
:1038B0000B498A68102804D00120800582438A6061
:1038C00007E00120C005F9E7816B202211438163E5
:1038D0000125002020752846F8BD000001100000D9
:1038E0000027014040420F00FC000020006803490F
:1038F000884202D10249002008707047002401402C
:103900002C01002070477047F8B504460068056830
:103910004668690701D5710703D429072ED53107F9
:103920002CD5A16BC90604D4A16B0122520211430C
:10393000A163C1680C270905890F002919D1A17E4F
:10394000002916D1290714D58168012249070029C9
:1039500008DB4168B9434160A06B11028843104302
:10396000A06306E0A06B20210843A063E06B104336
:10397000E0632046FFF7BAFF2068076028060CD5F1
:1039800030060AD5A06B012109040843A063204634
:1039900000F0D8F8216880200860E80614D5F00609
:1039A00012D5A06A1025012803D02068C068C0077E
:1039B00008D0E06B02210843E063206805602046E0
:1039C000FFF7A1FF20680560F8BD0000F8B50025ED
:1039D0000446002805D0A06B26462036002802D0D9
:1039E00007E00120F8BD0020E0633075204600F0BC
:1039F000ABF8A06B1022C006002870DB206881683D
:103A000049076CD4A16B1301994302231943A163A5
:103A100081688907890F012905D10168C9070FD17C
:103A2000C16809040CD4C16818239943A3681943D9
:103A3000C1602068016963688900890819430161D0
:103A40002068C1683D4B1940C160207E8103607EC3
:103A5000C0030143A07E43031943A36A012B02D094
:103A600001231B0300E000231943E3681943236982
:103A7000022B09D0002319433379E67E5B001943FA
:103A80000123012E02D00AE00423F4E7002827D006
:103A9000A06B20263043A063E06B1843E063E0692D
:103AA0000646FF3EC23E02D0266A304301432068EC
:103AB000C6680E43C6600126E06A3607B04213D0DE
:103AC000012811D002280FD003280DD004280BD0D4
:103AD000052809D0062807D0072805D010E028E0DF
:103AE000012000040143DAE720684669F608F60081
:103AF000466120684669A78D7F077F0F3E43466178
:103B00002068C0680E4E3040884207D10020E06334
:103B1000A06B80088000401CA06308E0A06B02211D
:103B200088431043A063E06B1843E06301252846F7
:103B3000F8BDA06B1043A063F8E700001902FEFF78
:103B4000E7FF3F837047000070B586B0054614213B
:103B50006846FEF7A9FC1F492868884237D11E49EC
:103B60008A69401502438A618A69024005924A695E
:103B7000000202434A614969002601400320009087
:103B800001900591092002966946C00600F02AFAC4
:103B90001248134C41C48020266060604000A06041
:103BA0008000E0602020666120610D48083C00F044
:103BB000FDF8002801D0FFF79BFC2C630022114682
:103BC0000C20656200F02CFB0C2000F01DFB06B001
:103BD00070BD0000002401400010024008000240B7
:103BE00018020020F7B504460068002580684007E9
:103BF0003DD426462036307D01280AD0012737756E
:103C0000607E012807D02046FEF788FE050002D01E
:103C10002EE00220FEBDA06B16490840FF210131B5
:103C20000843A0630020E0633075216B124888626E
:103C3000216B1248C862216B1148086321681C205F
:103C40000860206841681022114341602068C16803
:103C50003943C1602168206B4031029B019A00F01A
:103C6000CDF82068816804221143816000E00225BC
:103C70002846FEBDFEF1FFFF8D280008132900082D
:103C8000F928000830B5014620314A780023022A7D
:103C900004D0042282630B70012030BD02681468D6
:103CA0000E25AC4314600268146864086400146054
:103CB0000125046C2A46C06BA24042604D700B7017
:103CC000002030BD70B50024014620314A78022A18
:103CD00003D004218163012416E0026813680E25D5
:103CE000AB431360026813685B085B001360012537
:103CF000036C2A469A40C36B5A604D7000220A70CA
:103D0000416B002900D08847204670BD806B70470A
:103D1000F0B4C16B0C6801680B680422056C164690
:103D2000AE4026420DD05E070BD50B689B0602D431
:103D30000B6893430B60016C8A40C16B4A60C16A97
:103D400019E00227AF400246274001262032002F0B
:103D500015D09F0713D50B689B0604D40B680A2463
:103D6000A3430B605670036C02219940C36B5960EA
:103D700000211170816A002916D0F0BC084708277D
:103D8000AF40274210D01B070ED50B680E24A3436B
:103D90000B60036C31469940C36B59608663567063
:103DA00000211170016BE6E7F0BC704770B50400AC
:103DB0001FD00220254620356870206802680E4911
:103DC000A3680A40616826691943E36833431943CD
:103DD00063691943A3691943E369194311430160F6
:103DE0002046FFF7BBFA0020A0630121697028700C
:103DF00070BD012070BD00000FC0FFFFF8B5044684
:103E00008C46203001780025012909D00126067052
:103E100047780021012F05D0017002252846F8BD02
:103E20000220F8BD02274770A16320680168490895
:103E30004900016061462046FFF7A2FAE06A0028C7
:103E40002068016802D00E22114306E00A221143C5
:103E500001602068016804229143016020680168C4
:103E600031430160DAE7000070B5044600F078F9EC
:103E70000546601C02D004480078241800F070F950
:103E8000401BA042FAD370BDF0000020F8B50546F3
:103E900023480F46017E012601290BD0012101761E
:103EA0002868204C012807D02046FFF77BFB00281C
:103EB00013D030E00220F8BD2046FFF773FB002846
:103EC00029D1FFF71FFB2046FFF76CFB064616487B
:103ED00001690422914301611DE00020C043386064
:103EE0006C6812E02046FFF71FFB0E48FFF75AFBF5
:103EF00006460D480169022291430161002E01D05E
:103F00003C6008E0012080022418A86869688002EB
:103F10004018A042E6D80248002101763046F8BD9C
:103F2000C006002050C30000002002400348016981
:103F300080221143016100207047000000200240F0
:103F4000F0B51FB405461A480024017E16461F46E8
:103F5000012907D0012101761648FFF723FB00282D
:103F600003D021E0022005B0F0BD012D1AD0022DB2
:103F700018D0042516E0220130463946FEF722F912
:103F800081B2019862001018FFF7E0FA0948FFF7C4
:103F900009FB09490A69520852000A61002803D145
:103FA000641CE4B2AC42E6D3014900220A76DAE7A7
:103FB000C006002050C30000002002400649002037
:103FC0000A69120607D5054A4A60054A4A60096926
:103FD000090600D5012070470020024023016745F3
:103FE000AB89EFCDF8B5002294E0012797403B4024
:103FF0007ED00C79A407A40F012C01D0022C10D183
:10400000856854000326A640B543CE68A6402E43DB
:10401000866044680D79BC43ED06ED0F954025435D
:1040200045600C79E443A40708D0C5685400032612
:10403000A640B5438E68A6402E43C6600C79A407FF
:10404000A40F022C0CD1D408A40027183D6A5407F1
:10405000E40E0F26A640B5430E69A6402E433E62ED
:10406000056854000326A640B5430E79B607B60F7F
:10407000A6402E4306604C68A403A40F49D0284CE8
:10408000A56901263543A561A469950834400094CB
:10409000244CAD002F19BD689407240F0F26A640AD
:1040A000B5430926F606B04201D100260FE01E4EA8
:1040B000B04201D101260AE01C4EB04201D10226D5
:1040C00005E01B4EB04201D1032600E00526A640C4
:1040D0002E43BE60174DAC684E689C43F60200D577
:1040E0001C43AC60EC684E689C43B60202D500E00D
:1040F0000FE01C43EC606C684E689C43B60300D52F
:104100001C436C602C684E689C43F60300D51C432E
:104110002C60521C0B681C46D44000D065E7F8BDEB
:104120000010024000000140000400480008004860
:10413000000C0048000401400069084000D0012044
:104140007047426913460B401B0491430B43836144
:104150007047002A01D0816170478162704700007A
:104160000148806870470000F00000200248816824
:104170000278891881607047F000002010B5064869
:104180000168102211430160032000F007F800F0DD
:1041900027F8002010BD00000020024070B5044642
:1041A0000D4D7D202978C000FEF780F901460B48AF
:1041B0000068FEF77BF900F071F8002809D1042CA3
:1041C00007D200222146401E00F02AF800206C6031
:1041D00070BD012070BD0000F0000020FC00002038
:1041E00008B5084881690122114381618169114044
:1041F0000091C26901040A43C261C069084000908D
:1042000008BD000000100240002805DBC106C90EF1
:1042100001208840014908607047000000E100E08B
:1042200010B502F03FFF10BD044805490068496819
:10423000044A4905490F515CC8407047FC00002002
:10424000001002401478000810B5104A53680C2082
:10425000194601400E48042917D0082915D19902A2
:104260000C4C090F645CD16A0A4A0907090F103225
:10427000525CD90305D500231946FDF7B4FF21464A
:1042800001E02046044902F0E7FE10BD00100240A4
:1042900000127A00F477000800093D00094910B5C2
:1042A000401E884201D9012010BD074C60610321E6
:1042B000081F02F0F7FE0020A06107202061002007
:1042C00010BD0000FFFFFF0000E000E07047F8B500
:1042D000C16F0446054680352E6800688268102745
:1042E0001206002A1BDA212919D1EFF310810122CD
:1042F00082F31088826880239A43826081F3108859
:10430000206F002808D0FFF7BDFC002804D0206FE4
:10431000FFF7FCFC202824D0204602F0CDF92068CD
:10432000816849061BD5222E19D1EFF31081012295
:1043300082F31088826840239A43826081F3108858
:10434000606F002808D0FFF79DFC002804D0606F44
:10435000FFF7DCFC202804D0204602F07EF9002084
:10436000F8BD6F600320F8BD70470000F8B5026823
:104370000446D069116893689E4D06462E40254636
:104380008035002E71D09C4FDE07F60F0F4037436B
:104390007ED0C70706D0CF0504D5012717626A680B
:1043A0003A436A60820708D5DA0706D027680222F6
:1043B0003A626A6804273A436A60420708D5DA0716
:1043C00006D0236804221A626A6802231A436A60CC
:1043D000020709D520220A40324305D0236808226B
:1043E0001A626B6813436B60020509D54A0107D551
:1043F00001222368D2021A626A6820231A436A6083
:104400006A68002A39D0800606D5880604D5A16ED0
:10441000002901D0204688476868216889684906D4
:1044200002D4282108422DD0204602F016F9206837
:104430008168490622D5EFF31081012282F31088AA
:10444000826840239A43826081F31088606F00285D
:1044500014D06A494163606FFFF734FC00280CD028
:10446000606F416B08E000E012E0830610D58B0618
:104470000ED5A16EA3E020468847F8BD2046FFF781
:1044800073FFF8BD2046FFF76FFF00206860F8BD9E
:10449000236E012B7ED1C3067CD5CB067AD51023A3
:1044A000136220688168264649064036002948DAAA
:1044B000626F116849680904090CE8D0378B8F4294
:1044C000E5D971839169202934D0EFF3108101225D
:1044D00082F3108802681F01BA43026081F31088DA
:1044E000EFF31081012080F3108820688268520861
:1044F0005200826081F31088EFF31081012080F375
:104500001088206882684027BA43826081F310884F
:104510002020286000202066EFF31081012080F326
:104520001088206802689A43026081F31088606FE7
:10453000FFF7A8FB02206066308B718B401A81B2B6
:1045400034E0318B728B891A728B89B2002A9ED02B
:1045500000299CD0EFF31082012686F310880668AC
:10456000FF272137BE43066082F31088EFF31082E5
:10457000012080F3108820688668760876008660BF
:1045800082F310882020286000202066EFF310823C
:10459000A06600E00EE0012080F310882068056826
:1045A0009D43056082F31088022060662046FFF775
:1045B0008DFEF8BD030606D50B0604D5E16E002975
:1045C00000D058E7F8BD4006FCD54806FAD520468D
:1045D000EFF31081012383F31088146840239C4378
:1045E000146081F310882021C1670021C16600F0AA
:1045F000D7F9F8BD0F08000020010004F16400089D
:1046000010B5040003D0E06F002802D007E00120BD
:1046100010BD002178200155204600F027F8242005
:10462000E06720680168490849000160606A002865
:1046300002D0204601F094FE204602F04DF80128F9
:10464000E6D0206841680122D2029143416020688F
:10465000816808229143816020680168012211432A
:104660000160204601F0E2FE10BD0000F0B587B009
:10467000044614216846FDF717FF524B01262168B6
:1046800051487604022703220025994249D18169C5
:10469000F3101943816181691940059141693143E2
:1046A000416140690197304005905002009001201F
:1046B00004900920029503926946C006FFF792FC18
:1046C000434E4248306010208027311DA1C1356122
:1046D0007561B5613046F561FFF768FB002801D0D0
:1046E000FEF706FF266774623848394E14304436A8
:1046F00021C63560B560F56035613046776075611B
:104700000838083EFFF752FB002801D0FEF7F0FE04
:104710006667002211461B207462FFF781FD1B2093
:104720004CE02C4B99424BD1C1693143C161C16905
:104730003140059141693143416140690197304001
:1047400005900C200090012004900920029503920E
:104750006946C006FFF746FC1C481D4E3C308836B3
:1047600021C63560B560F5608027356130467760D9
:1047700075610838083EFFF719FB002801D0FEF7E5
:10478000B7FE66677462124E1048CC36283030602F
:104790001020311DA1C135617561B5613046F561EB
:1047A000FFF704FB002801D0FEF7A2FE26670022D7
:1047B00011461C207462FFF733FD1C20FFF724FD17
:1047C00007B0F0BD00380140001002401C0002405C
:1047D0006C0300200044004070B580231B58202B40
:1047E00001D0022070BD00290BD0002A09D001247D
:1047F00083682403A34206D10369002B03D1CB07AE
:1048000001D0012070BD0023036603685C682402A8
:104810000BD5EFF31084012585F310881D68012660
:10482000B60635431D6084F3108801F0EFFF70BDBC
:1048300070477047FFB50446C06F83B015460E46FB
:10484000202802D0022007B0F0BD002E0BD0002D92
:1048500009D00120A1680003814206D12069002807
:1048600003D1F00701D00120EDE7002184200151A0
:104870002120E067FFF774FC2746403701903D8216
:104880007D820120A1680003814202D120690028B5
:1048900002D03546002611E000250FE000228021DD
:1048A000204602F00BF8002815D1002D17D0216802
:1048B000287808856D1C788A401E7882788A019B4A
:1048C000002806980090E9D100224021204601F0FE
:1048D000F5FF00280AD02020E0670320B3E73088E6
:1048E0002168C005C00D0885B61CE4E72020E067FC
:1048F0000020A8E770B50446C06F202801D0022030
:1049000070BD00290BD0002A09D00123A0681B0329
:10491000984206D12069002803D1C80701D00120A0
:1049200070BD20464030E164028242820021403066
:10493000054641602120E067206F002819D0154B03
:104940008362236F1448D862236F14481863206F62
:10495000134641632068266F024628323046E16CD8
:10496000FFF74CFA002804D0102068602020E06790
:10497000D5E7216840200862EFF31081012080F321
:1049800010882068826880231A43826081F310882F
:10499000002070BD07660008516600080565000824
:1049A00000680349884202D102490020087070471C
:1049B00000440040C400002070470000F0B5344FB0
:1049C0000646387E85B0002803D0002211460A2012
:1049D00056E0092901D0032119E0304600F0AAFF72
:1049E000FF21813104468842F5D919208002844292
:1049F000F1D800F037FD05000ED068698047401CF3
:104A000004D068698047317A884207D9052105209A
:104A100000F00CFF05B0F0BD0221F8E700F068FDE2
:104A20000028D2D0684601F0D5FF6846007B1E28DA
:104A300003D200221146082022E019211548FEF772
:104A40003DFD00281FD001211348FEF737FD002847
:104A500019D002F02FFA1C210D48FDF725FD301D5D
:104A60003C6000F067FF7860307AB87501203876D6
:104A7000E8206946087400204874022204A9012035
:104A800000F0DAFEC6E7002211460920F8E7000030
:104A9000380B00200084000800F40008F8B52C4E04
:104AA0000746307E0D46012805D0022803D000229B
:104AB00011460A203FE0042D0DD9384600F03AFF98
:104AC0002D1FADB20446E82D05D83068A04202D3B0
:104AD000001BA84203D2002211460B202BE0F068F5
:104AE000A0420DD1308AA8420AD1B068002807D070
:104AF00018482A46391D2018FDF7F6FB00281DD05E
:104B0000B068A042E7D1E007E5D112482A46391D36
:104B1000201800F030FE002812D0F46035826119B0
:104B20000020B160708202203076684602F08CFA74
:104B300004226946032000F07FFEF8BDB168F4E767
:104B400000221146092000F077FE00F037FFF8BD83
:104B5000380B002000840008F8B50D4606460628EC
:104B600002D00B2A30D101E0072A2DD16878042821
:104B70002AD1A878032802D224490F5C00E0FF273D
:104B8000FF2F21D0E81CFEF76FFD00281CD0062E59
:104B900004D0E81DFEF768FD002815D018201C4938
:104BA000784344180020E082032E0FD0052E18D041
:104BB000E81C00F0B7FE2061207D04210843207529
:104BC000C0B2072818D01FE00020F8BDE81C00F094
:104BD000A9FE2060E81D00F0A5FE6060207D012197
:104BE000ECE7E81C00F09EFEA060E81D00F09AFED5
:104BF000E060207D0221E1E72146384601F0AEFF6A
:104C000018212046FDF750FC0120F8BD4879000826
:104C1000A00A002010B50346002924D0294A18789C
:104C20005469641C546114462034A07304282ED0A7
:104C300006DC012818D0022821D0032813D132E045
:104C4000052830D006282ED0FF280CD102290AD101
:104C50005878012830D0002805D1508B401C508353
:104C6000002000F09DFF10BD0229FCD158780128DA
:104C700001D00028F7D1012101F098FF19E00129A6
:104C8000F1D101F031FF10490520087010BD012954
:104C9000FCD101F079FEFEF737FA002000F080FF2A
:104CA00001F032FF10BD0A461946FFF755FF0028F4
:104CB000F8D001F019FF10BD108B401C10830120AB
:104CC000CFE70000E80A002089010020F8B5384C41
:104CD000227E022A01D1042905D0002211460A2091
:104CE00000F0AAFDF8BD00F025FE2268A1689142FF
:104CF0000CD16168814209D12E4D00202946C04364
:104D0000FEF7F0FA6168C043884201D0012141E01A
:104D10002068294A01468018FF39284A813900262F
:104D2000904236D205CD264B264FC318083DBB42D4
:104D30002FD280072DD15008234A4000904204D33F
:104D40008918884201D2012000E00020002820D0EC
:104D500000F088FB002821D0226803691146FF3942
:104D60008139284698470006000EE07516D002F0FB
:104D700009F9002814D000221146042000F05CFD3F
:104D800000221146062000F057FD03202076A6825F
:104D9000F8BDFF21052000F049FD06E00221F9E7FA
:104DA00000221146092000F047FD00F007FEF8BD83
:104DB000380B002000840008C0FDFFFFC161000027
:104DC00040FFFFDF311F000000200008F8B5044657
:104DD00040792279050215436019C279807916025B
:104DE00006431748A2780273E27842730746203FD1
:104DF0007D852846083080B2884203D03869401C3F
:104E0000386109E0281D81B2A01C00F051FB8642E8
:104E100004D0F868401CF8600020F8BDB868401C59
:104E2000B860A078012805D02A46A11D00F0DEFB5D
:104E30000120F8BD2946A01DFFF7ECFEF8E70000B1
:104E4000080B0020FEE7000009480A4A0168914269
:104E50000BD18188012908D1C188202905D1808BF7
:104E60000549884201D101207047002070470000A9
:104E700000F400083141544F5AA5000010B5134BFF
:104E80000A20185E124CA04218D01E3016D0002105
:104E90000C20185EA04213D01E3011D000220E202C
:104EA000185EA0420ED01E300CD0002000290BD07E
:104EB000002A09D0002807D0012010BD0121E7E712
:104EC0000122ECE70120F1E7002010BD180B0020C3
:104ED000E70300000449884203D01E3001D00020BF
:104EE0007047012070470000E703000010B5034938
:104EF0000520087001F0F8FD10BD000089010020B8
:104F000010B50B49087800280ED005280BD0FFF704
:104F1000B5FF002803D001F0E1FD002801D001F029
:104F200019FD01F0E1FD10BD02200870F9E7000055
:104F30008901002010B5FFF7D9FF10BD10B5054855
:104F40000078002805D0052803D001F0E7FD01F026
:104F5000CBFD10BD8901002010B510480078002855
:104F600015D0052813D0FFF789FF002803D101F0E1
:104F700025FD032803D101F0B1FD002805D0084824
:104F80000078012804D0012003E001F0ADFD10BD40
:104F90000020012101F00AFEF7E70000890100204E
:104FA000180B002010B507480078002809D0052804
:104FB00007D001F0FDFC022803D101F0A5FD01F0AE
:104FC00093FD10BD89010020FFB50024124D81B072
:104FD0001F462646285D012804D002280FD003284A
:104FE00007D112E0002C01D0029811E001980FE0E7
:104FF0002E55641CE4B2022CECD305B0F0BD002C9D
:1050000001D0B847F4E7039802E0002C02D00B98D7
:105010008047EDE70A98FBE724010020F8B53D4CF6
:1050200020212046FFF788F86946087010212046A5
:10503000FFF782F8384F6946002448703E1F6846E3
:10504000005D00280BD0344A6000921C115A891E62
:10505000622951D2111F095D00294BD04CE02E4925
:105060006500891C485B401C80B24853002C08D165
:105070000A88012A05D1294A1278002A06D000227E
:105080007270264A1378234302D003E00122F7E727
:10509000022808D064280FD07D21C900884220D181
:1050A000012C1CD01DE01C49891E085D00282CD154
:1050B00001203855085528E0002C02D170780028CE
:1050C00001D10220385530787178204308431CD133
:1050D0000520107001F008FD0120307001E0032070
:1050E00078700D497D20891C4A5BC00082420CD932
:1050F00048530AE001213955002111520648801E0B
:105100000155002C01D131707170641CE4B2022C85
:1051100095D3F8BD00040048240100208901002037
:105120003EB500241B491C4800940194029412C00F
:1051300004600125856008214460C16004744474E2
:105140008574C474FF21C231846141610146183104
:105150000D7105620838FEF739FC002801D0FEF712
:10516000C7F90120000301900720029000946946CE
:105170000948FEF733FB002801D0FEF7B9F969466C
:1051800005480095FEF72AFB002801D0FEF7B0F98C
:105190003EBD000000240140D801002008B51048A1
:1051A0004169012211434161406910400022009091
:1051B00011460920FFF734F80920FFF725F80022EF
:1051C00011460A20FFF72CF80A20FFF71DF80022ED
:1051D00011460B20FFF724F80B20FFF715F808BD48
:1051E00000100240F0B587B014216846FDF75CF965
:1051F0002E4842690121C9040A43426142690A40BA
:1052000005924269C9000A43426142690A40059217
:10521000426949110A43426142690A400592426962
:1052200049000A4342614069214F08404C110590F2
:10523000002221463846FEF78CFF61210022090238
:105240001C48FEF786FF012208211A48FEF781FF5D
:105250000326F602092000223146C006FEF779FF38
:105260000094002401250195029469463846039470
:10527000FEF7B8FE10480090029469460195039429
:105280000C48FEF7AFFE092002946946C00600965E
:1052900001950394FEF7A6FE302000900194694624
:1052A00002940448FEF79EFE07B0F0BD00100240D5
:1052B00000080048000400480861000010B50C48D0
:1052C0000A490160E1214902416000218160C16019
:1052D00001618161C1610C22016242614162FFF79B
:1052E0008FF9002801D0FEF703F910BD0038014006
:1052F0005C02002010B50C480A4901604B21C9012D
:10530000416000218160C16001618161C1610C2245
:10531000016242614162FFF773F9002801D0FEF794
:10532000E7F810BD00440040E4020020FEB5012172
:1053300049033C48FEF705FF3B4E35783B493C4866
:10534000019100903B4B3C4A3C493D48FFF73CFEF5
:10535000307B052801D3012200E00022717B394F08
:105360000024002915D0052913D0002D08D0F07A8B
:10537000002810D1002A0ED00220387074610AE093
:10538000F27A002A10D03A78022A0DD13C7074616A
:105390000AE0002D08D03473F572B07A2A4D8142AC
:1053A0001CD0022905D00BE0FF28F5D2401C307339
:1053B000F2E7012208212846FEF7CBFE3C7074611B
:1053C000707B052808D1F4703471FDF717FC0022BA
:1053D00008212846FEF7BDFE707BB072FDF744FC45
:1053E00001F042FC707B00280CD005280AD0174938
:1053F0007069884201D2401C7061884211D3052037
:10540000707302E0746105280BD120212846FEF755
:1054100093FE002805D0002208212846FEF799FEB9
:105420007473FEBD000800487C010020A54F0008F1
:10543000354F00083D4F0008ED4E0008594F000859
:10544000014F00082A01002000040048A08C000041
:1054500003888B4204D14088904201D101207047DB
:105460000020704710B50F480F4C0368026941696E
:10547000A34215D18388012B12D1C3883C2B0FD1B5
:10548000037A9B070CD0D3070AD0084CA24207D35B
:10549000824205D2CA0703D0A14201D3814200D380
:1054A000002010BDC01F00084D41504901000008F8
:1054B00070B505460B4800230B4C10E0EA5C120265
:1054C00050400022060402D54000604000E0400049
:1054D000521CD2B280B2082AF4D35B1C9BB28B421E
:1054E000ECD370BDFFFF000021100000FEE70000BC
:1054F00010B5FFF7A9FC002805D0044A0449054867
:10550000FFF7A6FF10BD012010BD0000B03F000056
:105510004FC0000024F4000870B500F03BF80028EC
:105520002DD0174CFEF74AFD002828D12088154DB4
:10553000154EA84207D02A46002321460120FEF737
:10554000FFFC002809D160883246904205D00C4902
:105550000023891C0120FEF7F3FCFEF7E7FC32462E
:1055600029462046FFF774FF002808D0BFF34F8F6D
:1055700007490648C860BFF34F8F00BFFDE770BD05
:1055800024F400084FC00000B03F00000400FA05FA
:1055900000ED00E010B5FFF757FC00280FD0094AD6
:1055A00009490A48FFF754FF002808D00748084A6D
:1055B0000849001DFFF74CFF002801D0002010BD56
:1055C000012010BD5E8E0000A171000020F40008D3
:1055D000B03F00004FC0000010B50348007E032814
:1055E00001D000F0EBF910BD380B002010B50B46D0
:1055F000102807D011280AD012280DD0132810D057
:10560000002010BD11461846FFF7D8F911E01146E9
:105610001846FFF743FA0CE011461846FFF756FB11
:1056200007E0002A07D0FF21072000F0FFF800F074
:10563000C5F9012010BD0020FDF7B8F9F9E7000019
:1056400010B51C210148FCF72FFF10BD380B0020BE
:105650000248007E002800D001207047380B00204F
:1056600010B51449087E012818D0022816D0032846
:105670001ED1888A192804D2401C80B28882192839
:1056800016D301F03DFC002812D0BFF34F8F0B4919
:105690000948C860BFF34F8F00BFFDE7488A401C30
:1056A00080B248820649884202D30420FDF77EF981
:1056B00010BD0000380B00200400FA0500ED00E0EA
:1056C000B80B0000F8B506462448864201D22448AB
:1056D000F8BD2448864201D92348F8BD0020692539
:1056E0003424224F0AE06100795AB14201D925469B
:1056F00002E0B1422BD2204629184C08291A012970
:10570000F1D1810044184000385A193CFDF780F867
:1057100000906800385AFDF77BF805462046FDF7F3
:105720006FF804462846009901F0FCFF0546304614
:10573000FDF76EF8009901F0F5FF0D4901F09AFFB1
:105740002946FCF763FF214601F04EFFF8BDA0009B
:1057500020181938FDF754F8F8BD00003C2300006C
:105760000000C8C1C26D00000000FA437478000850
:105770000000A0407047F8B5074615460E46C00722
:1057800029D1FEF71BFC002825D1002418E0601C5D
:10579000325D80B2A84204D2301940780002024340
:1057A00002E0FF2000020243391900230120FEF726
:1057B000C7FB002802D0FEF7B9FB0CE0A41CA4B282
:1057C000AC42E4D3FEF7B2FB2A4631463846FCF73A
:1057D0008BFD002801D00020F8BD0120F8BD00009D
:1057E00070B50D460146142D03D80E4C6079032880
:1057F00001D3002070BD2079152250430A4E2A465D
:105800008019FCF79EFD20791521414389190D75FA
:105810000321401CFCF74AFE21716079401C607135
:10582000012070BD72010020600A002013B5012222
:1058300001A900F001F81CBD1CB514006A461070E7
:1058400006D0002904D000A822460130FCF779FDDB
:10585000641CE2B26946902001F062FB1CBD0000AE
:10586000F0B589B005A801F0B5F85A20694608706E
:1058700048708120284F88707878C8700C20087193
:10588000002048710D7FC97F2807000F012901D131
:10589000102108436A469071547F00216846012216
:1058A0008A40D2B205AB144202D07D2212010BE035
:1058B000867F164201D0194A06E0154202D17D22A8
:1058C000520101E04A009A5E4B001B18DA71120A7D
:1058D000491CC9B21A720429E1D308AA1178C1730C
:1058E00067210174517841741021801CFFF7E0FD9D
:1058F0006A469074000AD07414216846FFF770FF5E
:10590000002806D078780649401C7870086A401C48
:10591000086209B0F0BD000072010020B80B000061
:10592000E80A002008B5014604226846FCF709FD94
:10593000009808BD8178C2780904120611434278A4
:1059400003781002184308437047000070B51A4DE1
:1059500001200026174CEA8807E0235C5A2B03D16C
:1059600023185B785A2B05D088B2411C8BB2934226
:10597000F3D319E0111A8AB22118EA800D48FCF716
:1059800044FD2E81E988062910D3A088EC280ED882
:1059900008300004000C288108D0814206D1054857
:1059A000FFF714FA002801D0EE802E8170BDEE8042
:1059B00070BD00006C0900207201002010B51C2190
:1059C0000148FCF771FD10BD380B002030B50546CD
:1059D00000200D4B03E0401C80B2082804D20C24A8
:1059E00044431C59002CF6D1082808D00C24444309
:1059F0001D51E3189980DA800021197230BD0349E6
:105A000001200870082030BDE006002000010020C1
:105A100010B502220B4C082802D32270012010BDC1
:105A20000C21094B41435858002807D00020002280
:105A30005A50C9188A80CA800A7210BD227001208B
:105A4000F5E7000000010020E006002070B50D4ED3
:105A5000002420460C2148438519297A00290AD0C0
:105A600030588047287A401E2872E888002802D1E2
:105A70002046FFF7CDFF641CA4B2082CE9D300F048
:105A800003F870BDE00600200B49002208784B782F
:105A9000984207D04870002802D0084848807047D4
:105AA0004A80704748880028FBD0401E0004000C44
:105AB0004880F6D10A7070470001002060EA0000BB
:105AC0000C4B002108460C2250431A58002A0CD0D7
:105AD000C0188288002A01D0521E05E0027A521CAA
:105AE0000272C288002A00D08280491C89B208292B
:105AF000E8D37047E0060020012110B54903054BAB
:105B0000002801D0012200E000221846FEF721FB08
:105B100010BD000000040048012110B58903054BA9
:105B2000002801D0012200E000221846FEF711FBF8
:105B300010BD000000040048704710B5FDF7CEF915
:105B4000FDF72EF9FDF704F910BD000010B5114C5A
:105B5000607900281CD01048C06F202818D1E07848
:105B6000152148430D4941180A7D0B48FEF7C2FE36
:105B700000280DD1E0780321401CFCF797FCE17070
:105B80006079401E607105488830416A491C416255
:105B900010BD0000720100205C020020600A00209D
:105BA00070B5002801D0012400E000240B4D2878B6
:105BB000A04212D02C70204600F0C0FF0848C473E9
:105BC0000026AE70002C08D1FDF79EFAEE702E7103
:105BD0006E71EE802E81FFF7FFFC70BD7201002018
:105BE000080B0020F8B58907890F8B001D4A009328
:105BF0000F019679D579147A030001F045FA090668
:105C00000B10151A1F24292E0A00B0088000084323
:105C10009071F8BDF32006400098064302E0CF20C3
:105C200006403E439671F8BDA80880000843D07135
:105C3000F8BDF32005400098054302E0CF20054061
:105C40003D43D571F8BDA008800008431072F8BD2F
:105C5000F32004400098044302E0CF2004403C437A
:105C60001472F8BDD407002010B5134B40061C7801
:105C7000400EE409E40104431C705C78E409E4018B
:105C800004435C709878C4094806E401400E04435C
:105C90009C70D978C909C9010143D9701879C10923
:105CA0005006C901400E014319715979C909C9014A
:105CB0000143597110BD0000D4070020F0B5334DE9
:105CC0000446287887B0C009C00104906878C009EC
:105CD000C0010390A878C009C0010090E878C0090D
:105CE000C00102902879C7096879FF01C609F60149
:105CF000002C1ADA604284B2632C00D96324642138
:105D00002046FCF7D3FB08460A21FCF7CFFB0190A5
:105D10000A212046FCF7CAFB04981D4A403028702F
:105D2000039840306870009B1EE01A48844200DDF2
:105D30000446A0B26421FCF7B9FBC0B20590084646
:105D40000A21FCF7B3FB0190A0B20A21FCF7AEFBDD
:105D50000F4A0598049B105C4006400E03432B70CD
:105D6000039B03436B70009B0198105C4006400E40
:105D70000343AB70029B0343EB70505C4006400E44
:105D800007432F7106436E7107B0F0BDD4070020A2
:105D90001C780008E703000070B5012208211648AE
:105DA000FEF7D7F9012109200022C902C006FEF73B
:105DB000D0F9124C00252572E57025716571A57129
:105DC000E571022060730E4E01203070FDF7C2F9BC
:105DD0006582032060720B49002042009219401C2A
:105DE000C0B251810928F8D307480570FF20F5306B
:105DF000FEF73AF870BD0000000400487C01002066
:105E0000180B0020E70300002A01002010B5FEF760
:105E1000ADF9FFF755FE10BD70B53A4B1868012477
:105E200020431860250428461968890702D4401EBB
:105E3000FAD164E0002862D0586880088000586079
:105E40002A4658680007800F02D0521EF9D156E04A
:105E5000002A54D0586BF8218843812108435863A5
:105E60002A462946586B800702D4491EFAD146E0DB
:105E7000002944D01868012109068843186010469B
:105E80001D68AD0102D5401EFAD138E0002836D099
:105E900058681D4D28400525ED0440195860D86A02
:105EA00000090001D8621948056825430560186893
:105EB0000843186011461868800102D4491EFAD1BF
:105EC0001DE000291BD0586880088000801C5860A5
:105ED000104659680907890F022902D0401EF8D1DF
:105EE0000DE000280BD0186B80088000186309496A
:105EF000074808600320FEF751F9002801D0FDF79C
:105F0000F7FA70BD001002400CF8C2FF00200240FA
:105F1000006CDC02FC000020094841690122920467
:105F20001143416140690748082282610168C0232A
:105F300099434031016041689143416070470000DE
:105F4000001002400004004810B5084909780129F2
:105F50000BD0C100401802D40521801C01E00521AE
:105F6000801EFCF7ADFA203000B210BD180B0020E7
:105F7000F8B501F0EBFAC548C54E8078002827D067
:105F8000C24F002440376500795F204601F016F9C2
:105F90000146204601F034FAB04212D001461E31CB
:105FA0000FD0BB49491E88420BD0491E884208D0F9
:105FB000002801DA002004E0FF21F531884200DDED
:105FC0000846B449641C6918E4B24881032CDAD34A
:105FD000FDF75AFB002000F069F9B0420FD0AC4940
:105FE000491E88420BD0491E884208D0002806DB93
:105FF00082B20A21A84800F095F907B200E00746EE
:1060000001250024B7422BD0A148401E874227D04B
:10601000401E874224D0002F22DBE92080008742E7
:106020001EDA9A4A907A002817D0108B9B49884232
:1060300013D339467831814202DB303981420CDAA0
:10604000D17AFF2901D2491CD172C9B2032901D2E8
:1060500007B205E0D472178302E0D47217839572F9
:106060000120FCF795FD00F0D9FD8D48B7421CD109
:1060700086494C730A7BFF2A01D2521C0A730278AC
:10608000002A02D00A7B032A0ED3047085480470CC
:1060900085480470CC700C714C718C71CC710C7291
:1060A0004C728C72CC720C73F8BD784E34730178DC
:1060B000002907D1717BFF2901D2491C7173C9B234
:1060C0000229F1D372497473491E8F4203D0E9212A
:1060D00089008F4215DD7179FF2901D2491C717148
:1060E000C9B203290ED3357105706E4805706E482C
:1060F0000470F470B471F4713472FF207472F5306E
:10610000C0E0747105706248801E874211D1307AF8
:10611000FF2801D2401C3072C0B20328C4D36148AA
:10612000F571047060480570F47034717471B47165
:1061300031E0203FB800347238180921FCF7C0F96B
:10614000317900B200291DD0FF22F532904205DDE1
:106150005448057054480470B4710BE0B179FF29BC
:1061600001D2491CB171C9B2022906D24D4805704D
:106170004D48047047480282F8BD34717471B4719F
:10618000B472F472F17900291BD0002805DA454871
:1061900004704548057074720BE0717AFF2901D2D2
:1061A000491C7172C9B2022906D23E4804703E48A9
:1061B000057038480482F8BDF47134727472B47298
:1061C000F4723249C978002909D0304A1621515E4B
:1061D0008C46411A0AB2002A05DB114605E02B491C
:1061E000C882CD702AE0514209B2022903DC0121A4
:1061F000072608230EE0082903DC03210E460423AA
:1062000008E0142903DC08210126022302E01421FE
:10621000002601238A4202DD6046401804E04F4216
:10622000BA4202DA6046401A00B261467143081869
:10623000164F1946FCF744F900B2F882FF23F533F4
:106240001249984213DD4A79FF2A04D2521CD2B275
:106250004A71032A0ED30D7112488C7105701248D1
:106260000470CC710C720B484C720382F8BD4C71F7
:106270000C490C700549002801DA0D7202E00C721D
:1062800009490C7003490882F8BD00002C01002068
:10629000E7030000180B00201408002096020000FD
:1062A0007C0100207D0100207E0100200C2148435C
:1062B000154910B5401880881449884201D91448FE
:1062C00010BD01210903134A091A5043FCF7EEF8E7
:1062D00009218902884202D20D48801E10BD0E4954
:1062E000884202D90A48401E10BD80B2FFF7EAF981
:1062F000FCF73CFA00B2C10040180521FCF7E0F8B9
:10630000203000B210BD0000540900208B0E0000A8
:10631000E7030000204E0000C26D000010B5FEF73C
:10632000FFFE10BD70B50D4E0546307C0C46401C7E
:10633000C1B23174A14204D8480040194038C28724
:1063400006E0601C307421462846FCF737FB2146E6
:106350002846FCF705FC708480B270BD2C0100203B
:1063600010B5818C090707D501684A680123DB0352
:106370009A43436B1A434A60818CC90707D001686E
:106380004A6801235B049A43836A1A434A60818CFA
:10639000890707D501684A6801231B049A43C36A29
:1063A0001A434A60818C490707D501684A6801236E
:1063B0009B049A43036B1A434A60818CC90607D534
:1063C00001688A6801231B039A43836B1A438A601E
:1063D000818C890607D501688A6801235B039A438B
:1063E000C36B1A438A60818C490612D501684B68D9
:1063F00001221205046C934323434B60016C9142CC
:1064000007D101684A6803235B059A43436C1A432A
:106410004A60818C090607D501684A680123DB04BC
:10642000806C9A4302434A6010BD0000FEB50646E8
:106430000027803604467760FDF792FE01902068C1
:106440000068254600076035002819DA27480090C3
:106450000121002249052046019B00F02FFA002867
:106460000ED0EFF31081012080F3108820680268BD
:1064700080239A43026081F310882020E06729E09E
:1064800020680068400728D51848009001210022A4
:1064900089052046019B00F011FA00281DD0EFF37A
:1064A0001081012080F3108820680268FF232133C7
:1064B0009A43026081F31088EFF31081012080F38A
:1064C00010882068826852085200826081F3108828
:1064D000202030602F760320FEBD2020E067306052
:1064E000276667662F760020FEBD0000FFFFFF01D4
:1064F00010B5406A0022014640314A834A82FDF7C6
:1065000033FF10BDF8B5446AE06F254680352E682C
:106510002168896800270906002906DA212804D1A4
:1065200052200753204600F0C7F8206880684006D4
:1065300006D5222E04D15A200753204600F08DF8AC
:1065400068681021084368602046FDF70DFFF8BD1C
:1065500070B501468969406A0023202937D05A2145
:106560000B52EFF31082012181F3108801680C684F
:10657000FF250135AC430C6082F31088EFF31082E5
:10658000012181F3108801688C68640864008C60C4
:1065900082F31088EFF31082012181F310880168E3
:1065A0008C684025AC438C6082F3108820228021C7
:1065B0000A50016E01290AD1EFF3108281F310888D
:1065C00001680C681025AC430C6082F310884366A8
:1065D000016E012902D0FEF72BF970BD5821095A2E
:1065E000FDF774FE70BD10B5406A01214166016E71
:1065F000012902D0FEF71DF910BD5821095A49089A
:10660000FDF764FE10BD10B501468969406A202976
:106610001BD0002252210A52EFF31082012181F394
:10662000108801688B688024A3438B6082F31088F4
:10663000EFF31081012282F3108800680268402382
:106640001A43026081F3108810BDFEF7A9F910BD4E
:1066500010B5406AFEF7B0F910BD10B5EFF3108227
:10666000012181F3108801680B68FF242134A343C2
:106670000B6082F31088EFF31082012181F3108800
:1066800001688B685B085B008B6082F31088016E89
:1066900001290AD1EFF3108281F3108801680B6899
:1066A0001024A3430B6082F31088202280210A501B
:1066B00000210166816610BD10B5EFF31082012143
:1066C00081F3108801680B68C024A3430B6082F338
:1066D00010882021C16710BD70B50446816800692B
:1066E000E2690143606900251043014320680268A4
:1066F000404B1A400A43026020684168032212039B
:106700009143E26811434160216AA0690143206816
:1067100082680B231B029A430A4382603649206831
:10672000884210D13548006B8007800F11D00128B6
:1067300005D0022805D003280AD1022009E0042050
:1067400007E0082005E02E49884201D1002000E042
:1067500010200122E369D2032A492B4E934224D10F
:10676000002806D0022807D0042807D0082837D1EF
:1067700008E0FDF759FD03E00A4603E0FDF764FD7C
:10678000020032D0616850004A088018FBF78EFE84
:1067900001461039B14223D81B49491C014000076A
:1067A000420F20680A43C2601FE0002806D002287A
:1067B00007D0042807D0082812D108E0FDF734FDDF
:1067C00003E00A4603E0FDF73FFD02000DD06168DB
:1067D00048088018FBF76AFE01461039B14201D91A
:1067E000012502E0216880B2C8600020A066E06652
:1067F000284670BDF369FFFF0038014000100240D9
:106800000044004000127A00EFFF000070B504461B
:106810004165403000212546028380356960222091
:106820002860606F002819D0214B8362636F214874
:10683000D862636F20481863606F13464163666DCA
:10684000216832462431606FFDF7D8FA002805D060
:106850001020686020202860012070BD2069002879
:106860000CD0EFF31081012080F3108820680268BB
:10687000FF2301331A43026081F31088EFF3108184
:10688000012080F31088206883680122134383600D
:1068900081F31088EFF3108182F3108820688268FA
:1068A00040231A43826081F31088002070BD0000ED
:1068B00051650008E765000805650008FFB5044656
:1068C00081B080300A9E27460D466037009034E044
:1068D000701C32D0FDF744FC0499401AB04219D81C
:1068E000002E17D020680168490726D5802D24D0B6
:1068F000402D22D0C169C94309070DD4082505627E
:106900002046FFF7AAFE0098456000203876012057
:1069100005B0F0BD0320FBE7C069C04300050CD4FF
:1069200001202168C00208622046FFF796FE009809
:106930002021416000203876ECE72068C1692846B4
:10694000884305D0002003998842C1D00020DFE7AA
:106950000120F8E70A4A107802280DD0012807D054
:10696000002807D007490878002805D0022004E055
:10697000002002E0032000E00120107070470000BA
:106980002A0100207C01002010B504490120087074
:10699000FCF73EFC02490020486110BD180B0020A6
:1069A0007C01002001480079704700007C01002034
:1069B0000148C078704700007C0100200148407AFF
:1069C000704700007C01002001491220085E7047DA
:1069D0007C010020F8B504006ED00E21FBF762FDAB
:1069E000364F00253878E07201263548405D410079
:1069F000CA190A21515E334A91420ED00A461E320C
:106A00000BD0FBF7F1FF2F49491E884208D1617A6C
:106A10003046A8400143617213E00220607310E029
:106A20002849891E884205D1A17A3046A8400143F1
:106A3000A17206E069006052217A3046A840014305
:106A400021726D1CEDB2032DCFD31F4908780028A9
:106A500007D04A780820002A06D0617A0143617283
:106A60000EE0022060730BE08978002903D0A17A40
:106A70000143A17204E0398AE180217A0143217245
:106A8000124801880F4A6532914201D800200DE07A
:106A900001880F4A914201D3642007E000880D4924
:106AA0004018642148438900FBF700FD20730A4821
:106AB0000078002800D06673F8BD0000180B002095
:106AC0004B790008E70300007C0100204001002012
:106AD000DC050000B4FBFFFF2D0100200148007819
:106AE000704700007C010020014900204861704788
:106AF0007C01002010B5034901204871FCF796F88D
:106B000010BD00007C01002010B5034901208871F0
:106B1000FCF774F810BD00007C01002010B5064998
:106B2000C878097A014304D0022801D0FFF7ECFFAE
:106B300010BDFFF7DFFF10BD7C01002000220649D9
:106B4000002806D0C879002800D14A610120C87108
:106B50007047CA71704700007C01002030B585B0D5
:106B600003281ED200291CD00F4B1424002260439E
:106B70006D46C418900023582B50521C0B58D2B2AB
:106B80002350052AF6D3FCF743FB002802D001204E
:106B900005B030BD8100401C6A58C0B26250052863
:106BA000F8D30020F4E700009C01002070B5012814
:106BB00003D0002801D0002070BD074D2C788442FE
:106BC00006D02870002903D0FCF722FB002801D052
:106BD000012070BD2C70EEE7180B002010B5044AA0
:106BE0000449054800F080FA0348FDF7BFFB10BDDB
:106BF000C8000020B00300205C02002010B5044A49
:106C00000449054800F070FA0348FDF7AFFB10BDDA
:106C1000DC000020F4030020E402002010498882F8
:106C2000104B002298420BD2487C142801D2401C01
:106C30004874C0B28A74142801D301204870704788
:106C40004B231B019842FAD3887C142801D2401CA4
:106C50008874C0B24A741428F1D34A707047000097
:106C60002C0100204C04000070B53B4C00263B4D2D
:106C700066720A20285EFEF72DF900280DD00C2040
:106C8000285EFEF727F9002807D00E20285EFEF7C1
:106C900021F9002801D0012000E000200322022178
:106CA0002F4B00280AD02078002801D0197002E06C
:106CB000187802280ED1207800280BD018780028E8
:106CC0001AD001280AD0022831D0032825D00A2062
:106CD000285E0DE0627266821E7070BD0C26AE5F8B
:106CE0003046FBF71FFF0028F7D1314601200BE0AB
:106CF000FFF72AF9608270BD0A26AE5F3046FBF7C7
:106D000011FF0028F7D13146FBF76EFE0546FBF771
:106D100009FF0028EFD12846EAE70E26AE5F30468D
:106D2000FBF700FF0028E6D131460220ECE720788F
:106D3000002806D06078002805D0012060726682A5
:106D400070BD6272FBE7A078002801D06172F6E79F
:106D50001020285ECCE700007C010020180B0020EA
:106D60002A01002070B5184900250A781749022A1F
:106D7000097815D001291BD0154A118881420AD8FB
:106D800000214B00D35A834201D84B1CDDB2491C71
:106D9000C9B20929F5D30024A5420CD903210BE07F
:106DA000012902D00A4A2432E7E7094A1232E4E70D
:106DB000074A123AE1E700212046FEF713FF641C60
:106DC000E4B2092CE8D370BD2A010020180B002082
:106DD0003E780008F8B569463248FCF740F90646A7
:106DE00068460088304D00282ED030490A68521C71
:106DF0000A604A6812184A600885EA88002A09D1A0
:106E0000022807D13078FF2804D17078012803D0F8
:106E1000002806D0002410E0888B401C88830120C5
:106E200003E0C88B401CC8830020FEF7B9FE08E0D1
:106E3000305DFCF7DFFB641CA4B268460088844226
:106E4000F6D31848FCF724F9184E0024184F483E92
:106E5000182060438019017D002908D0C18A491C8F
:106E600089B2C182B94202D31821FBF71DFB641C11
:106E7000E4B2032CECD3FEF7F3FB287800280DD006
:106E8000FEF7E6FB002809D1A878401CC0B2A87024
:106E9000322803D30020A870FEF7E2FCFEF756FE6E
:106EA000F8BD0000C800002072010020E80A0020A0
:106EB000B80B000002480021C17001714171704798
:106EC0007201002010B50B480024C48004810470B6
:106ED00044708470C4700471447130210648FBF71B
:106EE000E3FAFCF711F9FEF7ABFB04488473448125
:106EF00010BD000072010020E80A0020C800002038
:106F000005484079002803D10448C06F202801D0EB
:106F10000020704701207047720100205C020020B1
:106F200070B586B014460C2A02D9002006B070BD98
:106F30006B465A221A705A70114D98706878D87042
:106F400000201C7158711E46002C05D0002903D06A
:106F50002246981DFBF7F5F9211DB01CFEF7A8FA93
:106F600031198871000AC8710834E1B26846FEF729
:106F700037FC0028DAD06878401C68700120D5E71B
:106F800072010020F0B589B06D46FF22202128460D
:106F9000FBF763FA27480090012168468180202191
:106FA000C1802549254C08680290FF38813803903C
:106FB000486804908A7D68460275C97D4175C4821F
:106FC000002018226946C043FCF78CF9C0430690A4
:106FD0001B4F684687831B4EC48301213046FCF754
:106FE0006DFA002804D0FCF7E9FF002802D0002049
:106FF00009B0F0BD0024600840002A5A0023A119FE
:107000000120FCF79DFF00280CD1A41CA4B21C2C6D
:10701000F1D30C493A4600231C310120FCF790FFC4
:10702000002802D0FCF782FFE1E7FCF77FFF012098
:10703000DEE700003141544F380B0020FFFF000015
:107040005AA5000000F4000801700A0A42700A0CF8
:107050008270090EC1707047F8B5040C8BB22646D9
:1070600082B25E430D0C1046370C5843360480192B
:107070000021794116466E43370C36048019794158
:1070800026466E438919F8BD30B47446641E2578CF
:10709000641CAB4200D21D46635D5B00E31830BC4C
:1070A000184700008307FF22DB0E9A408907090E6C
:1070B0009940002808DB830809489B0018180368DA
:1070C00093430B43036070470007000F08388308A1
:1070D00004489B001818C36993430B43C36170476E
:1070E00000E400E000ED00E070B5064600681446DC
:1070F000C269D243D2061AD41022026208684568D7
:107100003046FDF7E4F82089A84209D3401B01046A
:10711000090C05D0A07B00280AD02069401C206102
:107120000020A081228930462168FDF755FB70BD03
:1071300005CC083C226060606181BFF35F8F012055
:10714000A073EDE770B50020094B0A4C0A4D0246CA
:107150000C26014671435A52C9184C808A808A60B5
:107160004100401CC0B26A520228F1D370BD000039
:1071700054090020FF0F0000C000002010B50D488A
:10718000006801681024214301600B4802890168EE
:107190000848FDF721FB0748883000680168214353
:1071A0000160054814300289016802488830FDF703
:1071B00013FB10BD5C020020C8000020F0B50328BE
:1071C00074D23C4E3A4F35460F35F31C0022EC1E6C
:1071D000B9420CD00F461E3709D0365C002E21D0A4
:1071E000334E761EB1420CD1D91C0A5413E03254EE
:1071F0001A54304B9B1D1A54DB1C1A5422542A5427
:1072000054E02C4EB61D375CFF2F01D27F1C375443
:10721000FFB2022F02D22648401EF0BD254F3A543D
:107220001A543254234F09373E5C002E13D0204E9F
:10723000B61EB14201D12A5407E02E5CFF2E01D2C6
:10724000761C2E54F6B2022E02D21948801EF0BDD2
:107250003A5422542A54164E761EB14211D1225469
:10726000195CFF2901D2491C1954C9B2032905D35D
:10727000104B01211954991D0A5412E0FF20F530DA
:10728000F0BD0B4E1A54B61EB1420ED1215CFF293F
:1072900001D2491C2154C9B2032904D30121395414
:1072A0002A543046F0BD0020F0BD22540846F0BDFF
:1072B000E7030000500100202E484169012292049A
:1072C000114341612C49082088612D4C2B482063D3
:1072D000FCF754FF2948401C2063FEF79DFD27481A
:1072E000801C2063FDF77EFFFDF758FFFDF718FFB8
:1072F000FDF7E4FFFDF7FEFF2048C01C2063FEF70A
:107300004BFD1E48001D2063FEF744F9002801D004
:10731000FFF7F0FBFFF702F8FEF70FFC1748401DE0
:107320002063FFF72BFFFFF7CDFD0A220021154850
:10733000FEF74CFB0A2200211348FEF747FBFF2211
:10734000F53200211148FEF741FB6422002110486C
:10735000FEF73CFB142200210E48FEF737FB00220B
:107360000D490E48FEF732FB044DAD1D2563FEF7B7
:107370006DFBFBE70010024000040048010090A9EB
:10738000C01F00201D500008A9330008715F0008CD
:107390002D530008D56D000810270000195500086E
:1073A00001461E3105D0FF21F531884204DD064833
:1073B00070471D20C0437047002802DA0248401E73
:1073C000704700B270470000E603000010B5417836
:1073D00002780902114349BA0A048178C078090287
:1073E0000A4310436421FBF76BF801461E3104D0B9
:1073F00001460A3101D00E2801D11D20C04310BD25
:10740000F0B585B003283AD2304A314B914209D0C9
:107410000A461E3206D02D4A521E914202D0521EFA
:10742000914202D100221A5429E02A4A14241D5CF8
:107430004443A218002D19D00023580014185B1CD7
:107440006488DBB21452092BF7D3518200206B46BB
:107450004100401C545AC0B25C520A28F8D30A2694
:1074600019460022571CF8B2550014E001241C54A0
:10747000002358005B1CDBB211520A2BF9D30846DB
:1074800005B0F0BD43004A5FCC5EA24201DD4C5323
:10749000CA52401CC0B2B042F4D3FAB2B242E1D3F5
:1074A00006200B46085E0821595E0C2240180A216E
:1074B000595E9A5E8918401801D4801C00E0801E35
:1074C000C117890F0818801000B2D9E7E703000040
:1074D0006201002028080020F8B51446074600681D
:1074E000194A90422ED1096820894968411A0D0431
:1074F0002D0C27D0A189A94224D0A17B012921D01C
:10750000A8421FD3EFF3108672B63846FCF7DFFEB1
:10751000A07B002803D02069401C20610AE003CC36
:10752000083C216060606581BFF35F8F0120A0731C
:107530000020A081228938462168FDF74DF9002EF0
:1075400000D162B6F8BD000000440040F0B520A0B4
:1075500003C88BB0099108901423082208A91E487B
:10756000FDF768F91D4A1E491B48FFF7B5FF2022A9
:1075700069461A48FBF798FD0F2822D36C46E01C99
:10758000FFF724FF0746E01DFFF720FF064602A88D
:107590000330FFF71BFF394604463143114D2143A9
:1075A00011D03846FFF7FCFE28803046FFF7F8FE82
:1075B00068802046FFF7F4FEA8800A490120403980
:1075C00088700BB0F0BD1D20C04328806880F3E7B1
:1075D000AA55010000000000E4020020DC000020A9
:1075E000F40300206C01002070B501250400ED07B4
:1075F0004C4020D4441A01D2001B0919C60D4B007F
:10760000F2B2FF2A29D01B0E2CD000020C02D31A92
:107610002C43DC402843051910D2280A02D3401C11
:107620006D0611D0761EF6058019FF2A00DA70BDAE
:10763000C00DC00570BD694000F07AF80120054317
:10764000C541521C761CE8E764089C40C9016140B2
:107650008900E7D10124A043E4E71B0E440200D0D7
:10766000034870BD002AFCD1C00FC00770BD00BF29
:107670000000C07F70B5420064414B005C41120EB7
:1076800039D01B0E38D0FF2A3CD0FF2B3AD0400215
:107690004902400A490A060045184E43000A090AF1
:1076A000D2184843ED017F3A0104731A4019190CAE
:1076B0004318990F04D001215B0849075B1A521C3B
:1076C000D80904D3401CF50301D19D0607D0FF2A39
:1076D00008D2D50506D0E4072043401970BD012526
:1076E000A843F4E7002A01DCE00770BD2402FF2074
:1076F0002043C00570BD1B0EFF2A03D0FF2B01D015
:10770000E00770BDFF2645003606B54206D84D009D
:10771000B54203D8D218FF2A00D0E7E7004870BD71
:107720000000C07F70B501250400ED074C4022D455
:10773000441A02D26C40001B0919C60D4B00F2B26C
:10774000FF2A4BD01B0E50D000020C02D31A2C4340
:10775000DC40A843051B05D5AD0019D36D08761E86
:10776000521E37D0F605280A01D2801970BD70412B
:107770006D0603D070BD6940FFF73CFF9C400902D5
:107780006140490001D0401E70BD0124A04370BD7E
:107790006D081DD001202B0C01D12D0410302B0EB3
:1077A00001D12D0208302B0F01D12D01001DAB0F8F
:1077B00001D1AD00801CEB0F01D16D00401C6D00AC
:1077C000361A121A680AF5054019012A02DB70BD43
:1077D000002070BDC036300AC00770BD1B0E4402C9
:1077E00001D1FF2B00D1024870BD002AF0D070BD3E
:1077F0000000C07F02030405060708090A0B0C0DF0
:107800000E0F10100102030405060708090A0B0CED
:107810000D0E0F1000000000010203043F065B4F35
:10782000666D7D077F6F004076383F061E0046007C
:107830006E009600BE00E6000E0136015E015600A5
:107840009E00E6002E017601BE0106024E0296025F
:107850000A0014001E00280032003C0046005000C0
:107860005A0032004400560068007A008C009E00E6
:10787000B000C2003C230024C52489254D261027D2
:10788000D327962858291B2ADD2A9F2B602C222DCE
:10789000E32DA32E642F2430E430A3316232213350
:1078A000E0339E345C351A36D836953752380E3967
:1078B000CB39873A423BFE3BB93C743D2F3EE93E13
:1078C000A33F5D401641CF4188424143F943B14453
:1078D00069452046D7468E474548FB48B149674A27
:1078E0001C4BD14B864C3B4DEF4DA34E574F0A508E
:1078F000BD5070512252D55287533854EA549B558B
:107900004C56FC56AC575C580C59BB596A5A195B1B
:10791000C75B765C245DD15D7F5E2C5FD85F856040
:107920003161DD6188623463DF6389643465DE65FB
:1079300088663167DB6792683969E069876A2D6B11
:10794000D46B796C1E6DC26D020100020100818250
:10795000838485868788898B8C8D8E8F9192939571
:107960009697999A9C9D9FA0A2A3A5A7A8AAACAE02
:10797000B0B2B3B5B7B9BCBEC0C2C5C7C9CCCED111
:10798000D4D7D9DCDFE2E6E9ECF0F3F7FAFE000049
:10799000B0790008C000002018010000F82000089D
:1079A000C87A0008D8010020E01200001421000865
:1079B00000000000000000007C0400207C05002086
:1079C0000001000000000000000000007C06002014
:1079D0009C060020200000000000000000000000C5
:1079E00001000000040000000000000000127A0006
:1079F000000000000000000000000000081020400F
:107A000080FF0000000000000000000000000000F7
:107A10000000000000000000000000000000000066
:107A20000000000000000000000000000000000056
:107A30000000000000000000000000000000000046
:107A40000000000000000000000000000000000036
:107A50000000000000000000000000000000000026
:107A60000000000000000000000000000000000016
:107A70000000000000030000000000000000000003
:107A800000000000000000000000000000000000F6
:107A900000000000000000000000803F0000000027
:107AA0000000000000000000000000000000803F17
:107AB00000000000000000000000000000000000C6
:087AC0000000803F00000000FF
:04000005080020B51A
:00000001FF
