:020000040800F2
:100000000004002051010008590100085B010008AC
:1000100000000000000000000000000000000000E0
:100020000000000000000000000000005D0100086A
:1000300000000000000000005F01000861010008EE
:10004000630100080000000063010008630100086C
:1000500063010008630100086301000863010008F0
:10006000000000006301000863010008630100084C
:10007000630100086301000863010008000000003C
:10008000630100086301000800000000630100082C
:1000900063010008630100086301000863010008B0
:1000A00063010008630100086301000863010008A0
:1000B0006301000800F002F800F030F80CA030C82E
:1000C000083824182D18A246671EAB4654465D46D4
:1000D000AC4201D100F022F87E460F3E0FCCB6466E
:1000E0000126334200D0FB1AA246AB4633431847E1
:1000F000A8010000B801000000230024002500260C
:10010000103A01D378C1FBD8520700D330C100D5D3
:100110000B6070471FB51FBD10B510BD0348854665
:10012000FFF7F8FF00F04EF800F020F80004002080
:1001300003B4FFF7F1FF03BC00F022F880F3088856
:10014000002080F31488BFF36F8F62B60847000069
:100150000448804704480047FEE7FEE7FEE7FEE765
:10016000FEE7FEE7BD010008B500000810B5044633
:10017000C046C0462046FFF7DBFF10BD70470000B9
:1001800001491820ABBEFEE726000200094841697C
:1001900001229204114341614069074808218161AD
:1001A0000268C0239A434032026042688A43426038
:1001B00070470000001002400004004810B5FFF72F
:1001C000E5FF10BD284C01277F0726686568FFF70B
:1001D000DDFF2749254808632648274A3018904202
:1001E0000AD2B00708D1E80706D068084000A0424C
:1001F00002D3224A904203D31C48ED300863FEE745
:1002000072B60020820013191B68401CBB503028B6
:10021000F8D31B4A002010611A4A401E10601A4A87
:1002200010600520194A4006506019488269012370
:100230001A43826180691748026803231A430260E7
:10024000BFF34F8FBFF36F8F0068C043800703D0A9
:100250000648EE300863FEE70448801C0863294620
:100260003046FFF76BFFFEE700180008011007B0EB
:10027000C01F002040FFFFDF311F00000084000886
:1002800000E000E080E100E080E200E000ED00E05E
:100290000010024000000140A802000800000020F9
:0802A00000040000F800000852
:04000005080000B53A
:00000001FF
