:020000040800F2
:10000000A016002059010008713E000811370008B1
:1000100000000000000000000000000000000000E0
:100020000000000000000000000000008D410008FA
:1000300000000000000000005D3F0008714400085F
:100040006B010008000000006B0100086B01000854
:100050006B0100086B0100086B0100086B010008D0
:1000600000000000111200082912000841120008C7
:10007000890600086B0100086B0100080000000001
:10008000054500086B010008000000006B01000836
:100090006B0100086B0100086B0100086B01000890
:1000A0006B0100086B0100086B010008795400081F
:1000B0009954000800F002F800F03EF80CA030C897
:1000C000083824182D18A246671EAB4654465D46D4
:1000D000AC4201D100F030F87E460F3E0FCCB64660
:1000E0000126334200D0FB1AA246AB4633431847E1
:1000F000205E0000405E0000103A02D378C878C14C
:10010000FAD8520701D330C830C101D504680C6059
:10011000704700000023002400250026103A01D378
:1001200078C1FBD8520700D330C100D50B607047AF
:100130001FB51FBD10B510BD00F073FA1146FFF7D3
:10014000F7FF05F055FC00F08BFA03B4FFF7F2FF60
:1001500003BC00F091FA00000748804707480047B9
:10016000FEE7FEE7FEE7FEE7FEE7FEE70448054997
:10017000054A064B7047000003450008B50000081B
:10018000A0100020A0160020A0120020A012002025
:10019000FEB5054610460C46184373D0AE468C4655
:1001A0000020AD1A01469C4167D366460027012412
:1001B0003D46B61A9D4102D313463A462124654670
:1001C00076462F04360C3E432D0CB61A9D4104D3BF
:1001D000150C1B042B4312041034654676462F067B
:1001E000360A3E432D0AB61A9D4104D3150E1B0252
:1001F0002B4312020834654676462F0736093E43E4
:100200002D09B61A9D4104D3150F1B012B43120172
:10021000241D65467646AF07B6083E43AD08B61ABC
:100220009D4104D3950F9B002B439200A41C65466F
:100230007646EF0776083E436D08B61A9D411AD3FD
:1002400092185B41641C16E00018764665464941E9
:10025000B71A9D410191009009D36046B11A9841A7
:100260008E468446009801990025401C6941DD07AF
:1002700052082A435B08641EE6D57246634603B003
:10028000F0BDFFE700200146C046C0462A4623468F
:10029000F5E701E004C0091F0429FBD28B0701D553
:1002A0000280801CC90700D00270704700290BD063
:1002B000C30702D00270401C491E022904D38307E1
:1002C00002D50280801C891EE3E70022EEE70022AF
:1002D000DFE7002203098B422CD3030A8B4211D3A0
:1002E00000239C464EE003460B433CD400224308C7
:1002F0008B4231D303098B421CD3030A8B4201D3B7
:1003000094463FE0C3098B4201D3CB01C01A52414E
:1003100083098B4201D38B01C01A524143098B429E
:1003200001D34B01C01A524103098B4201D30B0187
:10033000C01A5241C3088B4201D3CB00C01A5241AC
:1003400083088B4201D38B00C01A524143088B4271
:1003500001D34B00C01A5241411A00D2014652410A
:10036000104670475DE0CA0F00D04942031000D329
:100370004042534000229C4603098B422DD3030A7E
:100380008B4212D3FC22890112BA030A8B420CD38E
:10039000890192118B4208D3890192118B4204D3B7
:1003A00089013AD0921100E08909C3098B4201D337
:1003B000CB01C01A524183098B4201D38B01C01A71
:1003C000524143098B4201D34B01C01A52410309E8
:1003D0008B4201D30B01C01A5241C3088B4201D397
:1003E000CB00C01A524183088B4201D38B00C01A44
:1003F0005241D9D243088B4201D34B00C01A52411B
:10040000411A00D20146634652415B10104601D3A7
:100410004042002B00D54942704763465B1000D331
:10042000404201B50020C046C04602BD704770473B
:1004300070470000F0B5FF252D04C609C209FF274B
:1004400004462E400137CB093E4348402A402B400A
:100450000746002A6BD0002B69D0AA4267D0AB4276
:1004600065D0002800DA32460125ED0529432C43EA
:1004700009022002090AD21A4B0C7F24E31A434CCA
:10048000000A7C44E35C7D242404121914145B00EC
:10049000A218884201D3521C00E0400049420C4699
:1004A0005C4324115C43DB016415E318040A5C43DC
:1004B000C502200D0C4644436419250A5D432303FD
:1004C000EC0C0D46654300030019EB184C42A342A7
:1004D00001D35B18401CD4052018002B07D05B000B
:1004E000C91804D3401C002901D1400840003F2115
:1004F00089048A4209D3002A08DC1106090F04D0B6
:10050000032149074018C00FC007F0BD0122410078
:10051000120689187F2252069142F6D20521490718
:10052000C84201D59010F0BDFF20C005F0BD002FDE
:1005300000DA32461648AA4207D2AB4205D2190267
:10054000090E17D0F80FC007F0BDFF2563002D0678
:10055000AB42F9D84900A942F6D8AB4201D1A94231
:10056000F2D0A94201D1002101E061004908D00583
:100570000843F0BD1102090EFBD0FF200243D00555
:10058000F0BD0A460146104654E700004A5A0000F2
:100590000000C07F0102C21504D00123DB0719430C
:1005A000002A0ADB9E239A1A02D40846D0407047DC
:1005B000FF2241001206914201D900207047C01766
:1005C000C04370471F22030C02D10F2200041CD02D
:1005D000030E01D10002083A030F01D10001121FDE
:1005E000830F01D18000921E002801DB4000521EC3
:1005F000D2055118021251181922904004D3491CF7
:10060000002801D14908490008467047C10FC907B1
:1006100000D04042012292071143D3E7012189070C
:10062000D0E7754600F024F8AE460500694653460B
:10063000C008C000854618B020B5FFF797FD60BC24
:1006400000274908B6460026C0C5C0C5C0C5C0C5FC
:10065000C0C5C0C5C0C5C0C5403D49008D46704736
:1006600010B50446C046C0462046FFF76EFD10BDDB
:10067000004870473C10002001491820ABBEFEE73F
:10068000260002007047000010B5024801F068F82B
:1006900010BD00008800002070B505466C6AA06B94
:1006A00050210840002835D1A06B012149020843A0
:1006B000A0632068C068032189020840002825D172
:1006C000A07E002822D12068006808210840082860
:1006D0001CD12068806804210840800800280DD1C2
:1006E000206840680C21884321684860A06BFF2186
:1006F0000131884301210843A06307E0A06B20215A
:100700000843A063E06B01210843E063204601F049
:1007100019F803E0206B016B2846884770BD70B55F
:1007200005466C6AA06B40210843A063E06B04217E
:100730000843E063204601F012F870BD70B504462E
:10074000656A284601F00AF870BD000038B5044615
:10075000002500200090206880688007800F012815
:100760000ED120680068C007C00F002806D120689D
:10077000C0680121C9030840884201D1012000E07E
:10078000002000284CD120688068264908400028B5
:1007900001D1012000E00020002809D1A06B102128
:1007A0000843A063E06B01210843E063012038BDEA
:1007B0002068806801210843216888601A491B4825
:1007C0000068FFF786FD009002E00098401E009050
:1007D00000980028F9D101F05BFC054617E001F014
:1007E00057FC401B022812D920680068C007C00FC0
:1007F000012148404840002809D1A06B102108433E
:10080000A063E06B01210843E0630120CFE720688B
:100810000068C007C00F0121484048400028DED0D2
:100820000020C4E71700008040420F00180000209D
:1008300030B50346184600240D4D2C700DE00C4CCD
:1008400024786500841C645B094D2D786D00445349
:10085000074C2478641C064D2C704C1E044D2D78DA
:10086000AC42ECDC4C002418403CE28730BD000078
:100870006600002010B500F07FFC214800780028B9
:1008800006D001280CD0022812D003282ED117E060
:100890001C4840798021884380301A4948712DE0F6
:1008A000184800798021884380301649087125E076
:1008B00014484078802188438030124948701DE0F8
:1008C000104880798021884380300E49887108461D
:1008D000C079C0218843C0300A49C8710846007AEF
:1008E000C0218843C0300749087207E005484079B5
:1008F0008021884380300349487100BF00BF10BD8C
:1009000045000020900F00200F48007801280DD1ED
:100910000E4880788021884380300C4988700846D2
:10092000C078802188430949C8700CE00748807866
:1009300080218843054988700846C0788021884313
:1009400080300249C87070471C100020900F0020B2
:1009500070B504460D46264600201249087010E086
:10096000104800784000305A0F4908800F4800882E
:10097000098840180D4908800A480078401C094938
:10098000087008480078A842EADB29460748008832
:10099000FFF7A9FC044908800020044908800248A8
:1009A000008870BD6000002062000020640000200C
:1009B00070B504460C2060430549401885880549F8
:1009C000694308460449FFF784FC80B270BD00000B
:1009D000D00F0020E40C0000FF0F000010B50B4802
:1009E0000078002810D000220121C9020920C00689
:1009F00001F047FB0022012109030920C00601F094
:100A000040FB00200149087010BD00007800002064
:100A100010B50D480078002815D10122D102092017
:100A2000C00601F02EFB0022012109030920C006A7
:100A300001F027FB012211030920C00601F021FB70
:100A400001200149087010BD7800002010B547480A
:100A5000007800280ED000204549087045490870EC
:100A60004549088045490880404908704449087054
:100A7000444908704248007800280FD001203C49C2
:100A8000087000203D4908803B4908800120394911
:100A9000087000203A490870FFF7BAFF3448007820
:100AA000012803D03248007803280FD1FFF7B0FFA8
:100AB0003448007800281AD002202D4908700120FF
:100AC0002C49087000202C49088010E02848007844
:100AD00002280AD12B480078002808D10320244995
:100AE000087000202449088001E0FFF777FF2048C4
:100AF0000078012803D01E480078032814D11E482E
:100B00000088401C1C49088008460088052816D328
:100B10000020088017480078002801D1012000E05B
:100B20000020144908700AE011480078022803D117
:100B300001201049087002E000200E4908700C489E
:100B40000078012811D10D480088401C0B4908800D
:100B5000084600884B210901884206D30020044939
:100B60000870044908700749087010BD760000201D
:100B700073000020740000207A0000207C00002018
:100B8000750000207700002001200F490870032025
:100B9000887200200871072048700020C87001206A
:100BA0008870002048724871012088710020C87147
:100BB000012008720020C872C873087348738873D4
:100BC0000120087470470000FC0E002010B5044896
:100BD00000F02AF9042000F00FF900F049F910BDE7
:100BE0000D0F00200021074A5278521C11010020ED
:100BF00004E00022044B1A54421C90B28842F8DBF5
:100C000070470000FC0E00200D0F002070B5054657
:100C10002B0004F02DFE0A0617293B4D5F718395CA
:100C2000A7B157484078401C0007060E012000F08D
:100C3000E3F800F02DF9022000F0DEF80020514921
:100C400008709AE000240CE04F49085D00F0B0F80D
:100C50004D48005D4B49097840184A490870601CAE
:100C6000C4B2102CF0DB88E010240CE04649085D8B
:100C700000F09EF84448005D424909784018414917
:100C80000870601CC4B2202CF0DB76E020240CE05D
:100C90003D49085D00F08CF83B48005D3949097812
:100CA000401838490870601CC4B2302CF0DB64E096
:100CB00030240CE03449085D00F07AF83248005DD9
:100CC0003049097840182F490870601CC4B2402C84
:100CD000F0DB52E040240CE02B49085D00F068F89E
:100CE0002948005D27490978401826490870601C8A
:100CF000C4B2502CF0DB40E050240CE02249085DE7
:100D000000F056F82048005D1E49097840181D493A
:100D10000870601CC4B2602CF0DB2EE060240CE094
:100D20001949085D00F044F81748005D1549097835
:100D3000401814490870601CC4B2702CF0DB1CE031
:100D400070240CE01049085D00F032F80E48005D98
:100D50000C49097840180B490870601CC4B2802CFB
:100D6000F0DB0AE00748007800F022F8042000F0E9
:100D700043F800F07DF800E000BF00BF70BD000048
:100D8000FC0E0020250000200D0F002010B50120D2
:100D900003F0E8F9012003F0D1F9FFF7F5FE00F0C8
:100DA000B9F800F0DBF800F0BFF800F095F810BDDE
:100DB00070B50446002518E0002003F0BFF980203C
:100DC0002040002803D0012003F0CCF902E00020ED
:100DD00003F0C8F900F0D8F8012003F0AFF900F0F3
:100DE000D3F86006040E681CC5B2082DE4DB0020B1
:100DF00003F0A4F970BD000070B5044600265A2027
:100E0000FFF7D6FFFF20FFF7D3FF064804700578F1
:100E10002846FFF7CDFF28465930C6B23046FFF7C7
:100E2000C7FF70BDFC0E0020F8B505460026002760
:100E30000E484078401C07010120FFF7DDFF00F05D
:100E400027F80220FFF7D8FF00BF002407E0285D45
:100E5000FFF7AEFF285D8019C6B2601C84B2BC42A9
:100E6000F5DB3046FFF7A4FFF8BD0000FC0E0020C4
:100E700010B5002003F062F900F086F8012003F0BD
:100E80005DF900F081F8002003F058F910BD000072
:100E900010B500240F490878FFF78AFF0D494878FC
:100EA000FFF786FF0B498878FFF782FF0949C8786A
:100EB000FFF77EFF07480078064949784018054942
:100EC000897840180349C9784018C4B22046FFF712
:100ED0006FFF10BD210000200C48C07A80010B4933
:100EE000C97B490140180949097B09014018074994
:100EF000497BC90040180549897B490040180349CE
:100F0000097C40180249C87070470000FC0E0020A0
:100F1000210000200248807A0249087070470000D2
:100F2000FC0E0020210000200A48407AC001094937
:100F300049790901401807498979C90040180549CC
:100F4000C979890040180349097A40180249887014
:100F500070470000FC0E00202100002008480079A6
:100F6000C00107494978890040180549C9784900F6
:100F700040180349897840180249487070470000BA
:100F8000FC0E002021000020002000BF01E0411CD9
:100F900088B23228FBDB7047F7B586B01546002DC6
:100FA0000BD055480078002807D054480078002816
:100FB00003D153480078002802D0002009B0F0BDCA
:100FC00050491020085E02F0D3FB002801D0002019
:100FD000F4E74C491020085E03F0AAFD0446322CC9
:100FE00001DB0020EAE747490A20085E03F0A0FD84
:100FF000074644490C20085E03F09AFD05904149DC
:101000000E20085E03F094FD04906000201802900A
:1010100003263C490A20085E02F0AAFB002816D1EC
:10102000A74201DB381B01E0E01B00B200B20390D5
:1010300003980A2804DC0298C0190290761C06E086
:101040000698002803D1079828800120B6E72D498B
:101050000C20085E02F08CFB00281AD10598A042F3
:1010600002DB0598001B02E00598201A00B200B2CE
:10107000039003980A2805DC05990298401802900D
:10108000761C06E00698012803D1079828800120E5
:1010900094E71C490E20085E02F06AFB00281AD172
:1010A0000498A04202DB0498001B02E00498201A76
:1010B00000B200B2039003980A2805DC0499029854
:1010C00040180290761C06E00698022803D1079883
:1010D0002880012072E7032E03DC07982880012076
:1010E0006CE731460298FFF7FEF800B2019003F07A
:1010F000B5FA2880012061E770000020710000200F
:10110000720000201C1000201A488079800880009E
:1011100018498871084680790C21884315498871DF
:101120000846807930218843124988710846C07981
:1011300080088000C8710846C0790C2188430D4999
:10114000C8710846C079302188430A49C8710846E9
:10115000007A8008800008720846007A0C218843D3
:10116000044908720846007A302188430149087210
:1011700070470000900F002012484078802188437B
:101180001049487008460079802188430D4908714C
:1011900008464079802188430A4948710846807989
:1011A00080218843074988710846C079C021884357
:1011B0000449C8710846007AC02188430149087271
:1011C00070470000900F002070B505460E462C4673
:1011D000002E07D1E10060180521FFF784F80446CE
:1011E000203407E0214620398A0088180921FFF7BA
:1011F0007AF804460548844200DD0446C720C0430F
:10120000844200DA044620B270BD0000E70300000B
:1012100010B5034800F020FD00200249087010BD01
:10122000C80000204A00002010B5034800F014FD5B
:10123000024800F011FD10BD64020020A802002049
:1012400010B5034800F008FD024800F005FD10BD90
:1012500030030020EC02002010B50446054A216846
:10126000881A1421FFF735F88000206401480838F7
:10127000E06310BD0800024030B50124056CAC40AD
:10128000C56B6C60046863604468102C04D104680A
:10129000A2600468E16003E00468A1600468E260A1
:1012A00030BD000070B53B480078002861D1FFF7E1
:1012B00099FC3948007805285BD004F0BDF8054654
:1012C00004F0B4F80446012C08D1344BDA7B197BC6
:1012D000D87A02F085FFFFF717FF20E0022C08D133
:1012E0002E4B9A7B597BD87A02F07AFFFFF70CFFDE
:1012F00015E0032C08D1294BDA7AD97AD87A02F092
:101300006FFFFFF701FF0AE0284602F0A3FF002D60
:1013100001DA002100E0A9B2084604F0DDF9FFF788
:10132000F3FAFFF7A7FA04F07BF8002807D01C486F
:1013300000788021884380301949087005E01848FA
:1013400000788021884316490870164800780028E4
:1013500007D0134880794021884340301049887174
:1013600005E00F488079402188430D49887102F0DB
:1013700017FF08480078FFF749FC06480078401C32
:101380000449087008460078092801D9002008702F
:1013900070BD0000460000206E000020DC5D0008EB
:1013A000900F00204B00002072B600BFFEE7000047
:1013B00070B504F0D3FA3F4800F084F8002551E0FE
:1013C00002223D493B4800F08FFB01203B49087059
:1013D00000BF3A4800780028FBD1012000F030FD22
:1013E00000243BE060003449095A0C206043344A31
:1013F000105A814203DD60002F49085A03E00C2097
:1014000060432F49085A0C2161432D4A5052600015
:101410002949095A0C20604380184088814203DA28
:1014200060002549085A04E00C2060432449401814
:1014300040880C216143224A891848800C2060436F
:1014400011464018806861001B4A515A41180C200F
:1014500060431B4A80188160601C84B2022CC1DB8F
:10146000681C85B2042DABDB00241FE00C20604318
:101470001349401881680C206043114A105A091A18
:101480000C20604380184088091A0C2060438018A3
:1014900081600C206043114640188068C003010C35
:1014A0000C20604380188180601C84B2022CDDDB3C
:1014B00070BD000088000020000000204A000020CD
:1014C000D00F0020F8B5044600250026002700BFF5
:1014D0003420005D012801D10220F8BD0121342013
:1014E000015500BF206880688007800F01280CD15B
:1014F000206800680840002805D12068C068C9033A
:101500000840884201D1012000E00020002849D194
:10151000A06BFF210131884302210843A0632068AA
:10152000C0688707BF0F2068C068800880002168F6
:10153000C860206880680121C90708432168886065
:1015400000F0A6FD064619E000F0A2FD801B02286F
:1015500014D920688068C00FC0070121C9078842DC
:101560000CD1A06B0221884310210843A06300BF67
:1015700000213420015500BF0120AEE720688068BB
:10158000C00FC0070121C9078842DDD02068C068AC
:1015900038432168C860A06B0221884301210843B9
:1015A000A06304E0A06B20210843A063012500BFD5
:1015B00000213420015500BF28468EE7F8B50446C7
:1015C0000D4600260020009001210907E06A8842AC
:1015D00015D0E06A012812D0E06A02280FD0E06A34
:1015E00003280CD0E06A042809D0E06A052806D058
:1015F000E06A062803D0E06A072800D000BF00BFD9
:101600003420005D012801D10220F8BD01213420E1
:10161000015500BF20688068042108408008002828
:101620007BD14449686888425BD02068806A2A7808
:101630000121914008432168886201210907E06A7D
:10164000884229D0E06A012826D0E06A022823D007
:10165000E06A032820D0E06A04281DD0E06A05284B
:101660001AD0E06A062817D0E06A072814D0A868C4
:10167000216849694907490F88420DD020684069AF
:10168000C008C0002168486120684069297A49077C
:10169000490F0843216848612868102802D028684B
:1016A00011283FD1244880682968102901D1C90434
:1016B00001E00121890508431F4988602868102836
:1016C00030D11E491E480068FEF703FE0A21484338
:1016D000009002E00098401E009000980028F9D188
:1016E00020E02068806A2A7801219140884321689F
:1016F00088622868102802D02868112812D10E4864
:1017000080682968102902D1C90402E005E001219E
:10171000890588430849886004E0A06B20210843BC
:10172000A063012600BF00213420015500BF3046D0
:101730006BE70000011000000027014040420F004D
:1017400018000020034A0168914202D10021024A98
:1017500011707047002401404A0000207047704714
:1017600070B5044620680568206846680420284053
:10177000042802D13040042806D008202840082838
:101780003CD13040082839D1A06B102108400028F6
:1017900003D1A06B49010843A0632068C0680321FE
:1017A00089020840002823D1A07E002820D10820EB
:1017B000284008281CD1206880680421084080083F
:1017C00000280DD1206840680C21884321684860BA
:1017D000A06BFF210131884301210843A06307E08A
:1017E000A06B20210843A063E06B01210843E06364
:1017F0002046FFF7A7FF0C202168086080202840C2
:1018000080280DD1304080280AD1A06B0121090425
:101810000843A063204600F003F980202168086097
:1018200010202840102818D13040102815D1A06A67
:10183000012805D02068C068C007C00F002809D063
:10184000E06B02210843E063102021680860204615
:10185000FFF785FF10202168086070BD70B5044651
:1018600000260025002C01D1012070BDA06B0028AE
:1018700006D1E063002134200155204600F0D2F863
:10188000A06B1021084000287ED1002EFCD12068DA
:1018900080680421084080080028F5D1A06B8901E8
:1018A000884302210843A063206880688007800F76
:1018B00001280DD120680068C007C00F002805D19D
:1018C0002068C06889030840884201D1012000E0F7
:1018D000002000280FD12068C06818218843A16823
:1018E00008432168C860206800698000800861683A
:1018F0000843216808612068C0684749084021689A
:10190000C860207E8003617EC9030843A17E49032D
:101910000843A16A012902D00121090300E0002146
:101920000843E16808432169022901D1042100E04C
:10193000002108432421095D490008430543E07E56
:1019400001280ED1A07E002803D101200004054308
:1019500007E0A06B20210843A063E06B012108434E
:10196000E063FF21C231E069884203D0216AE06967
:10197000084305432068C06828432168C8600121E6
:101980000907E06A884200E03EE014D0E06A0128DE
:1019900011D0E06A02280ED0E06A03280BD0E06A7A
:1019A000042808D0E06A052805D0E06A062802D09D
:1019B000E06A07280DD120684069C008C00021688E
:1019C000486120684069A18D4907490F0843216893
:1019D00048612068C06811490840A84208D1002029
:1019E000E063A06B0221884301210843A06310E05B
:1019F000A06B0221884310210843A063E06B012102
:101A00000843E063012604E0A06B10210843A063B3
:101A10000126304629E700001902FEFFE7FF3F8359
:101A20007047000010B586B00446142101A8FEF7E7
:101A30004EFC2949206888424BD100BF2748806965
:101A400049150843254988610846806949150840B9
:101A5000009000BF00BF00BF204840690902084352
:101A60001E49486108464069012149040840009028
:101A700000BF00BF0320019002900020039001A945
:101A80000920C00600F0F2F9154816490860002048
:101A900048600021134881608021C16049000161D4
:101AA00089004161202181610021C16100F04CF970
:101AB000002801D0FFF778FC00BF0A482063446289
:101AC00000BF002211460C2000F05CFB0C2000F04F
:101AD0004BFB06B010BD0000002401400010024086
:101AE00008000240C8000020F8B504460D4616461E
:101AF000002720688068042108408008002848D119
:101B000000BF3420005D012801D10220F8BD012171
:101B10003420015500BF607E012803D02046FEF727
:101B200015FE0746002F35D1A06B1B490840FF2149
:101B300001310843A0630020E06300BF002134208E
:101B4000015500BF1548216B88621548216BC8629A
:101B50001448216B08631C202168086020684068D5
:101B600010210843216848602068C06801210843AB
:101B70002168C86022681146403133462A46206BEE
:101B800000F010F92068806804210843216888600B
:101B900000E002273846B9E7FEF1FFFF990600088A
:101BA0003D0700081F07000801462120405C02286D
:101BB00008D00420886300BF00222020425400BFC8
:101BC00001207047086800680E2290430A68106080
:101BD00008680068400840000A68106001200A6C2C
:101BE0009040CA6B506001222120425400BF002265
:101BF0002020425400BF0020E3E770B504460025D2
:101C00002120005D022803D00420A06301251EE0EE
:101C1000206800680E2188432168086020680068F9
:101C200040084000216808600120216C8840E16B79
:101C3000486001212120015500BF002120200155CD
:101C400000BF606B002802D02046616B88472846A1
:101C500070BD0146886B704770B50446E06B05683F
:101C6000206806680420216C8840284000281BD08A
:101C700004203040002817D0206800682021084048
:101C8000002805D120680068042188432168086085
:101C90000420216C8840E16B4860E06A002852D043
:101CA0002046E16A88474EE00220216C88402840A7
:101CB000002823D00220304000281FD02068006870
:101CC00020210840002808D1206800680A218843A4
:101CD000216808600121212001550220216C8840E3
:101CE000E16B486000BF00212020015500BFA06AC1
:101CF000002828D02046A16A884724E00820216CCB
:101D00008840284000281ED00820304000281AD0E3
:101D1000206800680E218843216808600120216C3A
:101D20008840E16B48600120A0630121212001551A
:101D300000BF00212020015500BF206B002802D0E9
:101D40002046216B884770BD70B504460025002CE5
:101D500001D1012070BD02212120015520680568B4
:101D60000F480540A16860680843E168084321699D
:101D7000084361690843A1690843E16908430543D1
:101D8000206805602046FFF767FA0020A063012164
:101D9000212001550021202001550020DAE7000014
:101DA0000FC0FFFFF8B504460D4616461F4600203B
:101DB000009000BF2020005D012801D10220F8BD65
:101DC00001212020015500BF2120005D01282DD1D7
:101DD0000221212001550020A063206800684008EE
:101DE0004000216808603B46324629462046FFF7FE
:101DF00043FAE06A002806D0206800680E210843F4
:101E0000216808600BE0206800680A210843216807
:101E10000860206800680421884321680860206801
:101E20000068012108432168086006E000BF002126
:101E30002020015500BF022000900098BFE700005D
:101E400070B5044600F024F906462546681C0028B3
:101E500002D0054800782D1800BF00F019F9801B4A
:101E6000A842FAD370BD00001400002078B50346E4
:101E70000A460021DFE001268E4014683440002C21
:101E80007ED01579AD07AD0F012D04D01579AD07C2
:101E9000AD0F022D18D198684E000325B5400646B7
:101EA000AE4330464E00D568B54028439860586828
:101EB00001258D400646AE43304610265568354014
:101EC0002D098D40284358601579AD07AD0F032DBE
:101ED0000BD0D8684E000325B5400646AE433046C9
:101EE0004E009568B5402843D8601579AD07AD0F11
:101EF000022D15D1CD08AE001D462035A8594D073D
:101F0000EE0E0F25B5400646AE4330464E07F60EA0
:101F10001569B5402843CD08AD001E4620367051E6
:101F200018684E000325B5400646AE433046157985
:101F3000AD07AD0F4E00B5402843186003263604A8
:101F400055683540002D75D000BF3E4DAD69012666
:101F500035433C4EB5613546AD69ED07ED0F009553
:101F600000BF00BF384D8E08B600A8598D072E0F50
:101F70000F25B5400646AE4330460925ED0600E084
:101F800058E0AB4201D100250FE0304DAB4201D10A
:101F900001250AE02E4DAB4201D1022505E02D4D71
:101FA000AB4201D1032500E005258E07360FB54071
:101FB0002843254D8E08B600A851274DA868054630
:101FC000A54328460126360555683540002D02D028
:101FD000054625432846204DA860E8680546A543E8
:101FE00028460126760555683540002D02D0054665
:101FF00025432846184DE86068680546A5432846ED
:102000000126760455683540002D02D0054625434B
:102010002846114D686028680546A54328460126D4
:10202000360455683540002D02D005462543284624
:10203000094D2860491C1568CD40002D00D01AE7D5
:1020400078BD000000100240080001400004004874
:1020500000080048000C00480004014002461369D3
:102060000B40002B01D0012000E00020704710B58C
:10207000426913460B401B040C469443234383617F
:1020800010BD002A01D0816100E08162704700002C
:1020900001480068704700000C00002003480068F9
:1020A0000349097840180149086070470C00002076
:1020B0001400002010B506480068102108430449A8
:1020C0000860032000F006F800F02EF8002010BD94
:1020D0000020024070B50446104801787D20C00001
:1020E000FEF7F7F8064631460D480068FEF7F1F8AE
:1020F000054600F0D9FC002801D0012070BD042C59
:1021000007D200222146501E00F03CF8054804602A
:1021100001E00120F2E70020F0E7000014000020B9
:10212000180000201000002008B500BF0D4880698D
:10213000012108430B49886108468069C007C00F28
:10214000009000BF00BF00BF0846C06909040843F3
:102150000449C8610846C06909040840009000BFEE
:1021600000BF08BD001002400146002905DBCB0678
:10217000DB0E01229A40024B1A6000BF704700003C
:1021800000E100E070B504460D461646294620469B
:1021900003F07CFB70BD0000F8B504460026002566
:1021A000012109042068084088427AD100274B4861
:1021B000C0690903084000280DD100BF4748C06925
:1021C00008434649C8610846C069090408400090B0
:1021D00000BF00BF012742480068FF2101310840CD
:1021E000002816D13E48006808433D490860FFF7C3
:1021F0004FFF064606E0FFF74BFF801B642801D91E
:102200000320F8BD36480068FF210131084000284E
:10221000F1D03248006A0321090208400546002D2A
:102220002DD060680840A84229D02C48006A884315
:1022300005462A48006A0121090408432749086223
:102240000846006A012109048843244908620846B7
:102250000562E807C00F002811D0FFF719FF0646F6
:1022600007E0FFF715FF801B1E49884201D90320B4
:10227000C7E71A48006A022108400028F1D0174831
:10228000006A032109028843616808431349086210
:10229000012F05D10846C069090488430F49C86168
:1022A00000BF2078C007C00F002807D00B48006B84
:1022B00080088000A168084308490863202120683D
:1022C0000840202807D10548006B10218843E168A9
:1022D000084302490863002093E700000010024011
:1022E000007000408813000070B504460D46002CB5
:1022F00001D1012070BD52480068C007C00FA8423C
:102300000ED24F4800684008400028434C490860FE
:1023100008460068C007C00FA84201D00120E9E7C5
:10232000022120680840022814D1042120680840B6
:10233000042807D143484068072109028843401810
:10234000404948603F484068F0218843A1680843FD
:102350003C4948602078C007C00F00283BD0606827
:10236000012808D1374800680121490408400028A5
:1023700015D10120BEE76068022808D13148006805
:10238000012149060840002809D10120B2E72D4863
:10239000006802210840002801D10120AAE729484D
:1023A0004068800880006168084326494860FFF75C
:1023B0006FFE064607E0FFF76BFE801B224988424E
:1023C00001D9032096E71F4840680C210840616846
:1023D00089008842EFD11A480068C007C00FA842A0
:1023E0000ED9174800684008400028431449086087
:1023F00008460068C007C00FA84201D0012079E755
:10240000042120680840042808D10E4840680721AC
:1024100009028843E16808430A49486000F032F83D
:1024200008494968F02211400909084A515CC8402E
:10243000074908600320FFF74DFE00205AE700001F
:10244000002002400010024088130000C45D000814
:1024500018000020014800687047000018000020A4
:1024600000B5FFF7F7FF054949680722120211403E
:10247000090A034A515CC84000BD00000010024038
:10248000D45D0008F8B500240025002700260020B0
:1024900000901D4844680C20204000282DD00428BE
:1024A00002D0082828D102E01848009028E00F2028
:1024B00080042040800C16490E5C1348C06A000757
:1024C000000F14490D5C0120000420400121090483
:1024D00088420AD12A4600230C481946FDF758FEC7
:1024E000314603F0ADF9074604E00B48314603F0EE
:1024F000A7F90746009703E000BF0448009000BF1B
:1025000000BF0098F8BD00000010024000127A00E1
:10251000A45D0008B45D000800093D00FEB5044656
:10252000002C01D10120FEBD2078C007C00F00287B
:1025300071D0FC4840680C21084004280BD0F948B1
:1025400040680840082812D1F64840680121090473
:10255000084088420BD1F348006801214904084033
:1025600000286BD06068002868D10120DBE700BF3D
:102570006068012807D1EB4800680121090408437D
:10258000E849086031E0606800280ED1E54800683D
:10259000012109048843E3490860084600680121D5
:1025A00089048843DF4908601FE0606805280ED170
:1025B000DC480068012189040843DA4908600846BC
:1025C0000068012109040843D64908600DE0D54898
:1025D0000068012109048843D24908600846006860
:1025E000012189048843CF49086000BF6068002842
:1025F00012D0FFF74DFD054606E0FFF749FD401BF1
:10260000642801D903208EE7C648006801214904E7
:1026100008400028F1D011E0FFF73AFD054606E03A
:10262000FFF736FD401B642801D903207BE7BD4836
:1026300000680121490408400028F1D102212068E6
:102640000840022861D1B74840680C2108400028A2
:102650000BD0B4484068084008281BD1B1484068F6
:10266000012109040840002814D1AE480068022165
:102670000840002804D0E068012801D0012052E77A
:10268000A8480068F82188432169C9000843A54982
:1026900008603AE0E068002820D0A24800680121E4
:1026A0000843A0490860FFF7F3FC054606E0FFF782
:1026B000EFFC401B022801D9032034E79948006849
:1026C000022108400028F2D096480068F82188438B
:1026D0002169C90008439349086016E091480068E1
:1026E000400840008F490860FFF7D2FC054606E02D
:1026F000FFF7CEFC401B022801D9032013E78948CD
:102700000068022108400028F2D108212068084012
:10271000082831D1E069002817D08248406A012199
:10272000084380494862FFF7B3FC054606E0FFF71F
:10273000AFFC401B022801D90320F4E67948406A27
:10274000022108400028F2D016E07648406A40088E
:10275000400074494862FFF79BFC054606E0FFF71E
:1027600097FC401B022801D90320DCE66D48406A33
:10277000022108400028F2D10421206808400428E2
:1027800073D1002001906748C0698906084000287D
:102790000ED100BF6348C06908436249C86108465A
:1027A000C06909040840009000BF00BF01200190EB
:1027B0005D480068FF2101310840002816D15A48C1
:1027C0000068084358490860FFF762FC054606E0C8
:1027D000FFF75EFC401B642801D90320A3E65248A2
:1027E0000068FF21013108400028F1D000BFA06837
:1027F000012806D14B48006A012108434949086273
:102800002BE0A06800280CD14648006A4008400030
:10281000444908620846006A042188434149086225
:102820001BE0A06805280CD13E48006A042108433B
:102830003C4908620846006A012108433949086298
:102840000BE03848006A40084000364908620846F4
:10285000006A042188433349086200BFA068002849
:1028600013D0FFF715FC054608E02BE0FFF710FC3E
:10287000401B2E49884201D9032054E62948006AAA
:10288000022108400028F1D011E0FFF701FC0546C5
:1028900007E0FFF7FDFB401B2449884201D90320D4
:1028A00041E62048006A022108400028F1D1019841
:1028B000012806D11B48C06901210907884319492D
:1028C000C86100BF102120680840102860D16069ED
:1028D00001282DD11348406B042108431149486356
:1028E0000846406B012108430E494863FFF7D0FBBF
:1028F000054606E0FFF7CCFB401B022801D9032068
:1029000011E60848406B022108400028F2D0054833
:10291000406BF8218843A169C90008430149486315
:1029200036E00000001002400070004088130000F4
:102930006069401D00280FD15A48406B042188432C
:10294000584948630846406BF8218843A169C9008B
:102950000843544948631BE05248406B0421084334
:10296000504948630846406B400840004863FFF701
:102970008FFB054606E0FFF78BFB401B022801D9C1
:102980000320D0E54748406B022108400028F2D1DF
:10299000206A00284FD0434840680C21084008288E
:1029A00064D0206A022847D13E4800680121090608
:1029B00088433C490860FFF76BFB054606E0FFF7DC
:1029C00067FB401B022801D90320ACE535480068AD
:1029D0000121490608400028F1D100BF3148C06AF2
:1029E00000090001E16A08432E49C862616AA06AD1
:1029F00008432C4949683D22120491430843294960
:102A0000486000BF084600680121090608432549BF
:102A10000860FFF73DFB054606E0FFF739FB401B6A
:102A2000022801D903207EE51E48006801214906DD
:102A300008400028F1D033E01A4800680121090657
:102A4000884318490860FFF723FB054606E0FFF7B7
:102A50001FFB401B022801D9032064E511480068D0
:102A60000121490608400028F1D119E0206A012817
:102A700000D158E50B484668C76A01200004304081
:102A8000616A88420AD13907090FE06A814205D19B
:102A90000F2080043040A16A884201D0012042E525
:102AA000002040E50010024070B504462546681E2F
:102AB0000949884201D901200CE0681E0749486194
:102AC0000321081F02F0E2FE00200449886107206C
:102AD0000861002070BD0000FFFFFF0000E000E083
:102AE0007047704730B502460B4600BF3C20805C03
:102AF000012801D1022030BD01253C20855400BFB2
:102B000002253D208554106844681068816870254E
:102B10002046A843044618680443106844600F4DDB
:102B20001068A84207D00E4D1068A84203D00D4D82
:102B30001068A84207D180250846A8430146586876
:102B400001431068816001253D20855400BF0025A8
:102B50003C20855400BF0020CDE70000002C014040
:102B6000000400400040014010B50446002C01D193
:102B7000012010BD3D20005D002805D100213C2032
:102B80000155204600F022F802213D200155211D6B
:102B9000206801F0BFFC01214620015500BF3E2006
:102BA00001553F200155402001554120015500BFEE
:102BB00000BF4220015543200155442001554520C6
:102BC000015500BF3D2001550020D2E738B504462D
:102BD0000D492068884215D100BF0C48C069022108
:102BE00008430A49C8610846C069022108400090AC
:102BF00000BF00BF002211461020FFF7C3FA1020CB
:102C0000FFF7B2FA38BD0000000400400010024097
:102C1000F8B504460D460020009000BF3C20005D42
:102C2000012801D10220F8BD01213C20015500BF3F
:102C300002213D200155206886687721304688436F
:102C40000646FF2109023046884306462068866012
:102C50002868502834D00CDC202851D004DC00280F
:102C60004CD0102852D14AE030284AD040284DD1CB
:102C70003AE060282ED0702807D001210903401ABD
:102C800002D0401A42D10DE043E0EB686A68A968BF
:102C9000206801F097FC206886687720064320684A
:102CA000866036E0EB686A68A968206801F08AFCF3
:102CB000206880680121890308432168886028E032
:102CC000EA686968206801F097FC5021206801F0EB
:102CD00087FC1EE0EA686968206801F0A6FC6021B4
:102CE000206801F07DFC14E0EA686968206801F062
:102CF00083FC4021206801F073FC0AE000BF00BFA4
:102D000000BF2968206801F06BFC02E00120009000
:102D100000BF00BF01213D20015500BF00213C2024
:102D2000015500BF00987EE7704770B504462068E3
:102D3000C5682068066902203040022819D1284061
:102D4000022816D1401F21680861012020772068E1
:102D500080698007800F002803D02046FFF7E4FF3A
:102D600005E0204600F098F8204600F096F8002094
:102D700020770420304004281AD12840042817D195
:102D8000C043216808610220207720688069032100
:102D900009020840002803D02046FFF7C5FF05E0E0
:102DA000204600F079F8204600F077F800202077E0
:102DB00008203040082819D12840082816D1C043DF
:102DC00021680861042020772068C0698007800F8F
:102DD000002803D02046FFF7A7FF05E0204600F0BB
:102DE0005BF8204600F059F8002020771020304092
:102DF00010281AD12840102817D1C0432168086133
:102E0000082020772068C0690321090208400028B3
:102E100003D02046FFF788FF05E0204600F03CF88D
:102E2000204600F03AF800202077F007C00F002875
:102E30000AD0E807C00F002806D00120C04321684F
:102E40000861204600F02AF880203040802808D110
:102E50002840802805D1C043216808612046FFF73B
:102E60003FFE40203040402808D12840402805D16E
:102E7000C04321680861204600F011F8202030404E
:102E8000202808D12840202805D1C04321680861A6
:102E90002046FFF726FE70BD7047704770477047A9
:102EA0007047F8B50446E56F8020065920688068B1
:102EB00080210840802827D1212D25D100BF02F094
:102EC00021FD0746012002F020FD20688068802156
:102ED000884321688860384602F017FD00BF206FE4
:102EE00000280ED0206FFEF75FFE002809D0206F6B
:102EF000FEF7AFFE202804D11021842001510320C9
:102F0000F8BD204602F099F820688068402108400A
:102F1000402827D1222E25D100BF02F0F3FC07461E
:102F2000012002F0F2FC206880684021884321687B
:102F30008860384602F0E9FC00BF606F00280ED0C0
:102F4000606FFEF731FE002809D0606FFEF781FE4A
:102F5000202804D11021842001510320D0E72046ED
:102F600002F010F80020CBE770470000F0B585B004
:102F700004462068C5692068066820688768E348B9
:102F800028400390039800280FD1202028400028D3
:102F90000BD020203040002807D0A06E002802D09F
:102FA0002046A16E884705B0F0BD039800287DD06B
:102FB000F807C00F002803D1D54830400028F6D0CC
:102FC000E807C00F00280DD0FF2001303040002856
:102FD00008D001202168086284200059012108439B
:102FE000842108510220284000280CD0F807C00F87
:102FF000002808D00220216808628420005904219A
:103000000843842108510420284000280CD0F807E8
:10301000C00F002808D004202168086284200059CD
:10302000022108438421085108202840002810D09C
:1030300020203040002803D1F807C00F002808D016
:10304000082021680862842000590821084384214F
:1030500008510120C002284000280ED0012080061F
:103060003040002809D00120C00221680862842075
:103070000059202108438421085184200059002848
:1030800054D020202840002809D02020304000289B
:1030900005D0A06E002802D02046A16E884784206B
:1030A0000059029020688068402100E03FE008401D
:1030B000402804D0282102980840002830D020461B
:1030C00001F060FF2068806840210840402823D13B
:1030D00000BF02F017FC0190012002F016FC2068EE
:1030E00080684021884321688860019802F00DFCC7
:1030F00000BF606F00280BD08648616F4863606F27
:10310000FEF77BFD002811D0606F416B88470DE012
:103110002046FFF729FF09E02046FFF725FF05E0DD
:103120002046FFF721FF0021842001513BE7206E5C
:1031300001287DD110202840002879D0102030406F
:103140000028FAD010202168086220688068402199
:10315000084040286ED1606F0068406880B20190DE
:103160000198002863D05820015B019881425EDD00
:103170005A2101980853606F806920284CD000BF05
:1031800002F0C0FB0090012002F0BFFB2068006845
:10319000FF210131884321680860009802F0B5FBE7
:1031A00000BF00BF02F0AEFB0090012002F0ADFBBB
:1031B000206880684008400021688860009802F01C
:1031C000A4FB00BF00BF02F09DFB0090012002F0B5
:1031D0009CFB2068806840218843216888600098B3
:1031E00002F093FB00BF20218020015100202066C7
:1031F00000BF02F087FB0090012002F086FB2068F0
:1032000000681021884321680860009802F07DFB67
:1032100000BF606FFEF7C8FC022060665820025BAA
:103220005A20005B101A81B22046FFF739FEBAE639
:103230004FE0FFE75820015B5A20005B081A80B27C
:1032400001905A20005B002842D0019800283FD00E
:1032500000BF02F057FB0090012002F056FB2068EF
:103260000068FF212131884321680860009802F03E
:103270004CFB00BF00BF02F045FB0090012002F0B4
:1032800044FB2068806840084000216888600098FE
:1032900002F03BFB00BF202180200151002020666E
:1032A000A06600BF02F02EFB0090012002F02DFB73
:1032B000206800681021884321680860009802F0A7
:1032C00024FB00BF0220606620460199FFF7E8FD5D
:1032D00069E68020284000280AD08020304000285D
:1032E00006D0E06E002802D02046E16E88475AE6FC
:1032F00040202840002807D040203040002803D03C
:10330000204601F07FFE4EE600BF4CE60F080000AD
:1033100020010004294E000810B50446002C01D1FC
:10332000012010BDA069002800D000E000BFE06FC0
:10333000002805D1002178200155204600F02CF806
:103340002420E06720680068400840002168086089
:10335000606A002802D0204601F06EFC204601F091
:1033600083FE012800D1DCE7206840680121C90202
:103370008843216848602068806808218843216864
:1033800088602068006801210843216808602046A1
:1033900001F0CAFCC5E7000010B586B00446142150
:1033A00001A8FCF794FF7149206888426CD100BFE6
:1033B0006F4880690121890308436D498861084687
:1033C0008069012189030840009000BF00BF00BF51
:1033D00067484069C9000843654948610846406933
:1033E000012149040840009000BF00BF03204002B3
:1033F00001900220029000200390032004900120FD
:10340000059001A90920C006FEF730FD59485A4928
:103410000860102048600021574881608021C16009
:103420000021016141618161C161FEF78DFC0028CD
:1034300001D0FDF7B9FF00BF4F482067446200BFCD
:103440004C4814304D4908600020486000214B482A
:1034500081608021C1600021016141618161C161A0
:10346000FEF772FC002801D0FDF79EFF00BF434825
:103470006067446200BF002211461B20FEF782FEF7
:103480001B20FEF771FE6EE03D49206888426AD13C
:1034900000BF3748C0690121490408433449C86165
:1034A0000846C069012149040840009000BF00BFE0
:1034B00000BF2F48406908432D49486108464069CC
:1034C000012149040840009000BF00BF0C2001907A
:1034D0000220029000200390032004900120059018
:1034E00001A90920C006FEF7C1FC22483C3025494D
:1034F0000860002048600021224881608021C1606E
:103500000021016141618161C161FEF71DFC00285C
:1035100001D0FDF749FF00BF1A486067446200BF51
:1035200014482830184908601020486000211648C7
:1035300081608021C1600021016141618161C161BF
:10354000FEF702FC002801D0FDF72EFF00BF0E4859
:103550002067446200BF002211461C20FEF712FEC5
:103560001C20FEF701FE06B010BD0000003801402F
:10357000001002401C00024064020020A80200204B
:1035800000440040EC02002030030020F8B504465F
:103590000D46164680200059202834D1002D01D038
:1035A000002E01D10120F8BD01210903A068884245
:1035B00008D12069002805D1E807C00F002801D0F4
:1035C0000120F0E700202066206840680121C9053D
:1035D0000840002811D000BF02F094F907460120EE
:1035E00002F093F9206800680121890608432168E8
:1035F0000860384602F089F900BF32462946204665
:1036000001F002FECFE70220CDE770477047FFB51B
:1036100083B004460D461746E06F202869D1002D7F
:1036200001D0002F02D1012007B0F0BD0121090314
:10363000A068884208D12069002805D1E807C00F9A
:10364000002801D00120EFE7002184200151212032
:10365000E067FEF71DFD01905020075352200753ED
:1036600001210903A068884205D12069002802D100
:103670000026029502E02E460020029023E00698E4
:103680000090002280212046019B01F02BFE0028A3
:1036900003D02020E0670320C6E7002E09D102985E
:1036A0000088C005C00D216808850298801C029022
:1036B00003E0307821680885761C5220005B401EAC
:1036C00081B2522001535220005B0028D7D10698C6
:1036D0000090002240212046019B01F003FE0028BB
:1036E00003D02020E06703209EE72020E067002031
:1036F0009AE7022098E70000034A0168914202D14C
:103700000021024A1170704700440040040000206C
:1037100000BFFEE710B5144C0A20205E134CA042F7
:1037200001D1012000E0002001460F480C24045F75
:103730000E48844201D1012000E0002002460A48E0
:103740000E24045F0948844201D1012000E00020DA
:103750000346002905D0002A03D0002B01D0012008
:1037600010BD0020FCE700001C100020E703000053
:1037700001460348814201D1012070470020FCE747
:10378000E703000010B505200249087001F05AFE59
:1037900010BD00006E00002010B50E480078002813
:1037A00002D0052807D105E002200A49087001F07F
:1037B00049FE0DE00CE0FFF7ADFF002805D10648FB
:1037C0000078002801D001F0E7FD01F03BFE00BFCA
:1037D00000BF10BD6E0000207000002010B5FFF784
:1037E000D1FF10BD10B508480078002802D0052888
:1037F00002D100E000BF04E001F02AFE01F022FE49
:1038000000BF00BF10BD00006E00002010B51248C0
:103810000078002802D0052802D100E000BF18E09F
:10382000FFF778FF002802D001F00CFE11E00B48F2
:103830000078012805D100200849087000F0C8FD73
:1038400004E001200549087000F0C2FD01F0FAFD16
:1038500000BF00BF10BD00006E0000201C10002043
:1038600010B508480078002802D0052802D100E0F1
:1038700000BF04E001F0F6FD01F0E4FD00BF00BF71
:1038800010BD00006E000020FFB581B005460E4659
:10389000174600242AE01748005D012804D00228BA
:1038A0000BD003281ED112E0002C01D1A84700E064
:1038B000B04700200F49085515E0002C01D1B8474A
:1038C00001E00498804700200A4908550BE0002CCD
:1038D00002D10A98804701E00B98804700200549F3
:1038E000085500E000BF00BF601CC4B2022CD2DB50
:1038F00005B0F0BD3C00002038B520213B48FEF764
:10390000ADFB6946087010213848FEF7A7FB6946F1
:103910004870002467E06846005D002847D16000D9
:103920003349085A401C6100314A5052002C11D1D1
:103930003048007800280DD160001146085A02284E
:1039400008D12D48005D002804D101202B490855DD
:103950002949085560002649085A642811D10220D7
:1039600026490855002C16D125480078002812D188
:1039700005202049087001F065FD012020490870EC
:1039800009E060001A49085AFF212D31884202D10E
:1039900003201A49085560001549085AFF212D31A6
:1039A00088421ED908466100114A505219E0600051
:1039B0000F49085A02280AD36000085A642806D220
:1039C0000D48005D002802D101200C490855002057
:1039D0006100074A505208490855002C01D1084996
:1039E0000870601CC4B2022C95DB38BD000400488E
:1039F0003E0000206E000020420000203C0000201D
:103A00004400002010B5012149030248FEF72FFBB6
:103A100010BD0000000800480EB500200090019085
:103A200002901F481F4908600020486000211D487F
:103A30008160C1600121016108214161002101769D
:103A40004176012181760021C176FF21C231C16119
:103A50000021016201212430017024388162FDF7C8
:103A6000FDFE002801D0FDF79FFC00200090012002
:103A7000000301900720029069460A48FDF79EFD69
:103A8000002801D0FDF790FC012000906946054810
:103A9000FDF794FD002801D0FDF786FC0EBD000067
:103AA000002401408800002008B500BF124840698A
:103AB000012108431049486108464069C007C00F0A
:103AC000009000BF00BF002211460920FEF75AFBFC
:103AD0000920FEF749FB002211460A20FEF752FB9F
:103AE0000A20FEF741FB002211460B20FEF74AFB9D
:103AF0000B20FEF739FB08BD0010024000B587B06F
:103B0000142102A8FCF7E3FB00BF3E4840690121F5
:103B1000C90408433B494861084640690121C9047A
:103B20000840019000BF00BF00BF36484069C9008F
:103B30000843344948610846406901218905084025
:103B4000019000BF00BF00BF2E48406949110843E3
:103B50002C49486108464069012149040840019008
:103B600000BF00BF00BF27484069490008432549FE
:103B7000486108464069012189040840019000BF5E
:103B800000BF002249112048FEF77BFA00221F499E
:103B90001F48FEF776FA00220321C9020920C00659
:103BA000FEF76FFA012040030290012003900020ED
:103BB0000490059002A91448FEF758F913480290A2
:103BC0000120039000200490059002A91048FEF700
:103BD0004DF90320C00202900120039000200490C0
:103BE000059002A90920C006FEF740F93020029096
:103BF00000200390049002A90548FEF737F907B0AA
:103C000000BD0000001002400008004808610000EC
:103C10000004004800B587B0002003900490059090
:103C200006900190029015481549086000204860F0
:103C30000021134881601349C16000210161816145
:103C4000FEF792FF002801D0FDF7AEFB0120000334
:103C5000039003A90A48FEF7DBFF002801D0FDF717
:103C6000A3FB00200190029001A90548FEF73AFF4E
:103C7000002801D0FDF798FB07B000BD000400400C
:103C80000C010020FFFF000010B50E480E4908602F
:103C9000E1204002486000210B488160C160016161
:103CA0000C21416100218161C1610162002006494E
:103CB00048620846FFF730FB002801D0FDF774FB8F
:103CC00010BD0000003801405401002010B50E481E
:103CD0000E4908604B20C001486000210B488160FC
:103CE000C16001610C21416100218161C1610162FA
:103CF0000020064948620846FFF70EFB002801D065
:103D0000FDF752FB10BD000000440040DC01002024
:103D10001CB5FFF777FE00F0B3FC45480478002C93
:103D200002D100204349087043484449444B454A66
:103D30000091019044494548FFF7A6FD44480078AA
:103D400000281ED04248007805281AD0002C09D03F
:103D500040480078002805D102203649087001F05B
:103D600071FB0EE0002C0CD13A480078002808D0F6
:103D700030480078022804D100202E49087001F054
:103D800061FB34480470324800783349097888422E
:103D90001AD02F480078022804D100202549087045
:103DA0002E4908802A480078052809D100202C498E
:103DB00008702C490870002208212B48FEF761F991
:103DC0002348007824490870FCF740FE01F0ACFB62
:103DD0001F480078002815D01D480078052811D00C
:103DE0001F480078022810D01C480088401C1B493E
:103DF0000880084600881D49884206D305201449DA
:103E0000087002E000201549088011480078052854
:103E10000DD120211448FEF721F9002807D00022F7
:103E200008211148FEF72DF90020094908701CBD32
:103E3000700000204500002061380008DD370008D0
:103E4000E5370008853700080D3800089937000865
:103E50006E000020850000208400002082000020E9
:103E6000730000207400002000040048B80B00001C
:103E700000BFFEE7F0B58DB007461320C0430C909D
:103E800005200B905F200A9030480088B84202DD80
:103E90002F480DB0F0BD2D488030C08FB84201DAF8
:103EA0002C48F6E700255F26701944081BE06000E7
:103EB0002649085AB84204DD26467019C005040E8A
:103EC00011E060002149085AB84204DA2546701909
:103ED000C005040E07E0A0002018143807900798CA
:103EE000FCF794FBD5E7701B0128E0D1A800281847
:103EF000143807906900154A505AFCF78FFB099057
:103F00007100124A505AFCF789FB08900798FCF799
:103F10007DFB05900999089801F0DCFE0390384676
:103F2000FCF77CFB0090099901F0D4FE0A4901904E
:103F300001F078FE02900399FCF77CFA0490059951
:103F400001F02AFE06900698A3E70000105E000824
:103F50000000A0C10080E3430000A04070470000C3
:103F600070B503460C46002101E0481C81B20C20CC
:103F70004843104D2858002801D02029F5DB20297E
:103F800004D101200C4D2870202070BD0C20484326
:103F9000084D2B500C204843401984800C20484386
:103FA0004019C28000250C204843024E801905723A
:103FB0000846EAE77C0D00201C00002010B50146F1
:103FC0000C224A430D4B9A58002A04D102220C4B72
:103FD0001A70012000E0002000230C224A43074C05
:103FE000A3500C224A43121993800C224A431219FF
:103FF000D3800C224A431219137210BD7C0D00208D
:104000001C00002010B5002423E00C20604314495C
:104010004018007A00281ADD0C216143104A5058DC
:1040200080470C2060430E494018007A401EC1B200
:104030000C2060430A4A801801720C20604311462C
:104040004018C088002802D12046FFF7B7FF601C47
:1040500084B2202CD9DB00F007F800F003F810BD83
:104060007C0D002070470000124800781249097842
:1040700088420FD00F4800780F4908700D4800782B
:10408000002803D00D480E49088011E000200C499B
:1040900008800DE00A480088002809D008480088F8
:1040A000401E80B206490880002801D101490870ED
:1040B000704700001C0000202000002060EA000083
:1040C0001E000020002034E00C2141431A4A5158C0
:1040D00000292CD00C2141438918898800291AD144
:1040E0000C2141438918097A491CCAB20C21414369
:1040F000114BC9180A720C2141431A468918C98804
:10410000002914D00C2141438918CA880C2141434D
:10411000C9188A800BE00C214143074A8918898815
:10412000491E8AB20C214143034BC9188A80411CA5
:1041300088B22028C8DB70477C0D002010B50446EB
:10414000002C05D0012251030548FDF79AFF05E038
:104150000022012149030248FDF793FF10BD000032
:104160000004004810B50446002C05D0012291033C
:104170000548FDF786FF05E000220121890302487A
:10418000FDF77FFF10BD000000040048704710B528
:10419000FCF7FCFDFCF726FDFCF718FD10BD000048
:1041A00010B5002015E000210FE00B4A525C0123FE
:1041B00083401A40002A01D0FF2200E000220301C0
:1041C0005B18064CE2544A1CD1B21029EDD3421CB4
:1041D000D0B20828E7D310BD900F00200D0F0020AB
:1041E00010B51B4B1B78DB09DB014406640E23432F
:1041F000174C237023465B78DB09DB014406640E11
:104200002343134C637023469B78DB09DB014C0688
:10421000640E23430E4CA3702346DB78DB09DB01DD
:104220004C06640E23430A4CE37023461B79DB09DA
:10423000DB015406640E2343054C237123465B794E
:10424000DB09DB015406640E2343014C637110BD8E
:10425000900F0020FEB50446002C58DA604280B270
:1042600001900198632801D963200190642101988D
:10427000FCF72FF800910A210098FCF72AF806466F
:104280000A210198FCF725F80D464E480078C00930
:10429000C0014D49C97A4906490E08434949087089
:1042A00008464078C009C0014749C97A4906490E05
:1042B00008434449487008468078C009C001424913
:1042C000895D4906490E08433E4988700846C07812
:1042D000C009C0013C49895D4906490E0843394976
:1042E000C87008460079C009C001374A515D4906C7
:1042F000490E08433349087108464079C009C00196
:10430000515D4906490E08432E494871FEBD2F48AC
:10431000844200DD0446A0B26421FBF7DAFFC7B295
:10432000A0B26421FBF7D5FF00910A210098FBF7AA
:10433000D0FF0646A0B20A21FBF7CBFF0D4621486D
:104340000078C009C0012049C95D4906490E0843EB
:104350001C49087008464078C009C0011A49C95D67
:104360004906490E08431749487008468078C00935
:10437000C0011549895D4906490E084311498870F5
:104380000846C078C009C0010F49895D4906490E39
:1043900008430C49C87008460079C009C0010A4AA0
:1043A000515D4906490E084306490871084640799F
:1043B000C009C001515D4906490E084301494871D1
:1043C00000BFA3E7900F0020DC5D0008E7030000BA
:1043D00070B5054600240AE062000649885E294659
:1043E000FCF7F2FE620003498852601CC4B2092C3B
:1043F000F2D370BD2610002010B50122082112480A
:10440000FDF73FFE00220121C9020920C006FDF789
:1044100038FE00200D4908700D4908700D490870DC
:104420000D4908700D4908700D49087002200D49AA
:10443000087001200C49087000200C490870FF200A
:10444000F530FDF7FDFC10BD0004004878000020A9
:10445000730000207400002075000020760000200A
:10446000770000206E0000201C1000204500002076
:1044700010B5FDF713FEFFF725FE10BD00B595B092
:10448000302109A8FBF723FF002005900690079034
:10449000089001900290039004901220099001204E
:1044A0000C900E9010200D900F9002201190002182
:1044B00012910521C90413910021149109A8FEF756
:1044C0002DF8002801D0FCF76FFF0720059002208F
:1044D0000690002007900890012105A8FDF704FF31
:1044E000002801D0FCF760FF01200190002003901C
:1044F00001A8FDF751FE002801D0FCF755FF15B0CB
:1045000000BD704710B50248FEF70FFC10BD00005B
:104510000C01002010B50268244B984202D0244BB5
:10452000984205D170241346A3431A464B681A4398
:104530001E4B98420ED01E4B98420BD01D4B9842FA
:1045400008D01D4B984205D01C4B984202D01C4B02
:10455000984206D1032424021346A3431A46CB688B
:104560001A4380241346A3434C6923431A4602602E
:104570008B68C3620B6883620C4B984208D00E4B69
:10458000984205D00D4B984202D00D4B984201D174
:104590000B690363012343610369DB07DB0F002B16
:1045A00003D003695B085B00036110BD002C014070
:1045B0000004004000200040004001400044014051
:1045C0000048014070B50C468168FF2636020D4652
:1045D000B54329461D02154325432943816070BD1B
:1045E00010B50A46816870240B46A3431946072379
:1045F00013431943816010BD70B50B461446026A1F
:10460000056A6D086D0005628169F0260D46B543A7
:104610002946250129430A261546B5432A4615464B
:104620001D432A468161026270BD70B50B46144677
:10463000026A056A1026B543056281690F263603B2
:104640000D46B543294625032943A0261546B54303
:104650002A461D012A438161026270BD10B50446DD
:1046600006480078012801D1204610BDE1006018FD
:104670000521FBF738FE203000B2F6E71C100020C1
:10468000F0B589B001F044FAFE480078002842D025
:10469000002008903CE008984000FB490E5EFB4873
:1046A000864205D1014608984200F94881522BE024
:1046B000F7480A38007801280FD11320C0438642FA
:1046C00000DA0646FF20C830864200DD064631B2D9
:1046D00008984200EE48815215E0F100701805215B
:1046E000FBF701FE064620360320C043864200DA6F
:1046F0000646E6489438864200DD064631B2089800
:104700004200E348815200BF0898401CC0B20890A4
:1047100008980328BFD3FCF74BFE002000F01CFADA
:104720000790DA49079888420AD0491E07988842BC
:1047300006D00A21D748079A00F04EFA044600E056
:10474000079CD248844238D0401E844235D0CF489E
:104750009438844231D2D0480078002825D0CF4800
:104760000088CF49884220D320467830CB49098839
:10477000884204D33038C9490988884215D2C948CB
:104780000078FF2804D2C7480078401CC54908704B
:10479000C4480078032802D2C04804880DE00020F5
:1047A000C0490870BD48048007E00020BD4908707A
:1047B000BA4804800120B84908700120FCF7F8F8D5
:1047C0000690069800F078FEB04884422BD1002075
:1047D000B5490870B5480078FF2804D2B34800787E
:1047E000401CB2490870B2480078002805D0AF4894
:1047F0000078032801D209B0F0BD0020AC49087050
:10480000AC490870AC490870AC490870AC490870F4
:10481000AC490870AC4908709F490870A1490870FC
:10482000A2490870E7E70020A0490870A048007876
:1048300000280DD19C480078FF2804D29A480078BF
:10484000401C9949087098480078022800D2D2E7A5
:104850000020954908708D48401E844203D08B4843
:10486000943884422BD397480078FF2804D2954887
:104870000078401C9349087092480078032821D39F
:1048800001208F4908708A4908708A490870002001
:1048900089490870894908708B4908707C480A3832
:1048A0000078012805D1FF21C83179480A380182F2
:1048B00004E07649943976480A3801829BE7002063
:1048C00080490870214620398A0088180921FBF7A1
:1048D0000AFD05B201207649087079480078002861
:1048E0004BD0FF20BE30854218DD01207149087091
:1048F0000020714908707449087065480A380078CA
:10490000012805D1FF21C83161480A38018204E03D
:104910005E4994395E480A3801826CE76A4800783B
:10492000FF2804D268480078401C67490870664830
:104930000078022816D201205E49087000205E49E6
:10494000087053480A380078012805D1FF21C83182
:104950004F480A38018204E04C4994394C480A38DF
:10496000018248E7002056490870564908705649A8
:104970000870494908704B49087050480078002871
:1049800005D15248058001204C49087055E04F4838
:104990000088281A00B205900598002801DB0598C8
:1049A00002E00598404200B204900498022807DC17
:1049B00001270720039001200290082001901AE0AF
:1049C0000498082807DC03270320039001200290A5
:1049D000042001900FE00498142806DC0827012029
:1049E000039002900220019005E01427002003901C
:1049F0000120029001900598B84204DD33480088F8
:104A0000C01905B207E079420598884203DA2F48B9
:104A10000088C01B05B22D4A0021515E039A514304
:104A2000029A6A4388180199FBF75DFC00B2274996
:104A3000088008460025455F00BFFF20C83085423A
:104A40004ADB20480078FF2804D21E480078401C2A
:104A50001C4908701B480078032842D301201849DC
:104A60000870002018490870012012490870084891
:104A70000A38007801282BD1FF21C83104480A38B0
:104A8000018228E0520000204C000020E7030000D3
:104A900026100020081000205C0000205A00002092
:104AA000960200005D0000205F0000205E000020F4
:104AB00070000020710000207200002056000020CD
:104AC000570000205800002059000020540000200A
:104AD0001249134801828EE60020124908701249DB
:104AE00008701320C043854203DA01200F49087083
:104AF00002E000200D49087009480078012802D121
:104B00000748058208E0E90068180521FBF7EBFB80
:104B1000203001B20248018200BF6CE6530300005E
:104B20001C1000205800002071000020720000209E
:104B300010B5044607480078012801D1204610BD71
:104B4000214620398A0088180921FBF7CCFB00B2E6
:104B5000F5E700001C100020F8B507460C2078434C
:104B60001649401886881648864201D9154C22E01D
:104B700001221203911B144A72431046FBF7A9FB52
:104B80000546092189028D4201D20E4C13E00F48DF
:104B9000854202D90B4C641E0DE0A8B2FFF76AF9FA
:104BA0000090FBF7F7FC84B2E10060180521FBF7E9
:104BB0009AFB203084B22046F8BD0000D00F0020C0
:104BC0008B0E0000E7030000204E0000DB670000B2
:104BD00010B5FEF721FF10BD70B505460C46164610
:104BE00013480078401C1249087008460078A0421B
:104BF0000CDC08460078401E40002E520846017822
:104C00002846FBF7A5FE0B4908800DE0601C08490B
:104C10000870324621462846FBF70AFE2146284600
:104C2000FBF796FE034908800248008870BD00002B
:104C300067000020680000200822416A114008290E
:104C400007D10168496812039143426B114302681E
:104C50005160818CC907C90F002908D001684968D3
:104C6000012252049143826A114302685160022278
:104C7000416A1140022907D101684968D203914372
:104C8000C26A1143026851600422416A114004293A
:104C900007D10168496812049143026B114302680D
:104CA00051601022416A1140102907D101688968BA
:104CB00012029143826B1143026891602022416A83
:104CC0001140202907D10168896812029143C26B03
:104CD0001143026891604022416A1140402915D178
:104CE0000168496892039143026C11430268516064
:104CF00001221205016C914208D101684968032222
:104D000052059143426C1143026851608022416A0E
:104D10001140802907D10168496812039143826CD0
:104D20001143026851607047F8B5044600218420A1
:104D30000151FDF7ADF905462068006808210840DB
:104D4000082823D137482B460022890400902046AA
:104D500000F0C8FA002819D000BF00F0D3FD0646C5
:104D6000012000F0D2FD206800688021884321687E
:104D70000860304600F0C9FD00BF2020E06700BF9A
:104D800000217820015500BF0320F8BD206800688D
:104D900004210840042836D122482B460022090568
:104DA0000090204600F09EFA00282CD000BF00F0B2
:104DB000A9FD0646012000F0A8FD20680068FF213B
:104DC0002131884321680860304600F09EFD00BF15
:104DD00000BF00F097FD0646012000F096FD206818
:104DE00080684008400021688860304600F08DFDF2
:104DF00000BF20218020015100BF002178200155F3
:104E000000BF0320C1E72020E0672021802001515E
:104E100000202066606600BF00217820015500BF99
:104E20000020B2E7FFFFFF0170B505466C6A002164
:104E30005A200153522001532046FEF795F870BDC9
:104E4000F8B505466C6AE66F8020075920688068CF
:104E500080210840802807D1212E05D10021522031
:104E60000153204600F0E9F820688068402108409E
:104E7000402807D1222F05D100215A200153204676
:104E800000F080F884200059102108438421085143
:104E90002046FEF769F8F8BD70B505466C6AA8694A
:104EA00020284DD000215A20015300BF00F02AFDD8
:104EB0000646012000F029FD20680068FF2101312D
:104EC000884321680860304600F01FFD00BF00BF26
:104ED00000F018FD0646012000F017FD20688068EC
:104EE0004008400021688860304600F00EFD00BF99
:104EF00000BF00F007FD0646012000F006FD206817
:104F000080684021884321688860304600F0FDFCBD
:104F100000BF202180200151206E012810D100BF48
:104F200000F0F0FC0646012000F0EFFC206800686D
:104F30001021884321680860304600F0E6FC00BF7D
:104F400000206066206E012805D15820015B2046B4
:104F5000FDF7A6FF02E02046FEF757FB70BD70B5D7
:104F600005466C6A01206066206E012806D1582033
:104F7000005B41082046FDF793FF02E02046FEF764
:104F800045FB70BD70B5044600BF00F0BBFC054694
:104F9000012000F0BAFC20680068FF21213188431D
:104FA00021680860284600F0B0FC00BF00BF00F098
:104FB000A9FC0546012000F0A8FC20688068400894
:104FC000400021688860284600F09FFC00BF206EEA
:104FD000012810D100BF00F095FC0546012000F02B
:104FE00094FC2068006810218843216808602846E6
:104FF00000F08BFC00BF20218020015100202066A2
:10500000A06670BD70B5044600BF00F07BFC05468D
:10501000012000F07AFC2068006840218843216864
:105020000860284600F071FC00BF2020E0670020E7
:10503000E0662046FEF760FB70BD70B5044600BF19
:1050400000F060FC0546012000F05FFC206800686D
:10505000C021884321680860284600F056FC00BF44
:105060002020E06770BD0000FEB5044600200090DF
:105070002169A068084361690843E1690843029017
:10508000206800685A49084002990843216808606E
:1050900020684068032109038843E16808432168C8
:1050A0004860A0690290206A029908430290206833
:1050B00080680B21090288430299084321688860AF
:1050C00000BF4C492068884217D14B48006B8007CD
:1050D000800F002806D0012808D0022808D0032815
:1050E00008D101E0002707E0022705E0042703E0DC
:1050F000082701E0102700BF06E0404920688842E9
:1051000001D1002700E0102700BF0121C903E06999
:10511000884239D1002F06D0022F08D0042F08D0A2
:10512000082F0DD109E0FDF79BF905460CE0344D41
:105130000AE0FDF7A7F9054606E00125ED0303E0C7
:1051400000250120009000BF00BF002D4AD06A005A
:1051500063685B08D0186168FBF7BBF80646102E41
:105160000FD3284886420CD826480F38304001908B
:105170003007400F01990843019001982168C860E9
:1051800030E0012000902DE0002F06D0022F08D043
:10519000042F08D0082F0DD109E0FDF761F905466D
:1051A0000CE0174D0AE0FDF76DF9054606E0012514
:1051B000ED0303E000250120009000BF00BF002D9B
:1051C00010D061684A085019FBF783F80646102E84
:1051D00006D30C48864203D8B0B22168C86001E00B
:1051E000012000900020A066E0660098FEBD00004F
:1051F000F369FFFF00380140001002400044004006
:1052000000127A00FFFF0000F8B504460E4615466E
:1052100066655820055300218420015122218020F9
:105220000151606F00281DD02B48616F88622B48A8
:10523000616FC8622A48616F08630020616F48632C
:105240002368194624312B46626D606FFCF7AAFD76
:10525000002807D0102184200151202180200151F5
:105260000120F8BD2069002811D000BF00F04AFBE2
:105270000746012000F049FB20680068FF2101314A
:10528000084321680860384600F03FFB00BF00BFBC
:1052900000F038FB0746012000F037FB20688068EB
:1052A0000121084321688860384600F02EFB00BFCA
:1052B00000BF00F027FB0746012000F026FB206816
:1052C00080684021084321688860384600F01DFB53
:1052D00000BF0020C5E70000994E00085F4F00089E
:1052E000414E0008FFB581B004460D4617460A9EA0
:1052F00046E0701C002843D0FCF7CAFE0499401A0F
:10530000B04201D8002E02D1032005B0F0BD2068C4
:10531000006804210840002832D0802D30D0402D74
:105320002ED02068C06908210840C00800280FD08E
:105330000820216808622046FFF724FE0821842007
:10534000015100BF00217820015500BF0120DCE79A
:105350002068C0690121C9020840C00A00280FD096
:105360000846216808622046FFF70CFE20218420B1
:10537000015100BF00217820015500BF0320C4E780
:105380002068C0692840A84201D1012000E0002027
:10539000B842AED00020B8E770B51E4804781E4968
:1053A0000A20085EFEF7E4F900280FD01A490C2005
:1053B000085EFEF7DDF9002808D017490E20085EC8
:1053C000FEF7D6F9002801D0012000E000200546B4
:1053D000002D00D070BD0F480078012801D10024B5
:1053E00013E00C480078002801D103240DE009489F
:1053F0000078032808D109480078002801D002204D
:1054000000E00120044600E001240248047000BFCF
:10541000E0E70000450000201C1000207000002084
:1054200001480078704700007400002001480078AF
:10543000704700008000002001490020085E70478E
:105440007E00002000200149088070478200002073
:1054500010B5012002490870FBF7DAFA10BD000010
:105460007500002010B5012002490870FBF7B6FA5C
:1054700010BD00007600002010B5044A044905481C
:1054800000F046FA0348FDF771FD10BD74030020DB
:10549000A80200205401002010B5044A0449054820
:1054A00000F036FA0348FDF761FD10BD78080020D2
:1054B000EC020020DC0100201749884213D817496C
:1054C0000978142904D215490978491C134A117026
:1054D0000021134A11701149097814291AD30121A6
:1054E000104A117016E04B210901884212D30C4971
:1054F0000978142904D20A490978491C084A11700C
:105500000021064A117006490978142902D30021A6
:10551000044A1170704700004C0400006A0000202B
:105520006B0000204B00002038B500206349087054
:1055300063490A20085EFEF71BF900280FD0604976
:105540000C20085EFEF714F9002808D05C490E20F4
:10555000085EFEF70DF9002801D0012000E00020D0
:105560000546002D06D003205449087000205549F7
:10557000088038BD54480078002825D0012804D080
:1055800002285FD0032871D13DE04D480C24045F10
:105590002046FEF7EDF8002806D0032047490870A2
:1055A0000020484908800EE06A4621460120FBF7AA
:1055B000F3FC002805D069460020085E41490880B8
:1055C00001E04048048075E03D480A24045F20461D
:1055D000FEF7CEF8002806D00320384908700020D6
:1055E000384908800EE06A4621460020FBF7D4FCCB
:1055F000002805D069460020085E3249088001E095
:105600003048048056E02E480E24045F2046FEF702
:10561000AFF8002806D00320284908700020294947
:1056200008800EE06A4621460220FBF7B5FC002800
:1056300005D069460020085E2249088001E0214823
:10564000048037E021480078002804D11C484089B4
:105650001C49088028E01E480078002807D0012057
:10566000164908700020174908801DE01DE0194800
:105670000078002806D00220104908700020114947
:10568000088011E00E481024045F6A46214603207A
:10569000FBF782FC002805D069460020085E094916
:1056A000088001E00748048004E005484089054976
:1056B000088000BF00BF00BF5BE700008000002043
:1056C0001C1000207E0000204500002070000020FB
:1056D000710000207200002070B5024600204E4C80
:1056E0002478012C01D14D4C00E04D4C23461C8800
:1056F00094420BDC002107E04C001C5B944201DC6F
:105700004C1CE0B24C1CE1B20929F5D3454CA479FC
:10571000A408A400002801D0032500E00025AD075F
:10572000AD0F2C433F4DAC712C46A4790C25AC43F6
:10573000022801D3032500E00025AD000C263540EA
:105740002C43384DAC712C46A4793025AC4303284A
:1057500001D3032500E000252D01302635402C43E0
:10576000304DAC712C46E479A408A400042801D380
:10577000032500E00025AD07AD0F2C43294DEC714A
:105780002C46E4790C25AC43052801D3032500E021
:105790000025AD000C2635402C43224DEC712C46E3
:1057A000E4793025AC43062801D3032500E0002529
:1057B0002D01302635402C431A4DEC712C46247AAD
:1057C000A408A400072801D3032500E00025AD07A5
:1057D000AD0F2C43134D2C722C46247A0C25AC4370
:1057E000082801D3032500E00025AD000C26354034
:1057F0002C430C4D2C722C46247A3025AC430928BE
:1058000001D3032500E000252D01302635402C432F
:10581000044D2C7270BD00001C100020EC5D0008CF
:10582000FE5D0008900F002000200349887008806A
:105830000249087070470000740800206C000020C6
:10584000F8B582B28BB2040C0D0C104658430021FF
:1058500026465E43370C36048019794116466E435E
:10586000370C36048019794126466E438919F8BDF4
:1058700030B47446641E2578641CAB4204D3635D67
:105880005B00E31830BC18471D46F8E710B5002848
:1058900019DB1A4A03231B02D21883089B00D25833
:1058A0008307DC0EFF23A3409A438B071B0E84075C
:1058B000E40EA3401A43114B032424021B1984084D
:1058C000A4001A5118E00E4A03071B0F083B9B085F
:1058D0009B00D2588307DC0EFF23A3409A438B071B
:1058E0001B0E8407E40EA3401A43054B0407240F44
:1058F000083CA408A4001A5110BD000000E100E01B
:105900001CED00E0EFF31080704780F310887047C3
:10591000F8B505460E4614462868C06910210840AF
:105920000009002819D01020296808622846FDF7D0
:10593000B8FA3068476805200002C01B052109023B
:10594000611808800120052109026118887005226C
:10595000120221462846FDF719FEF8BD002018E086
:1059600000220C2141430C4B5A520C4A0C2141435A
:10597000C9184A8000220C214143C9188A800C2191
:105980004143C9188A6000214200054B9952411CCD
:10599000C8B20228E4DB7047D00F0020FF0F0000E0
:1059A0000000002010B50E48006800681021084370
:1059B0000B4909680860052212020A490848FDF7E8
:1059C000E5FD094800680068102108430649096898
:1059D00008600522120205490348FDF7D7FD10BDF6
:1059E0005401002074030020DC010020780800200E
:1059F000FCF760FBFEF742FDFEF780F8FEF754F877
:105A0000FEF70AF8FEF706F9FEF73EF9FEF75EF933
:105A1000FEF7F2FCFEF7BBFBFFF7DAF8FFF7C2FF79
:105A2000FFF702FFFEF774F9FBF73CFC0A220021A6
:105A30000B48FEF795FA0A2200210A48FEF790FA71
:105A4000FF22F53200210848FEF78AFA642200217D
:105A50000648FEF785FA01E0FEF7D4FAFCE70000FD
:105A6000F9380008A512000881460008113D000819
:105A700070B5054628780006697809040843A978B6
:105A800009020843E9780843044664212046FAF7EE
:105A90002AFC044620460A30002809D00E2C07D0E4
:105AA000FF20C830844203DC1320C043844201DA63
:105AB000014870BD20B2FCE7E703000070B5034663
:105AC0000C46114E1D68B54201D1104900E070BD71
:105AD00025686D6805263602751BA8B20D888542BB
